:020000022000DC
:106000000000012019620200016202000362020026
:10601000056202000762020009620200000000003F
:106020000000000000000000000000000B62020001
:106030000D620200000000000F6202001162020007
:106040000DA30200136202001DB002007DCA02000F
:10605000F5BC02001362020019AF0200B5B10200E4
:106060001362020013620200136202001362020054
:106070001362020013620200136202001362020044
:106080001362020001F102001362020013620200B7
:106090001362020013620200011703001362020080
:1060A0001362020013620200136202001362020014
:1060B00013620200136202000000000000000000F2
:1060C00013620200136202001362020009BD0200A3
:1060D000136202001362020013620200000000005B
:1060E00000000000000000000000000000000000B0
:1060F00000000000000000000000000000000000A0
:10610000000000000000000000000000000000008F
:10611000000000000000000000000000000000007F
:10612000000000000000000000000000000000006F
:10613000000000000000000000000000000000005F
:10614000000000000000000000000000000000004F
:10615000000000000000000000000000000000003F
:10616000000000000000000000000000000000002F
:10617000000000000000000000000000000000001F
:10618000000000000000000000000000000000000F
:1061900000000000000000000000000000000000FF
:1061A00000000000000000000000000000000000EF
:1061B00000000000000000000000000000000000DF
:1061C00000000000000000000000000000000000CF
:1061D00000000000000000000000000000000000BF
:1061E00000000000000000000000000000000000AF
:1061F000000000000000000000000000000000009F
:10620000FEE7FEE7FEE7FEE7FEE7FEE7FEE7FEE766
:10621000FEE7FEE700F002B8FFF7FCBF0F484FF0C3
:106220000701884385460E4880470E48016841F4BF
:1062300070010160BFF34F8FBFF36F8F00F01AB88A
:1062400009480A490A4A884207D0521A05D00378F9
:1062500001300B700131013AF9D170470000012083
:10626000897E020088ED00E0D44C0300D82A00208B
:10627000D82A0020354936480A1A02D0072291430D
:106280008D46344934480A1A06D00722914381F3D7
:106290000988022282F3148830483149314A00F0DB
:1062A00044F831483149324A00F03FF83148324928
:1062B000324A00F03AF832483249334A00F035F8B1
:1062C00032483349334A00F030F833483349344ACE
:1062D00000F02BF833483449344A00F026F83448AB
:1062E0003449002200F02CF833483449002200F0F1
:1062F00027F833483349091A082902DB00220260D3
:106300004160314A90471F481F49884205D00268C2
:10631000043003B4904703BCF7E700208646EC4600
:1063200000200021294A9047FEE7884207D0521AF0
:1063300005D0037801300B700131013AF9D1704773
:10634000884202D002700130FAE770470000012055
:1063500000E000200000012000000120647903001B
:10636000D82A00209C2B0020D0630200D0630200BA
:10637000884B030064790300D82A0020D82A002023
:10638000D44C0300D44C0300D44C0300D44C030081
:10639000D44C0300D44C0300D44C0300D44C030071
:1063A00062790300287A03009C2B00209C2B00209C
:1063B0009C2B0020D4450020D4450020D44500204B
:1063C000D4450020D4650020416202003D710200E6
:1063D00090B003900291019200230C9300238DF85A
:1063E0002F3000230A9300230993002308930023EE
:1063F0000F9300230E9311E0424B1A680E9B1A4430
:10640000414B1B68591C404801601278D2B210A958
:106410000B4403F8302C0E9B01330E930E9B082B7C
:10642000EADD03230D9329E004AA0D9B13441B7896
:10643000DBB21A040D9B013310A90B4413F8303C56
:10644000DBB21B0213430D9A023210A90A4412F860
:10645000302CD2B213430893089B1B020893089B6D
:106460000A930A9B1B120A930F9B5A1C0F92019AC4
:106470000A9942F823100D9B03330D930D9B082BB3
:10648000D2DD9DF81230DBB21A469DF81130DBB236
:106490001B021A439DF81030DBB21B0413430C930C
:1064A0000C9BDB1303F01F030C930C9B8DF82F3018
:1064B0009DF81330DBB21A049DF81430DBB21B02D6
:1064C00013439DF81520D2B213430993099B1B0275
:1064D0000993099A019B5A629DF82F3003F01F031C
:1064E000002B04D0019B012283F8202003E0019BB4
:1064F000002283F82020044B00221A600023184653
:1065000010B07047A42B0020A82B002000B587B046
:10651000039002910192029800F0F4F9642001F0D6
:106520008AF8019800F010FA019800F01DFA01981D
:1065300000F02AFA039800F037FA039800F03FFAC7
:10654000322001F078F8039800F04FFA4FF496707B
:1065500001F071F8039A3F49002000F08FF93D4B9C
:106560001B78732B01D002236FE0039A03210120D3
:1065700000F0D6F80A2001F05EF8039AA02102206C
:1065800000F0CEF80A2001F056F8039A10210320FB
:1065900000F0C6F80A2001F04EF8039A40210420CA
:1065A00000F0BEF80A2001F046F8039A60210520A9
:1065B00000F0B6F80A2001F03EF8039A2C210620DC
:1065C00000F0AEF80A2001F036F8039A0021072007
:1065D00000F0A6F80A2001F02EF8039AF221092013
:1065E00000F09EF80A2001F026F8039A03210A2001
:1065F00000F096F80A2001F01EF8039800F0EAF97E
:106600000A2001F018F8019800F0AEF9124A04AB24
:106610001268114619800233120C1A7003238DF888
:10662000113004AB0D4A1946142004F0E3FA05902A
:10663000059B002B04D00A4AAD21059808F060F9AB
:106640000121142004F052FB0023184607B05DF826
:1066500004FB00BF9C2B0020604D0300016A020078
:10666000D44C030000B585B00190019BDBB2002142
:10667000184600F0CBFF002303930CE0FF2000F04E
:10668000E5FF034619460B4A039B13440A461A705A
:10669000039B01330393039B082BEFDD019BDBB2CC
:1066A0000121184600F0B2FF024B184605B05DF814
:1066B00004FB00BFAC2B002000B583B00346009163
:1066C0008DF80730009BDBB20021184600F09EFFDA
:1066D000022000F0B0FF009BDBB20121184600F061
:1066E00095FF022000F0A7FF009BDBB200211846B7
:1066F00000F08CFF022000F09EFF9DF80730184646
:1067000000F0A4FF022000F096FF009BDBB2012105
:10671000184600F07BFF00BF03B05DF804FB0000EB
:1067200000B585B0034600928DF807300B468DF812
:1067300006309DF80730013B0A2B63D801A252F8BE
:1067400023F000BF716702007F67020099670200B3
:10675000056802000568020005680200B3670200D0
:10676000C1670200CF670200DD670200F767020021
:106770009DF8063023F078038DF8063043E09DF84D
:10678000063023F004038DF806309DF8063063F0E0
:106790007F038DF8063036E09DF8063023F00203C3
:1067A0008DF806309DF8063043F010038DF8063062
:1067B00029E09DF8063003F03F038DF8063022E013
:1067C0009DF8063003F05F038DF806301BE09DF85E
:1067D000063043F002038DF8063014E09DF80630D1
:1067E00023F078038DF806309DF8063043F001035E
:1067F0008DF8063007E09DF8063003F00F038DF8A2
:10680000063000E000BF9DF8073043F040038DF8EC
:106810000F30009BDBB20021184600F0F7FE02208B
:1068200000F009FF009BDBB20121184600F0EEFEEC
:10683000022000F000FF009BDBB20021184600F0B0
:10684000E5FE022000F0F7FE9DF80F30184600F03C
:10685000FDFE002000F0FAFE9DF80630184600F01C
:10686000F5FE022000F0E7FE009BDBB20121184696
:1068700000F0CCFE00BF05B05DF804FB00B587B0AA
:106880000346029101928DF80F309DF80F3043F0CE
:1068900020038DF81730019BDBB20021184600F071
:1068A000B5FE022000F0C7FE019BDBB201211846B5
:1068B00000F0ACFE022000F0BEFE019BDBB2002126
:1068C000184600F0A3FE022000F0B5FE9DF8173038
:1068D000184600F0BBFE002000F0B8FE002000F0DB
:1068E000B5FE03461A46029B1A70022000F0A3FE72
:1068F000019BDBB20121184600F088FE00BF07B003
:106900005DF804FB00B583B00190019BDBB201216F
:10691000184600F07BFE642000F08DFE019BDBB288
:106920000021184600F072FE642000F084FE019BF6
:10693000DBB20121184600F069FE642000F07BFE06
:1069400000BF03B05DF804FB00B583B00190019B6C
:10695000DBB20021184600F059FE142000F06BFE57
:1069600000BF03B05DF804FB00B583B00190019B4C
:10697000DBB20121184600F049FE142000F05BFE56
:1069800000BF03B05DF804FB00B583B00190019B2C
:10699000DBB20021184600F039FE642000F04BFE07
:1069A00000BF03B05DF804FB00B583B0019001990E
:1069B0000820FFF781FE00BF03B05DF804FB00B5BF
:1069C00083B0019001990A20FFF776FE00BF03B063
:1069D0005DF804FB00B583B0019001991020FFF72A
:1069E0006BFE00BF03B05DF804FB00B583B00190FF
:1069F00001991120FFF760FE00BF03B05DF804FBB2
:106A000000B583B001900B468DF803301F20FFF7CF
:106A100029FE0346054A1360054B1B680133044AEF
:106A2000136000BF03B05DF804FB00BFA42B00207F
:106A3000A02B002000B585B001900091009B002B99
:106A400015D0019B002B12D0009B0393019B1B8848
:106A5000102B02D0502B05D00AE00199039800F0CA
:106A60000AF805E00199039800F00BF800E000BF78
:106A700005B05DF804FB82B00190009100BF02B048
:106A8000704782B00190009100BF02B0704700B51E
:106A900085B001900091009B002B15D0019B002B2D
:106AA00012D0009B0393019B1B88102B02D0502B0C
:106AB00005D00AE00199039800F00AF805E0019971
:106AC000039800F00BF800E000BF05B05DF804FB90
:106AD00082B00190009100BF02B0704782B0019077
:106AE000009100BF02B0704700B585B001900091E1
:106AF000009B002B15D0019B002B12D0009B039311
:106B0000019B1B88102B02D0502B05D00AE0019965
:106B1000039800F00AF805E00199039800F00BF8DB
:106B200000E000BF05B05DF804FB82B00190009169
:106B300000BF02B0704782B00190009100BF02B068
:106B4000704708B51E2213211F20FFF7DFFC034604
:106B5000184608BD00B58FB0019003AB1A461F213F
:106B60001420FFF735FC03468DF837309DF8373099
:106B7000002B1BD1049B1B121AB20F4B1A800C9BCB
:106B80001B121AB20D4B1A809DF82C3083F00103B2
:106B9000DBB2002B05D10A4B00221A80094B0022E0
:106BA0001A80054BB3F90020019B1A809DF83730FD
:106BB00018460FB05DF804FBB62B0020BA2B00205E
:106BC000B82B0020BC2B002000B585B00190019BA4
:106BD000002B0AD0074B43F001030393019B9B0159
:106BE0000293039B0298984700E000BF05B05DF850
:106BF00004FB00BF304E030000B583B00190019B41
:106C00000433184605F00AFB00BF03B05DF804FB2F
:106C100000B589B0059003921A460B468DF81330E3
:106C200013468DF8123000230793059B181D9DF81D
:106C300012209DF813109DF8283000931346039AF4
:106C400005F032FE0790079B184609B05DF804FB7B
:106C500000B587B0039001921A460B468DF80B30B1
:106C600013468DF80A3000230593039B181D9DF8E9
:106C70000A309DF80B10019A05F03EFE0590059B29
:106C8000184607B05DF804FB00B58FB00390029181
:106C9000009313468DF8073000230D93029B059354
:106CA0009DF807300693009B07939DF840300893AA
:106CB000039B043305A90022184604F085FF0D90BC
:106CC0000D9B18460FB05DF804FB000000B583B0C3
:106CD0000190019B1B68184600F0B5F80346002B95
:106CE00004D105494FF4F67000F062FC4FF0A04368
:106CF000184603B05DF804FB644D030000B585B091
:106D00000190084611461A4603468DF803300B469B
:106D10008DF8023013468DF8013001AB1846FFF7AD
:106D2000D5FF03909DF803209DF802305B001A43C5
:106D30009DF801309B001A439DF818301B0242EA6F
:106D400003019DF81C301B04019A1943039B02F5B3
:106D5000E07243F8221000BF05B05DF804FB00B5F7
:106D600085B00390002301930023009300230122A8
:106D700001210398FFF7C2FF00BF05B05DF804FBD7
:106D800000B585B003900B468DF80B309DF80B30A5
:106D90000022019200220092002200210398FFF7B6
:106DA000ADFF00BF05B05DF804FB00B585B00190F4
:106DB00001AB1846FFF78AFF0390019B012202FAFC
:106DC00003F31946039800F02AF800BF05B05DF8F8
:106DD00004FB00B585B0019001AB1846FFF776FFC4
:106DE0000390019B012202FA03F31946039800F075
:106DF00020F800BF05B05DF804FB00B583B001903A
:106E00000091009B002B03D10198FFF7E2FF02E005
:106E10000198FFF7CAFF00BF03B05DF804FB82B022
:106E200001900091019B009AC3F8082500BF02B0B1
:106E3000704782B001900091019B009AC3F80C2525
:106E400000BF02B0704784B00190019B5B090293C0
:106E500000230393029B002B03D14FF0FF330393D6
:106E600000BF019B03F01F030193039A019B22FAC9
:106E700003F303F00103002B14BF01230023DBB253
:106E8000184604B0704700B583B00190019B002BF9
:106E90000AD04FF47A70FFF797FE019B013B0193F4
:106EA000019B002BF5D100E000BF03B05DF804FBAF
:106EB00008B500F079F800F005F900F0A3F800F04B
:106EC000D1F800BF08BD000000B587B003460491AB
:106ED00003928DF81730039BDBB29DF81710002248
:106EE0000092049A0648FFF793FE0346002B01D058
:106EF000002300E00123184607B05DF804FB00BF43
:106F0000D82A002000B585B00346029101928DF881
:106F10000F30019BDBB29DF80F10029A0648FFF775
:106F200097FE0346002B01D0002300E00123184602
:106F300005B05DF804FB00BFD82A002000B583B07F
:106F400003460A468DF8073013468DF806309DF843
:106F500007309DF8062011461846FFF74EFF00BF88
:106F600003B05DF804FB000000B587B00590049104
:106F70001346ADF80E30BDF80E30DAB2BDF80E3063
:106F8000DBB20093049B05990648FFF77DFE03469C
:106F9000002B01D0022300E00023184607B05DF863
:106FA00004FB00BFE82A002000B587B06B46002232
:106FB0001A605A609A60DA601B2300931A230193C7
:106FC0004FF0CD63029302238DF80C306946002305
:106FD00000220A4802F032FF0590059B0493049BAF
:106FE000002B04D0064A8921049807F089FC034845
:106FF000FFF702FE00BF07B05DF804FBD82A0020AF
:10700000944D030010B586B0134B6C460FCB84E84B
:107010000F0019238DF801301C238DF802301D2339
:107020008DF8003001238DF80C304FF0805302931F
:10703000694600230022094802F084FD0590059B63
:107040000493049B002B04D0054AA921049807F05F
:1070500057FC00BF06B010BD184E0300E82A002000
:10706000944D030010B586B0134B6C460FCB84E8EB
:107070000F000C238DF801300B238DF802300A230A
:107080008DF8003000238DF80C304FF080530293C0
:10709000694600230022094802F054FD0590059B33
:1070A0000493049B002B04D0054AC221049807F0E6
:1070B00027FC00BF06B010BD184E0300F82A0020C0
:1070C000944D030000B583B003F030FD0190019BA7
:1070D0000093009B002B04D0174AD321009807F09F
:1070E0000FFC03211420FFF74BFE0920FFF737FEAA
:1070F0001F20FFF734FE1320FFF731FE1E20FFF79D
:107100002EFE1720FFF72BFE01210920FFF716FFA7
:1071100001211F20FFF712FF01211320FFF70EFFAF
:1071200000211E20FFF70AFF01211720FFF706FFAD
:1071300000BF03B05DF804FB944D030000B583B0BD
:1071400000F060FA0DF0C8FB00F046FAFFF7B0FE61
:10715000FFF7F7FC0AF098FB00F0F8F900F054FA9A
:1071600000238DF807308748FFF7F4FC0346002B17
:10717000F9D1854B1B68002BF5D0824BB3F9003059
:10718000ADF804307F4BB3F900309BB219460020B4
:1071900000F00AF97D4B1A787D4BA3FB0213190905
:1071A0000B469B000B449B00D31ADBB2002B40F034
:1071B000BC800AF0EBFB0346002B01D000F0C6F9BF
:1071C00074480AF08FFB0346002B00F0AE80714B31
:1071D0001B78032B69D0032B00F39880012B02D07E
:1071E000022B31D092E06B4BD3ED057A9FED6A7A9A
:1071F00067EE877AFDEEE77A17EE903A1AB2674BA0
:107200001A80644BD3ED067A9FED637A67EE877A36
:10721000FDEEE77A17EE903A1AB2604B5A805D4B5A
:10722000D3ED077A9FED5C7A67EE877AFDEEE77A19
:1072300017EE903A1AB2594B9A809DF8073043F0F6
:1072400001038DF8073062E0524BD3ED057A9FEDD4
:10725000547A67EE877AFDEEE77A17EE903A1AB223
:107260004E4BDA804B4BD3ED067A9FED4D7A67EEAD
:10727000877AFDEEE77A17EE903A1AB2474B1A81F9
:10728000444BD3ED077A9FED467A67EE877AFDEEA1
:10729000E77A17EE903A1AB2404B5A819DF80730C0
:1072A00043F002038DF8073031E03A4BD3ED057A15
:1072B0009FED397A67EE877AFDEEE77A17EE903A1E
:1072C0001AB2364B9A81334BD3ED067A9FED327A60
:1072D00067EE877AFDEEE77A17EE903A1AB22F4BF7
:1072E000DA812C4BD3ED077A9FED2B7A67EE877A04
:1072F000FDEEE77A17EE903A1AB2284B1A829DF803
:10730000073043F004038DF8073000E000BF9DF81C
:107310000730072B09D1234B1B78002B05D1214BBC
:107320000A221A7000238DF807301E4B1B78002BA1
:107330001CD01C4B1B78013BDAB21A4B1A70194B4C
:107340001B78002B0DD0174B1A78164B1B78013B7E
:10735000124931F913309BB21946104600F024F857
:1073600004E045F2AA511F2000F01EF8074B1B78DD
:107370000133DAB2054B1A70034B1B68013B024A1A
:107380001360F0E6A8300020A02B0020BF300020C2
:10739000CDCCCCCCC030002000007A44AC300020F2
:1073A00000401C46BE30002000B585B003460A46AA
:1073B0008DF807301346ADF80430BDF804301B0BD0
:1073C0009BB2DBB203F00F03DBB28DF80C30BDF8DB
:1073D00004309B099BB2DBB203F03F03DBB28DF8B4
:1073E0000D30BDF80430DBB203F03F03DBB28DF8A3
:1073F0000E309DF807309B08DBB203F00703DBB2C9
:107400008DF808309DF807301B01DBB203F0300324
:10741000DBB28DF809309DF80730002B34D09DF891
:107420000820464B1B781343DBB2184607F046FD95
:107430000346002BF3D19DF80920414B1B781343E1
:10744000DAB29DF80C301343DBB2184607F036FD74
:107450000346002BEFD19DF80D20394B1B781343C9
:10746000DBB2184607F02AFD0346002BF3D19DF846
:107470000E20334B1B781343DBB2184607F01EFD7A
:107480000346002BF3D154E0BDF8043023F07F0312
:10749000002B09D1BDF80430DBB2184607F00EFD11
:1074A0000346002BF6D144E0BDF8043023F4FF631B
:1074B00023F00703002B18D19DF80D20214B1B78DA
:1074C0001343DBB2184607F0F9FC0346002BF3D157
:1074D0009DF80E201A4B1B781343DBB2184607F0B9
:1074E000EDFC0346002BF3D123E09DF80C20164B56
:1074F0001B781343DBB2184607F0E0FC0346002B71
:10750000F3D19DF80D200E4B1B781343DBB21846C8
:1075100007F0D4FC0346002BF3D19DF80E20084B56
:107520001B781343DBB2184607F0C8FC0346002B58
:10753000F3D100BF05B05DF804FB00BFE24E0300CD
:10754000E34E0300E44E0300E54E030000B583B0B4
:107550000023019322E0154A019B13441B788DF808
:1075600003309DF8033041F2883118460AF0DCF907
:10757000034683F00103DBB2002B0CD09DF80330EF
:107580001BB26FEAC3436FEAD3431BB29BB21946E7
:107590001E20FFF709FF019B01330193019B022B82
:1075A000D9D900BF00BF03B05DF804FBE84E03006B
:1075B00000B583B003460091ADF80630BDF8063043
:1075C000009A1946034807F09BF900BF03B05DF825
:1075D00004FB00BFEFBEADDE00B583B008F016FDC2
:1075E0000190019B0093009B002B05D0044A40F2C0
:1075F000E111009807F084F900BF03B05DF804FBC7
:10760000684E030000BF704700BF704700B583B0ED
:1076100003460A468DF8073013468DF806309DF86C
:1076200006209DF8073011461846FFF787FC00BF7B
:1076300003B05DF804FB00B583B001900198FFF73B
:1076400022FC00BF03B05DF804FB000000B583B06E
:1076500003468DF807300DF107030122044918464F
:10766000FFF782FC024B1B78184603B05DF804FB61
:10767000F030002084B001900B468DF803301346A3
:107680008DF8023000230393019B032B3CD89DF817
:107690000230012B0BD19DF80330012B04D1019B4B
:1076A000DBB20E33DBB200E000238DF802309DF830
:1076B0000330022B0FD0022B23DC002B16D0012B22
:1076C0001FD11449019A13465B0013440B449DF8E3
:1076D00002201A701AE00F49019A13465B00134406
:1076E0000B4401339DF802201A700FE00949019AFA
:1076F00013465B0013440B4402339DF802201A70BA
:1077000004E00723039301E007230393039B184638
:1077100004B07047F430002000B583B0012200218E
:107720000020FFF7A7FF0190019B002B04D0019BD5
:10773000072B01D0019B1CE0072202210120FFF74B
:1077400099FF0190019B002B04D0019B072B01D0D6
:10775000019B0EE0042202210020FFF78BFF019025
:10776000019B002B04D0019B072B01D0019B00E063
:107770000023184603B05DF804FB00B583B0012276
:1077800002210020FFF776FF0190019B002B04D01F
:10779000019B072B01D0019B1CE007220221012045
:1077A000FFF768FF0190019B002B04D0019B072B82
:1077B00001D0019B0EE00A2200210020FFF75AFFB2
:1077C0000190019B002B04D0019B072B01D0019B52
:1077D00000E00023184603B05DF804FB00B585B057
:1077E00001900091019B1B88102B02D0112B18D007
:1077F0002FE01A4B1B68002B0DD1FFF78DFF039074
:10780000039B002B07D0164B1B68002B03D0144B97
:107810001B6803989847114B1B6801330F4A13608C
:1078200017E00E4B1B68013B0C4A13600B4B1B68A7
:10783000002B0DD1FFF7A1FF0390039B002B07D076
:10784000074B1B68002B03D0054B1B680398984718
:1078500000BF00BF05B05DF804FB00BF043100208D
:1078600000310020BFF34F8F00BF064BDB6803F4ED
:10787000E0620449044B1343CB60BFF34F8F00BF5A
:1078800000BFFDE700ED00E00400FA0582B01D4BEB
:107890001B68B3F1FF3F0AD11B4B1B68DBB201939E
:1078A0001A4B1B681B0903F00F03009305E0154BEF
:1078B0001B680193164B1B680093019B062B1DD17F
:1078C000009B033B042B17D801A252F823F000BF02
:1078D000E5780200E9780200ED780200F178020014
:1078E000F578020001230AE0012308E0012306E005
:1078F000012304E0012302E0012300E000231846F5
:1079000002B0704730010010E00F00F0E80F00F007
:107910003401001082B0174B1B68DBB20193164B89
:107920001B681B0903F00F030093019B062B1DD15D
:10793000009B033B042B17D801A252F823F000BF91
:1079400055790200597902005D79020061790200DF
:107950006579020001230AE0002308E0002306E025
:10796000002304E0002302E0002300E00023184687
:1079700002B07047E00F00F0E80F00F082B01D4B3E
:107980001B68B3F1FF3F0AD11B4B1B68DBB20193AD
:107990001A4B1B681B0903F00F03009305E0154BFE
:1079A0001B680193164B1B680093019B062B1DD18E
:1079B000009B033B042B17D801A252F823F000BF11
:1079C000D5790200D9790200DD790200E17902005F
:1079D000E579020001230AE0012308E0012306E023
:1079E000012304E0012302E0012300E00023184604
:1079F00002B0704730010010E00F00F0E80F00F017
:107A00003401001082B0174B1B68DBB20193164B98
:107A10001B681B0903F00F030093019B062B1DD16C
:107A2000009B033B042B17D801A252F823F000BFA0
:107A3000457A0200497A02004D7A0200517A02002A
:107A4000557A020001230AE0002308E0002306E043
:107A5000002304E0002302E0002300E00023184696
:107A600002B07047E00F00F0E80F00F082B01D4B4D
:107A70001B68B3F1FF3F0AD11B4B1B68DBB20193BC
:107A80001A4B1B681B0903F00F03009305E0154B0D
:107A90001B680193164B1B680093019B062B1DD19D
:107AA000009B033B042B17D801A252F823F000BF20
:107AB000C57A0200C97A0200CD7A0200D17A0200AA
:107AC000D57A020001230AE0012308E0012306E041
:107AD000012304E0012302E0012300E00023184613
:107AE00002B0704730010010E00F00F0E80F00F026
:107AF0003401001082B0174B1B68DBB20193164BA8
:107B00001B681B0903F00F030093019B062B1DD17B
:107B1000009B033B042B17D801A252F823F000BFAF
:107B2000357B0200397B02003D7B0200417B020075
:107B3000457B020001230AE0002308E0002306E061
:107B4000002304E0002302E0002300E000231846A5
:107B500002B07047E00F00F0E80F00F082B0174B62
:107B60001B68DBB20193164B1B681B0903F00F0364
:107B70000093019B062B1DD1009B033B042B17D8C0
:107B800001A252F823F000BF9D7B0200A17B0200FE
:107B9000A57B0200A97B0200AD7B020001230AE065
:107BA000002308E0002306E0002304E0002302E0B5
:107BB000002300E00023184602B07047E00F00F0F9
:107BC000E80F00F082B01D4B1B68B3F1FF3F0AD1F4
:107BD0001B4B1B68DBB201931A4B1B681B0903F09C
:107BE0000F03009305E0154B1B680193164B1B68B0
:107BF0000093019B062B1DD1009B033B042B17D840
:107C000001A252F823F000BF1D7C0200217C02007B
:107C1000257C0200297C02002D7C020000230AE062
:107C2000002308E0012306E0012304E0012302E031
:107C3000012300E00023184602B070473001001015
:107C4000E00F00F0E80F00F03401001082B01D4B8F
:107C50001B68B3F1FF3F0AD11B4B1B68DBB20193DA
:107C60001A4B1B681B0903F00F03009305E0154B2B
:107C70001B680193164B1B680093019B062B1DD1BB
:107C8000009B033B042B17D801A252F823F000BF3E
:107C9000A57C0200A97C0200AD7C0200B17C020040
:107CA000B57C020001230AE0012308E0012306E07D
:107CB000012304E0012302E0012300E00023184631
:107CC00002B0704730010010E00F00F0E80F00F044
:107CD0003401001082B01D4B1B68B3F1FF3F0AD185
:107CE0001B4B1B68DBB201931A4B1B681B0903F08B
:107CF0000F03009305E0154B1B680193164B1B689F
:107D00000093019B062B1DD1009B033B042B17D82E
:107D100001A252F823F000BF2D7D0200317D020048
:107D2000357D0200397D02003D7D020001230AE01D
:107D3000012308E0012306E0012304E0012302E01F
:107D4000012300E00023184602B070473001001004
:107D5000E00F00F0E80F00F03401001082B0154B86
:107D60001B680193144B1B680093019B062B1DD1CC
:107D7000009B033B042B17D801A252F823F000BF4D
:107D8000957D0200997D02009D7D0200A17D02008B
:107D9000A57D020000230AE0002308E0002306E09E
:107DA000012304E0012302E0012300E00023184640
:107DB00002B07047300100103401001082B0154B42
:107DC0001B680193144B1B680093019B062B1DD16C
:107DD000009B033B042B17D801A252F823F000BFED
:107DE000F57D0200F97D0200FD7D0200017E0200AA
:107DF000057E020000230AE0002308E0002306E0DD
:107E0000002304E0012302E0012300E000231846E0
:107E100002B07047300100103401001008B5FFF7C0
:107E2000CDFF0346002B07D04FF010234FF08042C8
:107E3000D3F80832C2F8583500BF08BD00BF044B64
:107E4000D3F80034002BFAD000BF00BF704700BF4A
:107E500000E0014000B583B00190054A019BC2F8E3
:107E60000435FFF7EBFF00BF03B05DF804FB00BF74
:107E700000E00140024B034A1A6000BF704700BF98
:107E8000082B00200090D00308B5FFF7FFFC034645
:107E9000002B06D0964B1B681B0A964A03F01F0363
:107EA0001360FFF737FD0346002B02D0924B934A35
:107EB0001A60FFF763FD0346002B06D0904B1B684A
:107EC0005B0B904A03F007031360FFF79BFD03462B
:107ED000002B05D08C4BDB688B4A23F08073D3607A
:107EE000FFF7C4FD0346002B0ED04FF08043002265
:107EF000C3F80C214FF080430022C3F810214FF04B
:107F000080430022C3F83825FFF7F4FD0346002B19
:107F100002D07E4B03221A60FFF720FE0346002B9F
:107F20000BD07B4B05221A607A4B01221A607A4BE8
:107F300000221A60794B3F221A60FFF743FE034686
:107F4000002B76D04FF08053754AD3F80434C2F832
:107F500020354FF08053724AD3F80834C2F82435E4
:107F60004FF080536E4AD3F80C34C2F828354FF0E6
:107F700080536B4AD3F81034C2F82C354FF080533D
:107F8000674AD3F81434C2F830354FF08053644A4E
:107F9000D3F81834C2F834354FF08053604AD3F820
:107FA0001C34C2F840354FF080535D4AD3F820347A
:107FB000C2F844354FF08053594AD3F82434C2F8FC
:107FC00048354FF08053564AD3F82834C2F84C3520
:107FD0004FF08053524AD3F82C34C2F850354FF04A
:107FE00080534F4AD3F83034C2F854354FF08053A1
:107FF0004B4AD3F83434C2F860354FF08053484AC6
:10800000D3F83834C2F864354FF08053444AD3F87B
:108010003C34C2F868354FF08053414AD3F84034BD
:10802000C2F86C354FF080533D4AD3F84434C2F85F
:108030007035FFF70BFE0346002B05D0394B1B684C
:10804000394A03F04F031360FFF744FE0346002B49
:108050000DD04FF08043D3F8003403F00103002B20
:1080600005D04FF080436FF00102C3F80024FFF702
:1080700075FE0346002B05D02C4B1B682B4A43F49E
:10808000806313602A4BD3F88830294A43F4700385
:10809000C2F88830BFF34F8F00BFBFF36F8F00BFB0
:1080A000FFF7BCFE4FF01023D3F80032002B05DBA6
:1080B0004FF01023D3F80432002B15DA0120FFF71C
:1080C000C9FE4FF010231522C3F80022FFF7B6FEB9
:1080D0004FF010231522C3F80422FFF7AFFE002053
:1080E000FFF7B8FEFFF7BEFBFFF7C4FE00BF08BDF9
:1080F000240300104035014074C007400DF0ADBAB4
:10810000440200103C050040F0ED00E0A0050040F6
:108110001056004088560040185600401456004043
:1081200000C0004058020010E40E00403C17004020
:1081300000ED00E086B0039001921A460B46ADF8C0
:108140000A3013468DF80930039B002B02D0019BA7
:10815000002B01D100235CE00023ADF816300CE0C9
:10816000BDF81630039A13441B789AB2BDF8163046
:1081700013449BB20133ADF81630BDF816305A1CCB
:10818000BDF80A309A420FDA019B1B88BDF8162011
:108190009A42E5D3BDF816300133039A13441B7895
:1081A0009DF809209A42DBD1BDF81620BDF80A30AF
:1081B0009A4201D300232CE0BDF816300233ADF80B
:1081C0001430BDF81630039A13441B78002B08D0E6
:1081D000BDF81630039A13441B789BB2013B9BB247
:1081E00000E00023ADF81230BDF81230002B08D0AB
:1081F000BDF81420BDF812301A44BDF80A309A4276
:1082000001DD002305E0019BBDF814201A80BDF8B4
:108210001230184606B0704700B585B001900B4685
:10822000ADF8023013468DF801300023ADF80C3064
:108230009DF8013003AABDF802100198FFF77AFFFC
:108240000346ADF80E30BDF80E30002B01D10023EF
:1082500004E0BDF80C301A46019B1344184605B0E3
:108260005DF804FB72DF704700BF184673DF70478C
:1082700000BF184682B00190019B93F83034184635
:1082800002B0704784B00190002303930AE0019A82
:10829000039B13441B78002B01D0012306E0039BB2
:1082A00001330393039B052BF1D90023184604B037
:1082B0007047000082B003468DF807309DF8073004
:1082C0005A1C074B83FB02135910D317C91A0B46CC
:1082D0009B000B44D11ACBB2184602B0704700BFC6
:1082E0006766666682B001900091009BDB7B012B84
:1082F00004D1009B9A88019BA3F8242400BF02B0FC
:10830000704700B585B001900091019B002283F871
:108310002E24009B9A88019BB3F824349A4216D1EC
:10832000019B1B7983F00103DBB2002B0FD00121ED
:10833000019800F0AFF90390039B002B07D0019B3D
:108340009B6B002B03D0019B9B6B0398984700BF4E
:1083500005B05DF804FB00B585B001900091009B6D
:108360001B88262B1ED1009B1B7A012B03D0009B60
:108370001B7A022B17D1019B9B781846FFF79AFFB7
:1083800003461946019800F085F90390039B002BE2
:1083900009D0019B9B6B002B05D0019B9B6B039825
:1083A000984700E000BF05B05DF804FB00B585B05C
:1083B00001900B468DF80330019B03F227431846CA
:1083C000FFF760FF03468DF80F309DF80330013B47
:1083D000032B33D801A252F823F000BFED83020033
:1083E000118402002584020031840200019B9B79E4
:1083F000002B0DD0019B93F8243083F00103DBB2F6
:10840000002B05D09DF80F30002B01D0012316E082
:10841000019BDB79002B05D09DF80F30002B01D09C
:1084200002230CE0019B1B7A002B01D0032306E002
:10843000019B5B7A002B01D0042300E00023184647
:1084400005B05DF804FB00BF82B001900091019B74
:10845000012283F83120019B0022C3F82024019BD4
:1084600003F22642009B5A60009B00229A60009B08
:1084700002221A70009B80229A810023184602B0C3
:10848000704782B001900091019B022283F8312055
:10849000019B93F82430002B03D0009B07221A7015
:1084A00002E0009B03221A70019B1B699AB2009B99
:1084B0009A81019B0022C3F82024019B03F22642EB
:1084C000009B5A60019BDA68009B9A600023184663
:1084D00002B0704700B583B00190019B5B79002B1F
:1084E0000FD0019B93F82E3483F00103DBB2002BF5
:1084F00007D00198FFF7BEFE0346002B01D00123F1
:1085000000E0002303F00103DBB2184603B05DF87E
:1085100004FB00B585B001900B468DF80330019B3C
:10852000D3F81004019BB3F8143401221946FFF765
:1085300073FE0390039B002B03D0039B9DF8032045
:108540001A70019B03F15400019B03F58261019BAA
:108550003C331A46FFF786FE0346184605B05DF821
:1085600004FB00B585B001900091019B5A69009B06
:108570009A60019B9B699AB2009B9A81019B93F838
:108580002430002B04D0019B062283F83C2003E01A
:10859000019B012283F83C200198FFF79BFF0346D3
:1085A000002B13D0009B02221A7504210198FFF7BB
:1085B000B0FF0390039B0293029B002B01D0029B10
:1085C0000FE0019B052283F8312003E0019B032289
:1085D00083F83120019B03F58262019BC3F82024BC
:1085E0000023184605B05DF804FB00B585B0019086
:1085F0000091019BDA69009B9A60019B1B6A9AB209
:10860000009B9A81019B93F82430002B04D0019B9E
:10861000062283F83C2003E0019B012283F83C20E2
:108620000198FFF757FF0346002B13D0009B02224F
:108630001A7504210198FFF76CFF0390039B0293C6
:10864000029B002B01D0029B0FE0019B062283F8C6
:10865000312003E0019B042283F83120019B03F5C4
:108660008262019BC3F820240023184605B05DF800
:1086700004FB82B00190019B1B68012B03D0019B7E
:108680001B68022B01D1012300E00023184602B031
:108690007047000000B585B001900B468DF803309F
:1086A000019B1B7883F00103DBB2002B01D0082370
:1086B00009E1019B9DF803209A70019B03F2264378
:1086C0000722002118460CF0B3F9019B9B79002B7F
:1086D00003D0019B9B78012B0FD0019BDB79002BF2
:1086E00003D0019B9B78012B07D0019BDB79002BEA
:1086F00014D0019B9B78022B10D1019B5B6B002B4C
:1087000008D0019B012283F82D24019B5B6B08207C
:10871000984703E0019B002283F82D249DF8033045
:1087200019460198FFF742FE03461A46019B9A70CC
:10873000019B5B6B002B20D0019B9B78032B03D00C
:10874000019B9B78042B18D1019B5B79002B14D0E3
:10875000019B93F82E3483F00103DBB2002B0CD085
:10876000019B002283F83024019B012283F82F24EF
:10877000019B5B6B0720984703E0019B002283F875
:108780002F24019B3C331822002118460CF050F98D
:10879000019B012283F83C20019B2C331846FFF7F4
:1087A00068FF0346002B06D0019BDB6ADAB2019B0F
:1087B00083F8512003E0019B012283F85120019BA3
:1087C00093F82430002B12D0019B28331846FFF772
:1087D00050FF0346002B06D0019B9B6ADAB2019B37
:1087E00083F8522003E0019B012283F85220019B71
:1087F000002283F85020019B9B78042B31D801A2E2
:1088000052F823F0598802001988020029880200D2
:108810003988020049880200019B3C3319460198BF
:10882000FFF712FE03901DE0019B3C3319460198AF
:10883000FFF727FE039015E0019B3C331946019892
:10884000FFF78FFE03900DE0019B3C331946019822
:10885000FFF7CBFE039005E0019B002283F8312057
:1088600000E000BF019B9B78002B20D0019B03F10F
:108870005400019BD3F82014019B3C331A46FFF7A8
:10888000F1FC0390039B002B01D0039B1BE0019B99
:1088900093F85420019B93F8303019461046FFF7A7
:1088A000E5FC0390039B002B01D0039B0BE0019B95
:1088B0005B6B002B06D0019B5B6B019A92F8312019
:1088C000104698470023184605B05DF804FB00BF2A
:1088D00000B585B001900091009B0393019B1B881C
:1088E000262B10D0262B13DC102B02D0112B05D0F9
:1088F0000EE001990398FFF7F5FC0AE0019903984F
:10890000FFF7FFFC05E001990398FFF724FD00E065
:1089100000BF00BF05B05DF804FB000084B0034653
:10892000ADF806300023039316E00F49039A13466F
:108930009B0013449B000B441B88BDF806209A4201
:1089400007D1039A13469B0013449B00064A134425
:1089500006E0039B01330393039B002BE5D0002328
:10896000184604B0704700BF0831002082B0019063
:108970000B46ADF80230019BBDF802201A80019B26
:1089800000221A72019B054903F10A020B4603CB30
:108990001060516000BF02B0704700BF3831002046
:1089A00082B00190019B4FF6FF721A8000BF02B0A7
:1089B000704788B00390029111461A460B46ADF8F5
:1089C00006301346ADF80430039B9B881A46BDF869
:1089D000063013440793039B9B881946039B9B888F
:1089E000BDF80620934228BF13469BB2CB1A0693CC
:1089F000039BDB881A46BDF8043013440593039BA0
:108A0000DB881946039BDB88BDF80420934228BF0E
:108A100013469BB2CB1A0493029B5A88039B1B8874
:108A20009A4205D3029B5A88039B5B889A4201D9DC
:108A300000231CE0029B9B881A46069B934205D8A4
:108A4000029B9B881A46079B934201D200230EE0AB
:108A5000029BDB881A46049B934205D8029BDB8865
:108A60001A46059B934201D2002300E001231846D9
:108A700008B0704700B583B00190064B9B69002B8E
:108A800003D0044B9B690198984700BF03B05DF881
:108A900004FB00BF1C31002000B587B003460091E5
:108AA000ADF80630009B5B7A002B1AD1009B1B7A35
:108AB000002B03D1164B5B68059302E0144B9B68B7
:108AC0000593009B5B68BDF806200599184606F0E3
:108AD0003DF80490049B002B16D00498FFF7CAFFC2
:108AE00012E0009B00221A72094B5B69002B0BD02D
:108AF00001238DF80C30BDF80630ADF80E30044B74
:108B00005B6903AA1046984700BF07B05DF804FBF5
:108B10001C31002000B585B00190019BDB7B8DF8F6
:108B20000F30019B9B88ADF80C309DF80F30012B66
:108B30002CD14FF6FF70FFF7F1FE0290029B002B45
:108B400003D10420FFF796FF21E0BDF80C30194651
:108B50000298FFF70BFF029B03F10A00019B03F150
:108B600010014FF6FF7340F2F312FFF722FF0346A6
:108B70001A46029B5A72074BDB89002B07D1BDF8BE
:108B80000C3002991846FFF787FF00E000BF05B0E0
:108B90005DF804FB1C31002000B587B00190019BFB
:108BA0009B88ADF81630BDF816301846FFF7B6FEB4
:108BB0000490049B002B0ED0049B5B68184606F0C3
:108BC0001DF80390039B002B02D00398FFF752FF80
:108BD0000498FFF7E5FE00BF07B05DF804FB000056
:108BE00000B587B00190019B06330593059B1A8859
:108BF000194BDB899A422BD1059B5B89022B27D12C
:108C0000019B9B88ADF81230BDF812301846FFF773
:108C100085FE0390039B002B1AD0059B0C3318464E
:108C200000F0FAF90346002B06D0BDF81230039984
:108C30001846FFF731FF0BE0039B5B68184605F011
:108C4000DDFF0290029B002B02D00298FFF712FF7B
:108C500000BF07B05DF804FB1C31002000B585B0F3
:108C60000190019B9B88ADF80E30BDF80E30184680
:108C7000FFF754FE0290029B002B15D0029B03F1DC
:108C80000A00019B03F108014FF6FF7340F2F31253
:108C9000FFF78FFE03461A46029B5A72BDF80E304C
:108CA00002991846FFF7F8FE00BF05B05DF804FB17
:108CB00000B583B001900091019B1B88502B12D00E
:108CC000502B18DC122B12D0122B14DC102B02D0DC
:108CD000112B04D00FE00198FFF71CFF0CE0019866
:108CE000FFF75AFF08E00198FFF77AFF04E00198C8
:108CF000FFF7B4FF00E000BF00BF03B05DF804FB66
:108D000030B58FB00190009100230293009B002B9F
:108D10001AD000230D9314E06B460D99184606F007
:108D200095FA0346002B09D0029B5A1C02920D9A19
:108D300092B25B000EA90B4423F82C2C0D9B01333F
:108D40000D930D9B132BE7D9019B1D4602AC0FCC55
:108D50000FC50FCC0FC594E8070085E80700019800
:108D60000FB030BD00B583B00346ADF80630BDF896
:108D70000630132B01D900230CE0BDF8063019464C
:108D8000064806F032FABDF806301946044806F0E7
:108D90002CFA0123184603B05DF804FB483100208B
:108DA0004431002000B585B00346ADF806300023FD
:108DB00003930DE0039B9B00094A13440433BDF861
:108DC00006201146184606F028FA039B0133039348
:108DD000039B1D2BEED900BF00BF05B05DF804FB5F
:108DE0004031002000B583B00346ADF80630BDF831
:108DF00006301946034806F010FA00BF03B05DF8CC
:108E000004FB00BF4831002030B59BB0184B9B6875
:108E1000DB431893164B5A6818AB1146184606F0F8
:108E200074FA189A6B4611461846FFF769FF0DACA5
:108E30006D460FCD0FC40FCD0FC495E8070084E831
:108E40000700002319930BE0199B5B001AAA134437
:108E500033F8303C1846FFF7A5FF199B01331993EF
:108E60000D9B199A9A42EFD300BF00BF1BB030BDD3
:108E70004031002000B583B001900B46ADF80230C0
:108E800013468DF801309DF80130002B06D0BDF857
:108E900002301946019806F0A8F905E0BDF8023045
:108EA0001946019806F0B9F900BF03B05DF804FB5C
:108EB00000B585B001900091019B9B88ADF80E3004
:108EC000019B1B88103B0A2B00F2888001A252F8FC
:108ED00023F000BF018F02003D8F0200DD8F0200F2
:108EE000DD8F0200DD8F0200DD8F0200DD8F0200CA
:108EF000DD8F0200DD8F0200A78F0200498F020084
:108F0000FFF782FFBDF80E301846FFF72BFF034630
:108F100083F00103DBB2002B05D0324AF02104209C
:108F200005F0EEFC57E0019BDB7B022B53D1BDF833
:108F30000E3019462C4806F058F94CE0BDF80E30BA
:108F40001846FFF74FFF49E0019B1B7AC3F3031359
:108F5000DBB28DF80D309DF80D30032B8CBF012353
:108F60000023DAB2BDF80E3019462048FFF782FF21
:108F70009DF80D30022B8CBF01230023DAB2BDF81F
:108F80000E3019461A48FFF775FF9DF80D30012B7A
:108F90008CBF01230023DAB2BDF80E301946154804
:108FA000FFF768FF1AE0019B1B7A002B15D1019B8C
:108FB0005B7AC3F3C003DBB2002B14BF0123002391
:108FC0008DF80C309DF80C20BDF80E30194607487E
:108FD000FFF750FF01E000BF00E000BF00BF05B099
:108FE0005DF804FBEC4E03004C31002058310020AA
:108FF000543100205031002082B00190019B1B7839
:109000001AB2019B01331B781B021BB213431BB224
:109010009BB2184602B0704700B585B00190019828
:10902000FFF7EAFF0346ADF80E30BDF80E3003F04F
:109030000103002B14BF01230023DBB2184605B047
:109040005DF804FB90DF704700BF1846A5DF70474E
:1090500000BF1846B5DF704700BF184682B00190C8
:10906000019BF7221A80019B17225A80019B002244
:109070001A71019B00225A71019BFB229A71019B7C
:109080001B22DA7100BF02B07047000030B589B012
:1090900003460A46ADF806301346ADF80430BDF875
:1090A0000430ADF81430BDF80430ADF816300023AC
:1090B000ADF818300023ADF81A3003AB00221A6067
:1090C0009A8003AA05A9BDF806301846FFF7BAFF33
:1090D0000790079B002B39D01E4A1F4BD31ADB0881
:1090E0001B0443F00104BDF80650079807F000F890
:1090F00003462A461949204607F07BFDBDF80C308F
:10910000002B03D1BDF80E30002B0ED0114A124BAC
:10911000D31ADB081B0443F00100BDF80C301A46DB
:10912000BDF80E300E4907F064FDBDF81030002B7D
:109130000CD0084A084BD31ADB081B0443F0010388
:10914000BDF810200749184607F042FD079B184656
:1091500009B030BD7C4C03000C4C03006C4F030085
:10916000B84F0300F84F030000B585B0019000919F
:10917000009B9B88ADF80E30BDF80E30DB00019AE5
:10918000134406330293019B1A79029B9A71009B48
:10919000DB7B012B02D0022B05D009E0019B1A8852
:1091A000029B1A8004E0019B5A88029B1A8000BF30
:1091B000029B9A79029BDB799A4208D9029B9B79A0
:1091C0009AB2BDF80E3011461846FFF75FFF00BF98
:1091D00005B05DF804FB00B583B001900091009BE1
:1091E0009B88DB00019A134406331846FFF736FFCD
:1091F00000BF03B05DF804FB00B587B0019000919B
:10920000009B9B88ADF81630009B5B89ADF814304D
:10921000BDF81630DB00019A134406330493049B17
:109220001B88BDF81420934228BF13469AB2049BB2
:109230005A80049B5B88172B38BF17239AB2049B74
:109240005A80019B1B69002B15D0049B5B79002B76
:1092500011D040F67723ADF80830BDF81630ADF8E0
:109260000A30049B5B88ADF80C30019B1B6902AA95
:10927000114601989847049B00225A71049B0022D2
:109280001A7100BF07B05DF804FB000010B588B08C
:1092900001900091009B9B88ADF81A30009BDB8801
:1092A000ADF81830BDF81A30DB00019A13440633CC
:1092B0000593BDF81830172B38BF1723ADF81830B9
:1092C000059B1B88BDF81820934228BF13469AB20D
:1092D000059B5A80059B00221A71059B1A88BDF8D0
:1092E0001A3011461846FFF7B5FE0790079B002B72
:1092F0000FD0174A174BD31ADB081B0443F00104A5
:10930000079806F0F5FE03461A461349204607F073
:109310005FFC059B5B79002B16D1019B1B69002B21
:1093200013D040F67723ADF80C30BDF81A30ADF805
:109330000E30059B5B88ADF81030019B1B6903AABA
:1093400011460198984700E000BF08B010BD00BF6B
:109350007C4C03000C4C03005050030030B591B01E
:1093600001900091009B04AC1D1D0FCD0FC40FCDCB
:109370000FC495E8070084E80700BDF81030ADF889
:109380003E30BDF81420BDF83E30D1B2019ADB006A
:1093900013440A465A73019B1B69002B19D002AB78
:1093A00000221A609A804DF67A23ADF80830BDF895
:1093B0003E30ADF80A30BDF83E30019ADB00134470
:1093C0005B7B8DF80C30019B1B6902AA114601984A
:1093D000984700BF11B030BD00B587B00190009133
:1093E000009B04330593059B1B88DB00019A134403
:1093F00006330493059B9B888DF80F30049B9B7963
:109400009DF80F20934228BF13468DF80E30059B20
:109410001B889DF80E2092B211461846FFF736FEC3
:1094200000BF07B05DF804FB10B586B00190009155
:10943000009B0593019B9B88ADF81230BDF812305C
:10944000002B40F09880019B1B88552B48D0552B52
:1094500055DC242B32DC102B51DB103B142B4ED867
:1094600001A252F823F000BFC3940200CD94020081
:10947000FF940200FF940200FF940200FF94020098
:10948000FF940200FF940200FF940200FF94020088
:10949000FF940200FF940200FF940200FF94020078
:1094A000FF940200FF940200FF940200FF94020068
:1094B000FF940200F5940200EB9402003A2B0AD0CC
:1094C0001DE001990598FFF74FFE19E001990598F5
:1094D000FFF781FE14E001990598FFF78DFE0FE07C
:1094E00001990598FFF7D2FE0AE001990598FFF768
:1094F00035FF05E001990598FFF76EFF00E000BF1A
:10950000BDF81230059ADB0013449B7A002B33D050
:10951000BDF81230059ADB001344DA88BDF812302A
:1095200011461846FFF792FD0390039B002B0ED1C6
:10953000BDF81230059ADB00134400229A72BDF880
:109540001230059ADB0013440122DA7214E0039B07
:10955000112B11D0094A0A4BD31ADB081B0443F024
:109560000104039806F0C4FD03461A460549204647
:1095700007F02EFB00E000BF06B010BD7C4C0300DE
:109580000C4C030080500300B0DF704700BF18464A
:1095900066DF704700BF184600B585B00190019B9B
:1095A0001B7A002B18D0019B5B8800211846FFF71F
:1095B000EFFF0390039B002B03D1019B00221A7243
:1095C0000AE0039B112B03D1019B01221A7203E0D5
:1095D000019B5B680398984700BF05B05DF804FBEA
:1095E00000B583B001900091009B1B79012B0BD13A
:1095F000009B1A88019B5B889A4205D1019B01223E
:109600001A720198FFF7C8FF00BF03B05DF804FBB2
:1096100082B00190009100BF02B0704700B589B0E0
:1096200001900091009B1A88019B5B889A4236D179
:10963000009B02330793079B1B78022B31D1079BBA
:109640001B7A042B07D0079B1B7A062B03D0079BA2
:109650001B7A052B27D102AB00221A605A609A6050
:10966000DA6002238DF808304FF4C073ADF80C3087
:10967000079B1B7A052B02D10023ADF80C30009B11
:109680001B8802AA11461846FFF77EFF0690069B2C
:10969000002B09D0019B5B680698984704E000BF47
:1096A00002E000BF00E000BF09B05DF804FB00B5B8
:1096B00085B001900091009B002B40D0019B002BB6
:1096C0003FD0009B0393039B1B78DE2B3BD1019B78
:1096D0009A88039B5B889A4202D10398FFF75CFF4C
:1096E000019B1B88512B18D0512B2EDC112B1BD02A
:1096F000112B2ADC012B02D0022B07D025E0019B85
:10970000043319460398FFF76BFF21E0019B0433F4
:1097100019460398FFF77CFF1AE0019B04331946B2
:109720000398FFF77BFF13E0019B9A88039B5B88FC
:109730009A420CD1039B4FF6FF725A8007E000BF9C
:1097400006E000BF04E000BF02E000BF00E000BF91
:1097500005B05DF804FB00B585B001900091019B58
:109760005B7C83F00103DBB2002B2AD1009B063324
:109770000393039B1A88019B5B899A4224D1039B24
:109780005B89022B20D1019B1B68002B1BD0039B04
:109790000C331846FFF740FC0346002B03D0002390
:1097A0008DF8083002E001238DF80830009B9B887B
:1097B000ADF80A30019B1B6802AA11460198984730
:1097C00002E000BF00E000BF05B05DF804FB00B59B
:1097D00085B001900091009B002B0DD0019B002BC8
:1097E0000AD0009B0393019B1B88502B06D1019943
:1097F0000398FFF7B0FF02E000BF00E000BF05B034
:109800005DF804FB82B003468DF807309DF9073000
:10981000002B13DB9DF8073003F01F0209499DF967
:1098200007305B09012000FA02F2203341F82320BF
:10983000BFF34F8F00BFBFF36F8F00BF00BF02B0F9
:10984000704700BF00E100E0044BD3F80034002B68
:1098500014BF01230023DBB218467047000001400B
:1098600008B507F01FFF034683F00103DBB2002BAE
:1098700003D109497B20FDF79BFEFFF7E5FF034677
:1098800083F00103DBB2002B04D000F01FFD034B7B
:1098900000229A7000BF08BDC05B0300BC310020ED
:1098A00000B583B000230193184B1B78002B02D026
:1098B000852301931CE0154B00229A60134B002274
:1098C0005A60124B00221A61104B0022DA601048D5
:1098D00000F0C2FC019007F0E5FE034683F00103AF
:1098E000DBB2002B01D000F0DDFC084B01221A7026
:1098F000FFF7AAFF0346002B02D0044B01229A7007
:10990000019B184603B05DF804FB00BFBC3100208A
:10991000E999020084B00190019B1B680393039BAB
:10992000002B03D0039B1A68019B1A60039B184607
:1099300004B0704700B583B0164B1B78002B04D1E0
:10994000154940F21710FDF733FE124BDB68002B70
:1099500004D111494FF48C70FDF72AFE00238DF8D5
:1099600007300DF10703184605F03EFB094BDB6895
:10997000013B084AD360074BDB68002B01D1FFF79E
:109980006FFF9DF80730184605F044FB00BF03B099
:109990005DF804FBBC310020C05B030000B585B05E
:1099A00003468DF807309DF80730002B02D10C4B91
:1099B000039301E00B4B03930398FFF7ABFF029077
:1099C000029B002B06D0029B5B689DF80720104687
:1099D0009847F1E700BF00BF05B05DF804FB00BF8A
:1099E000C4310020CC31002000B583B003468DF88F
:1099F00007309DF80730002B05D10A4B01225A7021
:109A00000020FFF7CBFF9DF80730012B05D1054B58
:109A100001229A700120FFF7C1FF00BF03B05DF87B
:109A200004FB00BFBC31002000B583B00190009161
:109A3000019B002B05D1054B01225A700020FFF736
:109A4000ADFF00BF03B05DF804FB00BFBC310020D8
:109A500000B585B0034600918DF807309DF80730BA
:109A6000032B29D0032B35DC002B02D0012B04D093
:109A700030E00020FFF7C6FE2DE000238DF80F3008
:109A80000DF10F03184605F0AFFA154B1B7883F064
:109A90000103DBB2002B01D0FFF702FF104BDB68A4
:109AA00001330F4AD3600E4B01229A709DF80F309C
:109AB000184605F0AFFA0EE0094B1B78002B04D1D5
:109AC000084940F25220FDF773FD00F0EBFBFFF771
:109AD00031FF00E000BF00BF05B05DF804FB00BF30
:109AE000BC310020C05B030000B589B0019000913B
:109AF000009B0793019B1B788DF80830019B5B68E6
:109B00000393019B9B68DBB28DF81030019BDB68EF
:109B10000593019B1B69DBB28DF81830074A079B40
:109B200052F823300649079A51F8221002AA10462B
:109B3000984700BF09B05DF804FB00BFD03100209A
:109B4000DC31002000B58BB00390029101920093AC
:109B5000039B1B7809930F49099B019A41F8232025
:109B60000D49099B009A41F8232000230893039B89
:109B7000181D019B002B01D0084A00E00022099B20
:109B8000029901F041FE0890089B18460BB05DF861
:109B900004FB00BFD0310020DC310020E99A020034
:109BA00000B585B00190019B002B0AD0074B43F014
:109BB00001030393019B9B010293039B0298984727
:109BC00000E000BF05B05DF804FB00BF705C03005F
:109BD00000B583B00190019B1B68184600F069F83E
:109BE0000346002B04D105494FF4F670FDF7E0FC65
:109BF0004FF0A043184603B05DF804FB345C03004B
:109C000000B585B0019001AB1846FFF7E1FF039066
:109C1000019B012202FA03F31946039800F035F87C
:109C200000BF05B05DF804FB00B585B0019001AB45
:109C30001846FFF7CDFF0390019B012202FA03F3C0
:109C40001946039800F02BF800BF05B05DF804FB3F
:109C500000B585B0019001AB1846FFF7B9FF03903E
:109C6000039800F00AF80246019B22FA03F303F07E
:109C70000103184605B05DF804FB82B00190019B1A
:109C8000D3F81035184602B0704782B001900091A9
:109C9000019B009AC3F8082500BF02B0704782B04C
:109CA00001900091019B009AC3F80C2500BF02B0FF
:109CB000704784B00190019B5B09029300230393DA
:109CC000029B002B03D14FF0FF33039300BF019B96
:109CD00003F01F030193039A019B22FA03F303F09D
:109CE0000103002B14BF01230023DBB2184604B08C
:109CF000704700B585B001904FF0A042019B1B68F2
:109D000003F5E07340F20C6142F823104FF0A042DB
:109D1000019B5B6803F5E07340F20C6142F823108D
:109D2000019B1B681846FFF76BFF019B5B68184699
:109D3000FFF766FF4FF0A042019B1B6803F5E0733D
:109D400040F20D6142F823104FF0A042019B5B6886
:109D500003F5E07340F20D6142F823100420FFF791
:109D60001FFF002303931EE0019B5B681846FFF76B
:109D70006FFF0346002B03D0039B002B17D124E079
:109D8000019B1B681846FFF74FFF0420FFF708FFF1
:109D9000019B1B681846FFF733FF0420FFF700FF05
:109DA000039B01330393039B082BDDDD00E000BF21
:109DB000019B5B681846FFF737FF0420FFF7F0FEB2
:109DC000019B5B681846FFF71BFF05B05DF804FBBD
:109DD00000B589B001900091009B0793019B1B780F
:109DE0008DF80C30019B1B798DF81030019B5B794D
:109DF0008DF81130019B9B68DBB28DF81230019B0E
:109E0000DB68DBB28DF81330019B1B690593019B66
:109E10005B690693074A079B52F823300649079A65
:109E200051F8221003AA1046984700BF09B05DF808
:109E300004FB00BFE8310020F031002000B587B0FE
:109E40000390029101920093039B1B7805931249A2
:109E5000059B019A41F823201049059B009A41F87F
:109E60002320029B5B7B002B02D00298FFF741FF6F
:109E700000230493039B181D019B002B01D0084A6B
:109E800000E00022059B029902F01EF90490049B59
:109E9000184607B05DF804FBE8310020F0310020DF
:109EA000D19D020000B589B001900091009B0793FD
:109EB000019B1B788DF80C30019B5B680493019B20
:109EC0009B68DBB28DF81430019BDB680693074A70
:109ED000079B52F823300649079A51F8221003AA2B
:109EE0001046984700BF09B05DF804FBF831002028
:109EF000FC31002000B589B001900091009B0793D0
:109F0000019B1B788DF80C30019B5B680493019BCF
:109F10009B68DBB28DF81430019BDB680693074A1F
:109F2000079B52F823300649079A51F8221003AADA
:109F30001046984700BF09B05DF804FBF8310020D7
:109F4000FC31002030B58FB0039002910192039B49
:109F50001B780C9326490C9B019A41F82320029B05
:109F60001A6924490C9B41F82320029B5B7F194608
:109F7000214A0C9B13440A461A70029B04AC1D46EE
:109F80000FCD0FC495E80F0084E80F000C9B0893D9
:109F900000230D93039B1B781A46174B9B5C002BE9
:109FA0000DD0039B181D019B002B01D0134A00E02C
:109FB000002204AB194604F097F80D9014E0039BBF
:109FC0001B781A460C4B9B5C002B0DD1039B03F1B5
:109FD0000C00019B002B01D0094A00E0002204ABD9
:109FE000194603F0C9F80D900D9B18460FB030BD0F
:109FF000F8310020FC31002000320020A59E020034
:10A00000F59E020082B003468DF807309DF90730B7
:10A01000002B0CDB9DF8073003F01F0205499DF96A
:10A0200007305B09012000FA02F241F8232000BF4B
:10A0300002B0704700E100E082B0034600918DF865
:10A0400007309DF90730002B0ADB009BDAB20C4980
:10A050009DF907305201D2B20B4483F800230BE084
:10A06000009BDAB207499DF8073003F00F03043B69
:10A070005201D2B20B441A7600BF02B0704700BF43
:10A0800000E100E000ED00E082B00190019B1B0BBD
:10A090005BB2184602B0704700B583B003460A466B
:10A0A0008DF8073013468DF806309DF80630012BE9
:10A0B00003D99DF80630032B0BD99DF80630042BED
:10A0C00003D99DF80630072B03D908496B20FDF70B
:10A0D0006FFA9DF806209DF9073011461846FFF7E4
:10A0E000ABFF00BF03B05DF804FB00BF785C03006A
:10A0F00000B583B003468DF807309DF90730184648
:10A10000FFF780FF00BF03B05DF804FB82B0034699
:10A110008DF807300F4A9DF90730002B00DA1F3306
:10A120005B115BB252F823209DF90730594203F0CE
:10A130001F0301F01F0158BF4B425BB222FA03F329
:10A1400003F00103002B14BF01230023DBB21846E8
:10A1500002B0704700E100E082B001904FF0804211
:10A16000019BC2F8083300BF02B0704782B00346BB
:10A170008DF807309DF8073003F1804301221A6003
:10A1800000BF02B0704784B00346ADF80630BDF89A
:10A19000063003F1804300221A60BDF8063003F157
:10A1A00080431B680393039B00BF04B0704782B0D9
:10A1B0000346ADF80630BDF8063003F180431B6856
:10A1C000002B14BF01230023DBB2184602B07047F6
:10A1D00082B001904FF08042019BC2F8183500BF59
:10A1E00002B070474FF08043D3F818341B0C03F0D3
:10A1F0000103002B14BF01230023DBB21846704774
:10A2000000B583B006238DF807304FF08040FFF78C
:10A210003BFF03461846FFF779FF034683F001032F
:10A22000DBB2002B13D04FF08040FFF72DFF034629
:10A230001A469DF8073019461046FFF72DFF4FF0DC
:10A240008040FFF721FF03461846FFF751FF00BF8C
:10A2500003B05DF804FB000000B585B00190019BE0
:10A26000002B03D10D49A420FDF7A2F9002303938D
:10A270000B4B1B79002B02D08523039308E0084A7F
:10A28000019B1360064B01221A71054B00225A7183
:10A29000039B184605B05DF804FB00BFB05C0300EB
:10A2A0000432002008B5074B1B79002B03D1064967
:10A2B000BD20FDF77DF9FFF7A3FF0120FFF788FF21
:10A2C00000BF08BD04320020B05C030008B50D4B90
:10A2D0001B79002B03D10C49F720FDF769F9022007
:10A2E000FFF73AFF4FF48270FFF74DFF0C20FFF7A6
:10A2F0003DFF00BFFFF776FF0346002BFAD100BFFA
:10A3000000BF08BD04320020B05C030008B54FF464
:10A310008070FFF74CFF0346002B14D04FF4807081
:10A32000FFF731FF0120FFF717FF114B5B7983F037
:10A330000103DBB2002B06D00D4B01225A710C4BEE
:10A340001B68002098474FF48270FFF730FF0346E8
:10A35000002B0AD04FF48270FFF715FF0220FFF7A1
:10A36000FBFE034B1B680120984700BF08BD00BFE0
:10A370000432002082B003468DF807309DF9073083
:10A38000002B0CDB9DF8073003F01F0205499DF9F7
:10A3900007305B09012000FA02F241F8232000BFD8
:10A3A00002B0704700E100E082B0034600918DF8F2
:10A3B00007309DF90730002B0ADB009BDAB20C490D
:10A3C0009DF907305201D2B20B4483F800230BE011
:10A3D000009BDAB207499DF8073003F00F03043BF6
:10A3E0005201D2B20B441A7600BF02B0704700BFD0
:10A3F00000E100E000ED00E082B00190019B1B0B4A
:10A400005BB2184602B0704700B583B003460A46F7
:10A410008DF8073013468DF806309DF80630012B75
:10A4200003D99DF80630032B0BD99DF80630042B79
:10A4300003D99DF80630072B03D908496B20FDF797
:10A44000B7F89DF806209DF9073011461846FFF72A
:10A45000ABFF00BF03B05DF804FB00BF205D03004D
:10A4600000B583B003468DF807309DF907301846D4
:10A47000FFF780FF00BF03B05DF804FB00B583B0B9
:10A480000346ADF80630BDF80630184600F026F851
:10A4900003461B68012B0CBF01230023DBB21846C7
:10A4A00003B05DF804FB00B585B00346ADF8063097
:10A4B000BDF80630184600F011F803461A4600238E
:10A4C0001360BDF80630184600F008F803461B6814
:10A4D0000393039B00BF05B05DF804FB82B0034605
:10A4E000ADF80630BDF8063003F1804303F5C043F4
:10A4F000184602B07047000082B00190034A019BE9
:10A50000C2F8043300BF02B0704700BF00600040D3
:10A5100082B00190034BD3F80423019B13401846EB
:10A5200002B070470060004082B00190084A019B71
:10A5300003F5A27352F82330054943F00102019B51
:10A5400003F5A27341F8232000BF02B0704700BF9B
:10A550000060004084B00390029113468DF80730EC
:10A56000144A039B03F5A27352F82330114923F4D4
:10A57000473323F44073039A02F5A27241F8223064
:10A580000C4A039B03F5A27352F82320029B1B0283
:10A5900003F4F8519DF807301B0403F440330B43D8
:10A5A00004491A43039B03F5A27341F8232000BF1B
:10A5B00004B070470060004082B00190054A019BE2
:10A5C00003F5A27352F823301B0A03F01F03184649
:10A5D00002B070470060004082B00190064A019BC3
:10A5E00003F5A27352F823301B0C03F00303DBB214
:10A5F000184602B0704700BF0060004000B583B04D
:10A600000190019B1B68184600F015F90346002BCA
:10A6100004D105494FF4F670FCF7CAFF4FF0A04390
:10A62000184603B05DF804FB505D030000B585B02B
:10A630000190084611461A4603468DF803300B4632
:10A640008DF8023013468DF8013001AB1846FFF744
:10A65000D5FF03909DF803209DF802305B001A435C
:10A660009DF801309B001A439DF818301B0242EA06
:10A6700003019DF81C301B04019A1943039B02F54A
:10A68000E07243F8221000BF05B05DF804FB00B58E
:10A6900085B003900B468DF80B309DF80B300022EF
:10A6A000019200220092002200210398FFF7BEFFD2
:10A6B00000BF05B05DF804FB00B585B0019001ABAB
:10A6C0001846FFF79BFF0390019A039B02F5E07287
:10A6D00053F8223023F002030293019A039B02F500
:10A6E000E072029943F8221000BF05B05DF804FB48
:10A6F00000B585B001900B468DF8033001AB1846CC
:10A70000FFF77CFF0390019A039B02F5E07253F878
:10A710002230019A23F44031039B02F5E07243F8A2
:10A720002210019A039B02F5E07253F822309DF843
:10A73000032012041146019A1943039B02F5E072AB
:10A7400043F8221000BF05B05DF804FB00B585B0EA
:10A75000019001AB1846FFF751FF0390039800F0FA
:10A7600020F80246019B22FA03F303F00103184686
:10A7700005B05DF804FB00B585B0019001AB18464B
:10A78000FFF73CFF0390019A039B02F5E07253F838
:10A7900022301B0C03F00303DBB2184605B05DF852
:10A7A00004FB82B00190019BD3F81035184602B02B
:10A7B000704786B00390029101924FF0A04304933A
:10A7C000039B059319E0059B9B0006AA134453F8CD
:10A7D000083CD3F82025019B1A60059B9B0006AA24
:10A7E000134453F8083C019A1268C3F82025019BD2
:10A7F00004330193059B01330593039A029B134491
:10A80000059A9A42DFD300BF00BF06B0704700B57B
:10A8100085B0019001AB1846FFF7F0FE0390019B55
:10A82000012202FA03F31A46039BC3F8202500BF56
:10A8300005B05DF804FB84B00190019B5B090293B5
:10A8400000230393029B002B03D14FF0FF330393AC
:10A8500000BF019B03F01F030193039A019B22FA9F
:10A8600003F303F00103002B14BF01230023DBB229
:10A87000184604B0704784B001900091009B039388
:10A88000019BDB080293019B03F007030193012264
:10A89000019B02FA03F30399029A0A4412781340C7
:10A8A000184604B0704784B001900091009B039358
:10A8B000019BDB080293019B03F007030193039ABA
:10A8C000029B13441B785AB20121019B01FA03F346
:10A8D0005BB2134359B2039A029B1344CAB21A7073
:10A8E00000BF04B07047000082B001900C4A019B89
:10A8F0001344303393F90030002B09DB084A019BE5
:10A900001344303393F90030072B01DC012300E0BE
:10A91000002303F00103DBB2184602B0704700BF0A
:10A920000C32002082B00190064A019B1344303360
:10A9300093F90030072BCCBF01230023DBB218466C
:10A9400002B070470C32002082B00190064A019B91
:10A950001344303393F90030DB43DBB2DB09DBB265
:10A96000184602B0704700BF0C32002084B003903C
:10A97000029101928DF80330029B59B20E4A039B5B
:10A98000134430330A461A700B49029B019A41F86E
:10A9900023209DF8033083F00103DBB2002B08D0A5
:10A9A000029B083B039A51B2034A13440A4683F8B8
:10A9B000502000BF04B070470C32002082B00190DC
:10A9C000044A019B13443033FF221A7000BF02B0C7
:10A9D000704700BF0C32002000B583B001900449DD
:10A9E0000198FFF760FF00BF03B05DF804FB00BFF4
:10A9F0006032002082B00190044A019B134430333E
:10AA000093F90030184602B0704700BF0C320020A6
:10AA100082B00190034A019B52F82330184602B0DD
:10AA2000704700BF0C32002084B00190074A019BA0
:10AA30001344503393F900308DF80F309DF80F30E8
:10AA400023F0C003184604B0704700BF0C3200204A
:10AA500084B00190074A019B1344503393F90030AE
:10AA60008DF80F309DF80F309B09DBB2184604B00B
:10AA7000704700BF0C32002000B589B003900291EE
:10AA800013468DF80730FF238DF81F309DF80730EF
:10AA9000002B01D0002300E0082305939DF8073028
:10AAA000002B01D0082300E00C230493059B0693A0
:10AAB00014E00F4A069B52F82330B3F1FF3F0AD14E
:10AAC0009DF80730029A06990398FFF74FFF069BFF
:10AAD0008DF81F3006E0069B01330693069A049B0F
:10AAE0009A42E6D39DF91F30184609B05DF804FB81
:10AAF0000C32002082B003468DF807309DF80730F5
:10AB0000094A4FF0FF3142F823109DF80730072B18
:10AB100007D99DF80730083B034A1344FF2283F806
:10AB2000502000BF02B070470C32002000B583B047
:10AB30002D4B93F85830002B03D008230093009B33
:10AB40004EE000238DF8073011E09DF807301846DD
:10AB5000FFF771FE0346002B04D09DF8073018461E
:10AB6000FFF72CFF9DF8073001338DF807309DF873
:10AB700007301F2BE9D900238DF8073009E09DF835
:10AB800007301846FFF7B6FF9DF8073001338DF800
:10AB900007309DF807300B2BF1D904220021134810
:10ABA00009F046FF1248FFF727FC03460621184626
:10ABB000FFF72AFC0E48FFF71FFC03461846FFF775
:10ABC0004FFC4FF4BE70FFF76EFC4FF00040FFF7F4
:10ABD00093FC054B012283F8582000230093009B2F
:10ABE000184603B05DF804FB0C32002060320020F0
:10ABF0000060004000B587B0039002910192039875
:10AC0000FFF719FE0346002B04D136494FF40C70B0
:10AC1000FCF7CEFC002305930398FFF795FE03464F
:10AC2000002B02D00823059357E0029B9B78C3F3C7
:10AC30004003DBB21A4601990398FFF71DFF034654
:10AC40008DF813309DF91330B3F1FF3F43D0029BD1
:10AC50009B78C3F38003DBB283F00103DBB2002BEC
:10AC600013D0029B9B7803F00103DBB2002B03D0CF
:10AC70000398FFF721FD05E0029B5B7819460398D6
:10AC8000FFF705FD0398FFF7A7FE029B9B7803F0F3
:10AC90000203DBB2002B08D09DF91300029B1B7846
:10ACA0001A460399FFF756FC17E09DF91330083B4D
:10ACB0000D4A134493F95010029B1B789B015AB222
:10ACC0009DF91330083B0A4351B2074A13440A4620
:10ACD00083F8502001E004230593059B184607B034
:10ACE0005DF804FB885D03000C32002000B589B0DC
:10ACF00001900B468DF803300198FFF79CFD034649
:10AD0000002B04D13A494FF41870FCF751FC01981C
:10AD1000FFF71AFE0346002B04D1354940F26120AB
:10AD2000FCF746FC0198FFF7FDFD0346002B2AD0F7
:10AD30000198FFF75FFE0346083B1846FFF788FEC1
:10AD400003468DF80F309DF80F30032B0BD101987F
:10AD5000FFF7FCFC0346002B01D0032300E0022395
:10AD60008DF81F3008E09DF80F30012B01D1022330
:10AD700000E003238DF81F309DF81F30194601981D
:10AD8000FFF7B6FC30E00198FFF7AEFD0346002B5D
:10AD90002AD00198FFF72EFE03460693069B9BB22E
:10ADA00040339BB29B00ADF81630069B1846FFF768
:10ADB000BBFBBDF816301846FFF775FB9DF8033056
:10ADC000002B11D00198FFF715FE03461846FFF738
:10ADD0001FFE0490049B002B06D00122069B02FA62
:10ADE00003F31846FFF788FB00BF09B05DF804FBCA
:10ADF000885D030000B585B00190019A0121002013
:10AE0000FFF7D7FC002303930BE0039B9B00019A01
:10AE100013441B68002B01D0012306E0039B013380
:10AE20000393039B002BF0D00023184605B05DF878
:10AE300004FB000000B587B00190002305935BE0A0
:10AE4000344A059B1344503393F90030B3F1FF3F6C
:10AE50004ED00598FFF7E8FD049001990498FFF79C
:10AE60000AFD0346002B44D00598FFF7F1FD034689
:10AE70008DF80F300498FFF77EFC03468DF80E30F6
:10AE80009DF80E30022B01D1032300E002238DF840
:10AE90000D309DF80D3019460498FFF729FC0498F1
:10AEA000FFF7B5FC0498FFF7A5FD03461846FFF72A
:10AEB000AFFD0290029B002B1BD09DF80F30032B9F
:10AEC0000FD09DF80E30022B03D19DF80F30012BCF
:10AED00007D09DF80E30032B0BD19DF80F30022BBD
:10AEE00007D19DF80F20029B11460498984700E077
:10AEF00000BF059B01330593059B032BA0D9019847
:10AF0000FFF778FF0346002B97D100BF00BF07B0C3
:10AF10005DF804FB0C32002000B589B000230693D5
:10AF2000002300934FF48073ADF812300123079390
:10AF30000023059321E0BDF812301846FFF79EFA72
:10AF40000346002B0ED00798FFF7E2FA0346002BCA
:10AF500008D0BDF812301846FFF7A5FA069A079BED
:10AF600013430693079B5B000793BDF8123004332D
:10AF7000ADF81230059B01330593059B072BDAD9F9
:10AF80004FF4BE70FFF77AFA0346002B0DD04FF452
:10AF9000BE70FFF788FA069B43F0004306936B46AA
:10AFA0001A4601210020FFF704FC069BDBB2002BB0
:10AFB00029D0012307930023059321E0079A069BDC
:10AFC0001340002B16D00598FFF7F6FA039005986A
:10AFD000FFF702FB03468DF80B300598FFF718FDCD
:10AFE0000190019B002B05D09DF80B20019B114681
:10AFF00003989847079B5B000793059B01330593D4
:10B00000059B072BDAD9069B002B03DA6B46184603
:10B01000FFF710FF00BF09B05DF804FB08B5064B51
:10B020001B68002B03D105495120FCF7C1FA024BE4
:10B030001B68984700BF08BD68320020FC5D030014
:10B0400082B00190019B044A934201D1034B00E07E
:10B050000023184602B070470020004068320020EC
:10B0600000B587B001900091019B002B03D11C49D2
:10B070007720FCF79DFA0198FFF7E2FF0590059B0A
:10B08000002B25D000238DF8133000238DF80B30D2
:10B090000DF10B03184603F0A7FF059B1B79002B4E
:10B0A00003D001238DF8133005E0059B009A1A6048
:10B0B000059B01221A719DF80B30184603F0AAFF78
:10B0C0009DF81330002B03D011230393039B02E060
:10B0D00000230393039B184607B05DF804FB00BFF1
:10B0E000FC5D030000B585B00190019B002B03D1EE
:10B0F0000A499B20FCF75CFA0198FFF7A1FF039037
:10B10000039B002B05D0039B00221A60039B0022A7
:10B110001A7100BF05B05DF804FB00BFFC5D0300C1
:10B1200082B003468DF807309DF8073003F1804365
:10B1300003F5E04301221A6000BF02B0704782B0FD
:10B140000346ADF80630BDF8063003F1804303F541
:10B15000E0431B68002B14BF01230023DBB2184619
:10B1600002B0704784B00346ADF80630BDF8063033
:10B1700003F1804303F5E04300221A60BDF8063076
:10B1800003F1804303F5E0431B680393039B00BF77
:10B1900004B0704782B001900091054A019BC2F84B
:10B1A0002C36034A009BC2F8303600BF02B070470D
:10B1B0000070004000B58FB04FF48270FFF7BFFF02
:10B1C0000346002B46D04FF48270FFF7CBFF904B25
:10B1D00093F82E3083F00103DBB2002B04D18C4BAB
:10B1E00093F82F30002B35D000238DF81C30884B7E
:10B1F0005B680893864B1B899BB2ADF82430844B67
:10B20000DB68002B03D1824B00221A7419E0804BBB
:10B210001A8B7F4B5A837E4BDB687D4A53607C4B95
:10B220001A8B7B4B1A817A4B0022DA60784B93F8A9
:10B230002E3083F00103DBB2002B02D00020FFF799
:10B240006FFF734B1B6807AA10469847704B00228C
:10B2500083F82F206E4B93F82E30002B62D04FF4E2
:10B260008070FFF76CFF0346002B5BD04FF48070BB
:10B27000FFF778FF664B5A8B654B93F82D309BB2E6
:10B280009A421CD9624B5A8B614B93F82D309BB27A
:10B29000D31A9AB25E4B5A835D4B5A685C4B1B893A
:10B2A0009BB219465A4B5B8BCB1A5B001344584A2E
:10B2B00092F82D2011461846FFF76CFF2BE0544BF7
:10B2C0005A8B534B93F82D309BB29A4214D1504B6A
:10B2D000DB68002B10D04E4B012283F82F204C4B03
:10B2E00000225A834A4BDB68494A92F82D201146C6
:10B2F0001846FFF74FFF0EE0454B5A8B444B93F82F
:10B300002D309BB29A4206D1414B012283F82F2067
:10B310003F4B00225A834FF48270FFF723FF042033
:10B32000FFF7FEFE4FF48870FFF709FF0346002B7E
:10B330000ED04FF48870FFF715FF354B00221A74BA
:10B3400002238DF81030324B1B6804AA1046984730
:10B350004FF48A70FFF7F3FE0346002B07D04FF43B
:10B360008A70FFF7FFFE2A4B00221A744CE0284B2C
:10B370005B690D9345E00D9B0A930A9B002B01D15D
:10B38000202303E00A9BB3FA83F3DBB20C934FF064
:10B3900000420C9B22FA03F3DB430D9A13400D93FA
:10B3A0000C9B9BB246339BB29B00ADF82E30BDF890
:10B3B0002E301846FFF7C3FE0346002B21D0BDF800
:10B3C0002E301846FFF7CEFE01238DF80430BDF86D
:10B3D0002E30A3F58C73DB08DBB28DF80830BDF896
:10B3E0002E30A3F58C7303F00403002B0CBF012354
:10B3F0000023DBB28DF80930054B1B6801AA10460B
:10B4000098470D9B002BB6D100BF0FB05DF804FB31
:10B410007032002082B003468DF807309DF9073066
:10B42000002B0CDB9DF8073003F01F0205499DF946
:10B4300007305B09012000FA02F241F8232000BF27
:10B4400002B0704700E100E082B0034600918DF841
:10B4500007309DF90730002B0ADB009BDAB20C495C
:10B460009DF907305201D2B20B4483F800230BE060
:10B47000009BDAB207499DF8073003F00F03043B45
:10B480005201D2B20B441A7600BF02B0704700BF1F
:10B4900000E100E000ED00E082B00190019B1B0B99
:10B4A0005BB2184602B0704700B583B003460A4647
:10B4B0008DF8073013468DF806309DF80630012BC5
:10B4C00003D99DF80630032B0BD99DF80630042BC9
:10B4D00003D99DF80630072B03D908496B20FCF7E8
:10B4E00067F89DF806209DF9073011461846FFF7CA
:10B4F000ABFF00BF03B05DF804FB00BF485F030073
:10B5000000B583B003468DF807309DF90730184623
:10B51000FFF780FF00BF03B05DF804FB84B001902B
:10B520000B46ADF80230BDF80230019A13440022F8
:10B530001A60BDF80230019A13441B680393039B01
:10B5400000BF04B0704782B001900B46ADF80230E6
:10B55000BDF80230019A13441B68002B14BF01236D
:10B560000023DBB2184602B0704782B00190009110
:10B57000019B009AC3F8042300BF02B0704782B059
:10B5800001900091019B009AC3F8082300BF02B00C
:10B59000704782B00190019B0122C3F8002500BFD3
:10B5A00002B0704784B00390029101920093039B14
:10B5B000029AC3F80825039B019AC3F80C25039B44
:10B5C000009AC3F8102500BF04B0704782B0019004
:10B5D0000B468DF803309DF80320019BC3F81C2512
:10B5E00000BF02B0704782B00190019BD3F81835BC
:10B5F000DBB2184602B0704782B001900091009A09
:10B60000019BC3F8242500BF02B0704784B00190AD
:10B610000B468DF8033013468DF802309DF802304A
:10B62000002B14BF01230023DBB203939DF80330EA
:10B63000032B10D0032B13DC012B02D0022B05D0DF
:10B640000EE0039B43F0020303930AE0039B43F0E5
:10B650000403039305E0039B43F00603039300E018
:10B6600000BF019B039AC3F8542500BF04B0704784
:10B6700000B583B00190019B1B68184600F0A3F849
:10B680000346002B04D105494FF4F670FBF790FFF9
:10B690004FF0A043184603B05DF804FB785F030049
:10B6A00000B585B00190084611461A4603468DF84C
:10B6B00003300B468DF8023013468DF8013001AB94
:10B6C0001846FFF7D5FF03909DF803209DF8023040
:10B6D0005B001A439DF801309B001A439DF8183017
:10B6E0001B0242EA03019DF81C301B04019A194316
:10B6F000039B02F5E07243F8221000BF05B05DF82D
:10B7000004FB00B585B00390002301930023009350
:10B710000023012201210398FFF7C2FF00BF05B0FB
:10B720005DF804FB00B585B003900B468DF80B3037
:10B730009DF80B300022019200220092002200218D
:10B740000398FFF7ADFF00BF05B05DF804FB00B53F
:10B7500085B0019001AB1846FFF78AFF0390019B6B
:10B76000012202FA03F31946039800F018F800BF0B
:10B7700005B05DF804FB00B585B0019001AB18463B
:10B78000FFF776FF0390019B012202FA03F31946AB
:10B79000039800F00EF800BF05B05DF804FB82B01E
:10B7A00001900091019B009AC3F8082500BF02B0E8
:10B7B000704782B001900091019B009AC3F80C255C
:10B7C00000BF02B0704784B00190019B5B090293F7
:10B7D00000230393029B002B03D14FF0FF3303930D
:10B7E00000BF019B03F01F030193039A019B22FA00
:10B7F00003F303F00103002B14BF01230023DBB28A
:10B80000184604B07047000000B58DB00590049153
:10B8100003920293049B002B03D170495320FBF742
:10B82000C7FE059B1B791A462C2302FB03F36C4AC7
:10B8300013440A930A9B1B7F002B03D00823079312
:10B84000079BC7E0059B1A68059B1B791946654B4A
:10B8500053F8213019461046FFF702FC0346002B2F
:10B8600003D011230793079BB4E00A9B039A1A6045
:10B870000A9B029A5A60049B1B7B012B05D8049BF0
:10B880001B781846FFF777FF04E0049B1B781846E7
:10B89000FFF75DFF049B1B781846002301930023EC
:10B8A0000093002300220121FFF7FAFE049B5B783E
:10B8B000FF2B09D0049B5B780B930B98FFF75BFF82
:10B8C0000B98FFF71EFF02E04FF0FF330B93049B32
:10B8D0009B78FF2B07D0049B9B7809930121099843
:10B8E000FFF720FF02E04FF0FF330993059B1B7920
:10B8F0001846049B99783A4A2C2300FB03F313441F
:10B900001F330A461A70049BDB78FF2B09D0049B77
:10B91000DB781846FFF71BFF049BDB781846FFF720
:10B92000F0FE059B1B791846049BD9782C4A2C23E2
:10B9300000FB03F313441E330A461A70059B1B6871
:10B940000893049B1B781946099B0B9A0898FFF7EC
:10B9500029FE049B9B6819460898FFF74DFE049B3F
:10B96000197B049B5B7B1A460898FFF74FFE059BEB
:10B970001B791846049B5979194A2C2300FB03F3C1
:10B98000134420330A461A700898FFF702FE0A9BF8
:10B990001B68002B15D0059B1B681846FFF77CFD24
:10B9A00003461A46049B1B7919461046FFF77CFD97
:10B9B000059B1B681846FFF76FFD03461846FFF707
:10B9C0009FFD0A9B00225A770A9B01221A770023C7
:10B9D0000793079B18460DB05DF804FBAC5F0300AE
:10B9E000A03200201C60030000B583B00190019BD1
:10B9F0009B7FFF2B04D0019B9B7F1846FFF7A7FE80
:10BA0000019B00225A77019B00221A72019B1B683E
:10BA1000019A02F10800019A52681146984700BF46
:10BA200003B05DF804FB00B585B00190009101986A
:10BA3000FFF7D9FD03468DF80B30009B5A6A009B37
:10BA40009B699A4208D2009B5A69009B5B6A134427
:10BA50009DF80B20D2B21A70009B5B6A5A1C009BA7
:10BA60005A62009B5B6A01330393009B93F8283072
:10BA7000002B0FD0009B1B69039A9A4202D2009BB5
:10BA8000039A1A61009B9B69039A9A4202D2009B17
:10BA9000039A9A61009B1B69039A9A420AD2009BFF
:10BAA000DA68039B13441B7819460198FFF78EFD53
:10BAB00001231FE0009B9B69039A9A4208D2009BD6
:10BAC00093F8203019460198FFF780FD012311E01B
:10BAD000009B5A6A009B1B699A4205D3009B5A6AD5
