:020000022000DC
:106000000000012019620200016202000362020026
:10601000056202000762020009620200000000003F
:106020000000000000000000000000000B62020001
:106030000D620200000000000F6202001162020007
:1060400031CA02001362020039D7020041EF020098
:10605000D5E202001362020035D6020095D8020094
:106060001362020013620200136202001362020054
:106070001362020013620200136202001362020044
:1060800013620200DD1D03001362020013620200AE
:106090001362020013620200354A03001362020019
:1060A0001362020013620200136202001362020014
:1060B00013620200136202000000000000000000F2
:1060C000136202001362020013620200E9E202009E
:1060D000136202001362020013620200000000005B
:1060E00000000000000000000000000000000000B0
:1060F00000000000000000000000000000000000A0
:10610000000000000000000000000000000000008F
:10611000000000000000000000000000000000007F
:10612000000000000000000000000000000000006F
:10613000000000000000000000000000000000005F
:10614000000000000000000000000000000000004F
:10615000000000000000000000000000000000003F
:10616000000000000000000000000000000000002F
:10617000000000000000000000000000000000001F
:10618000000000000000000000000000000000000F
:1061900000000000000000000000000000000000FF
:1061A00000000000000000000000000000000000EF
:1061B00000000000000000000000000000000000DF
:1061C00000000000000000000000000000000000CF
:1061D00000000000000000000000000000000000BF
:1061E00000000000000000000000000000000000AF
:1061F000000000000000000000000000000000009F
:10620000FEE7FEE7FEE7FEE7FEE7FEE7FEE7FEE766
:10621000FEE7FEE700F002B8FFF7FCBF0F484FF0C3
:106220000701884385460E4880470E48016841F4BF
:1062300070010160BFF34F8FBFF36F8F00F01AB88A
:1062400009480A490A4A884207D0521A05D00378F9
:1062500001300B700131013AF9D170470000012083
:106260002D94020088ED00E0FCAF0300D82A002046
:10627000D82A0020354936480A1A02D0072291430D
:106280008D46344934480A1A06D00722914381F3D7
:106290000988022282F3148830483149314A00F0DB
:1062A00044F831483149324A00F03FF83148324928
:1062B000324A00F03AF832483249334A00F035F8B1
:1062C00032483349334A00F030F833483349344ACE
:1062D00000F02BF833483449344A00F026F83448AB
:1062E0003449002200F02CF833483449002200F0F1
:1062F00027F833483349091A082902DB00220260D3
:106300004160314A90471F481F49884205D00268C2
:10631000043003B4904703BCF7E700208646EC4600
:1063200000200021294A9047FEE7884207D0521AF0
:1063300005D0037801300B700131013AF9D1704773
:10634000884202D002700130FAE770470000012055
:1063500000E000200000012000000120A0CB03008D
:10636000D82A00209C2C0020D0630200D0630200B9
:10637000A0AE0300A0CB0300D82A0020D82A00201A
:10638000FCAF0300FCAF0300FCAF0300FCAF030055
:10639000FCAF0300FCAF0300FCAF0300FCAF030045
:1063A000A0CB030064CD03009C2C00209C2C00207B
:1063B0009C2C0020344E0020344E0020384E00200B
:1063C000384E0020386E00204162020059730200EE
:1063D00090B003900291019200230C9300238DF85A
:1063E0002F3000230A9300230993002308930023EE
:1063F0000F9300230E9311E0424B1A680E9B1A4430
:10640000414B1B68591C404801601278D2B210A958
:106410000B4403F8302C0E9B01330E930E9B082B7C
:10642000EADD03230D9329E004AA0D9B13441B7896
:10643000DBB21A040D9B013310A90B4413F8303C56
:10644000DBB21B0213430D9A023210A90A4412F860
:10645000302CD2B213430893089B1B020893089B6D
:106460000A930A9B1B120A930F9B5A1C0F92019AC4
:106470000A9942F823100D9B03330D930D9B082BB3
:10648000D2DD9DF81230DBB21A469DF81130DBB236
:106490001B021A439DF81030DBB21B0413430C930C
:1064A0000C9BDB1303F01F030C930C9B8DF82F3018
:1064B0009DF81330DBB21A049DF81430DBB21B02D6
:1064C00013439DF81520D2B213430993099B1B0275
:1064D0000993099A019B5A629DF82F3003F01F031C
:1064E000002B04D0019B012283F8202003E0019BB4
:1064F000002283F82020044B00221A600023184653
:1065000010B07047A42C0020A82C002000B587B044
:10651000039002910192029800F0F0F9642002F0D9
:106520002EFA019800F00CFA019800F019FA01987F
:1065300000F026FA039800F033FA039800F03BFAD3
:10654000322002F01CFA039800F04BFA4FF49670D8
:1065500002F015FA039A3E49002000F08BF93C4BFB
:106560001B78732B01D002236DE0039A03210120D5
:1065700000F0D2F80A2002F002FA039AA0210220C9
:1065800000F0CAF80A2002F0FAF9039A1021032059
:1065900000F0C2F80A2002F0F2F9039A4021042028
:1065A00000F0BAF80A2002F0EAF9039A6021052007
:1065B00000F0B2F80A2002F0E2F9039A2C2106203A
:1065C00000F0AAF80A2002F0DAF9039A0021072065
:1065D00000F0A2F80A2002F0D2F9039AF221092071
:1065E00000F09AF80A2002F0CAF9039A03210A205F
:1065F00000F092F80A2002F0C2F9039800F0E6F9E0
:106600000A2002F0BCF9019800F0AAF9114A04AB83
:106610001268114619800233120C1A7003238DF888
:10662000113004AB0C4A1946142006F06DFE05909B
:10663000059B002B02D005980AF09AFA012114203C
:1066400006F0D2FE0023184607B05DF804FB00BF39
:106650009C2C0020FCAF0300F969020000B585B056
:106660000190019BDBB20021184602F073F9002370
:1066700003930CE0FF2002F08DF9034619460B4A04
:10668000039B13440A461A70039B01330393039B35
:10669000082BEFDD019BDBB20121184602F05AF90D
:1066A000024B184605B05DF804FB00BFAC2C00207F
:1066B00000B583B0034600918DF80730009BDBB234
:1066C0000021184602F046F9022002F058F9009B1A
:1066D000DBB20121184602F03DF9022002F04FF929
:1066E000009BDBB20021184602F034F9022002F0D0
:1066F00046F99DF80730184602F04CF9022002F0E6
:106700003EF9009BDBB20121184602F023F900BFDD
:1067100003B05DF804FB000000B585B003460092AD
:106720008DF807300B468DF806309DF80730013B99
:106730000A2B63D801A252F823F000BF6967020058
:106740007767020091670200FD670200FD670200A3
:10675000FD670200AB670200B9670200C76702006D
:10676000D5670200EF6702009DF8063023F078033A
:106770008DF8063043E09DF8063023F004038DF8D1
:1067800006309DF8063063F07F038DF8063036E062
:106790009DF8063023F002038DF806309DF8063090
:1067A00043F010038DF8063029E09DF8063003F021
:1067B0003F038DF8063022E09DF8063003F05F03BA
:1067C0008DF806301BE09DF8063043F002038DF88B
:1067D000063014E09DF8063023F078038DF806307B
:1067E0009DF8063043F001038DF8063007E09DF870
:1067F000063003F00F038DF8063000E000BF9DF86F
:10680000073043F040038DF80F30009BDBB20021CE
:10681000184602F09FF8022002F0B1F8009BDBB2AC
:106820000121184602F096F8022002F0A8F8009B19
:10683000DBB20021184602F08DF8022002F09FF82A
:106840009DF80F30184602F0A5F8002002F0A2F8DB
:106850009DF80630184602F09DF8022002F08FF8ED
:10686000009BDBB20121184602F074F800BF05B0AE
:106870005DF804FB00B587B00346029101928DF8E4
:106880000F309DF80F3043F020038DF81730019B37
:10689000DBB20021184602F05DF8022002F06FF82A
:1068A000019BDBB20121184602F054F8022002F0ED
:1068B00066F8019BDBB20021184602F04BF802207B
:1068C00002F05DF89DF81730184602F063F80020DA
:1068D00002F060F8002002F05DF803461A46029BC1
:1068E0001A70022002F04BF8019BDBB2012118461E
:1068F00002F030F800BF07B05DF804FB00B583B0CC
:106900000190019BDBB20121184602F023F86420BC
:1069100002F035F8019BDBB20021184602F01AF8AC
:10692000642002F02CF8019BDBB20121184602F032
:1069300011F8642002F023F800BF03B05DF804FBF7
:1069400000B583B00190019BDBB20021184602F034
:1069500001F8142002F013F800BF03B05DF804FB47
:1069600000B583B00190019BDBB20121184601F014
:10697000F1FF142002F003F800BF03B05DF804FB40
:1069800000B583B00190019BDBB20021184601F0F5
:10699000E1FF642001F0F3FF00BF03B05DF804FBEA
:1069A00000B583B0019001990820FFF781FE00BF78
:1069B00003B05DF804FB00B583B0019001990A2093
:1069C000FFF776FE00BF03B05DF804FB00B583B0AF
:1069D000019001991020FFF76BFE00BF03B05DF836
:1069E00004FB00B583B0019001991120FFF760FE10
:1069F00000BF03B05DF804FB00B583B001900B4607
:106A00008DF803301F20FFF729FE0346054A136067
:106A1000054B1B680133044A136000BF03B05DF8E7
:106A200004FB00BFA42C0020A02C002000B585B0E2
:106A300001900091009B002B15D0019B002B12D0E0
:106A4000009B0393019B1B88102B02D0502B05D079
:106A50000AE00199039800F00AF805E0019903980B
:106A600000F00BF800E000BF05B05DF804FB82B059
:106A70000190009100BF02B0704782B00190009178
:106A800000BF02B0704700B585B001900091009B37
:106A9000002B15D0019B002B12D0009B0393019B70
:106AA0001B88102B02D0502B05D00AE001990398C7
:106AB00000F00AF805E00199039800F00BF800E0F7
:106AC00000BF05B05DF804FB82B00190009100BFEB
:106AD00002B0704782B00190009100BF02B07047D1
:106AE00000B585B001900091009B002B15D0019B53
:106AF000002B12D0009B0393019B1B88102B02D00C
:106B0000502B05D00AE00199039800F00AF805E03F
:106B10000199039800F00BF800E000BF05B05DF8A4
:106B200004FB82B00190009100BF02B0704782B0B8
:106B30000190009100BF02B0704708B51E221321DA
:106B40001F20FFF7E3FC0346184608BD00B58FB0D1
:106B5000019003AB1A461F211420FFF739FC0346AE
:106B60008DF837309DF83730002B1BD1049B1B125A
:106B70001AB20F4B1A800C9B1B121AB20D4B1A80C3
:106B80009DF82C3083F00103DBB2002B05D10A4BBA
:106B900000221A80094B00221A80054BB3F900200D
:106BA000019B1A809DF8373018460FB05DF804FB42
:106BB000B62C0020BA2C0020B82C0020BC2C0020C1
:106BC00000B585B00190019B002B0AD0074B43F024
:106BD00001030393019B9B010293039B0298984737
:106BE00000E000BF05B05DF804FB00BF10B003007B
:106BF00000B583B00190019B0433184607F0A2FD55
:106C000000BF03B05DF804FB00B589B005900392A6
:106C10001A460B468DF8133013468DF812300023B8
:106C20000793059B181D9DF812209DF813109DF8E1
:106C3000283000931346039A08F0A2F80790079BA8
:106C4000184609B05DF804FB00B587B003900192C7
:106C50001A460B468DF80B3013468DF80A30002388
:106C60000593039B181D9DF80A309DF80B10019A9F
:106C700008F0AEF80590059B184607B05DF804FBD8
:106C800000B58FB003900291009313468DF8073042
:106C900000230D93029B05939DF807300693009BFC
:106CA00007939DF840300893039B043305A9002205
:106CB000184607F0A9FA0D900D9B18460FB05DF825
:106CC00004FB82B001904FF0A043184602B0704719
:106CD00000B585B00190084611461A4603468DF866
:106CE00003300B468DF8023013468DF8013001ABAE
:106CF0001846FFF7E6FF03909DF803209DF8023049
:106D00005B001A439DF801309B001A439DF8183030
:106D10001B0242EA03019DF81C301B04019A19432F
:106D2000039B02F5E07243F8221000BF05B05DF846
:106D300004FB00B585B0039000230193002300936A
:106D40000023012201210398FFF7C2FF00BF05B015
:106D50005DF804FB00B585B003900B468DF80B3051
:106D60009DF80B30002201920022009200220021A7
:106D70000398FFF7ADFF00BF05B05DF804FB00B559
:106D800085B0019001AB1846FFF79BFF0390019B74
:106D9000012202FA03F31946039800F02AF800BF13
:106DA00005B05DF804FB00B585B0019001AB184655
:106DB000FFF787FF0390019B012202FA03F31946B4
:106DC000039800F020F800BF05B05DF804FB00B5A3
:106DD00083B001900091009B002B03D10198FFF735
:106DE000E2FF02E00198FFF7CAFF00BF03B05DF8C1
:106DF00004FB82B001900091019B009AC3F8082522
:106E000000BF02B0704782B001900091019B009AD0
:106E1000C3F80C2500BF02B0704700B583B00190E5
:106E2000019B002B0AD04FF47A70FFF7C9FE019B3B
:106E3000013B0193019B002BF5D100E000BF03B0A3
:106E40005DF804FB08B500F079F800F0F9F800F0FF
:106E50009FF800F0C9F800BF08BD000000B587B07A
:106E60000346049103928DF81730039BDBB29DF823
:106E7000171000220092049A0648FFF7C5FE034649
:106E8000002B01D0002300E00123184607B05DF875
:106E900004FB00BFD82A002000B585B0034602914C
:106EA00001928DF80F30019BDBB29DF80F10029A12
:106EB0000648FFF7C9FE0346002B01D0002300E07F
:106EC0000123184605B05DF804FB00BFD82A002056
:106ED00000B583B003460A468DF8073013468DF897
:106EE00006309DF807309DF8062011461846FFF73A
:106EF0006EFF00BF03B05DF804FB000000B587B073
:106F0000059004911346ADF80E30BDF80E30DAB29C
:106F1000BDF80E30DBB20093049B05990648FFF7DD
:106F2000AFFE0346002B01D0022300E000231846E9
:106F300007B05DF804FB00BFE82A002000B587B069
:106F40006B4600221A605A609A60DA601B23009335
:106F50001A2301934FF0CD63029302238DF80C3076
:106F6000694600230022094805F034FB0590059B83
:106F70000493049B002B02D0049809F0F9FD034808
:106F8000FFF736FE00BF07B05DF804FBD82A0020EB
:106F900010B586B0124B6C460FCB84E80F00192356
:106FA0008DF801301C238DF802301D238DF8003040
:106FB00001238DF80C304FF0805302936946002373
:106FC0000022084805F0BAF90590059B0493049B3C
:106FD000002B02D0049809F0CBFD00BF06B010BD15
:106FE00000B00300E82A002010B586B0124B6C46B2
:106FF0000FCB84E80F0005238DF801300C238DF8AA
:10700000023002238DF8003000238DF80C304FF051
:1070100080530293694600230022084805F08EF948
:107020000590059B0493049B002B02D0049809F063
:107030009FFD00BF06B010BD00B00300F82A00207D
:1070400000B583B006F0FCF80190019B0093009B13
:10705000002B02D0009809F08BFD03211420FFF7CC
:1070600079FE0420FFF765FE1F20FFF762FE132064
:10707000FFF75FFE1E20FFF75CFE1720FFF759FEAB
:1070800001210420FFF724FF01211F20FFF720FF2B
:1070900001211320FFF71CFF00211E20FFF718FF1E
:1070A00001211720FFF714FF00BF03B05DF804FBB8
:1070B00000B585B00190019B002B0AD0074B43F02F
:1070C00001030393019B9B010293039B0298984742
:1070D00000E000BF05B05DF804FB00BFF0B00300A6
:1070E00082B001904FF0A043184602B0704700B53F
:1070F00085B00190084611461A4603468DF80330C4
:107100000B468DF8023013468DF8013001AB18465E
:10711000FFF7E6FF03909DF803209DF802305B0027
:107120001A439DF801309B001A439DF818301B024A
:1071300042EA03019DF81C301B04019A1943039B8A
:1071400002F5E07243F8221000BF05B05DF804FBC1
:1071500000B585B003900023019300230093002322
:10716000012201210398FFF7C2FF00BF05B05DF8BF
:1071700004FB00B585B003900B468DF80B309DF8ED
:107180000B3000220192002200920022002103987D
:10719000FFF7ADFF00BF05B05DF804FB00B585B09B
:1071A000019001AB1846FFF79BFF0390019B012262
:1071B00002FA03F31946039800F043F800BF05B044
:1071C0005DF804FB00B585B0019001AB1846FFF7F0
:1071D00087FF0390039BD3F804350293029BDA43A5
:1071E000019B012101FA03F31A40039BC3F8082510
:1071F000019B01229A40029B1A40039BC3F80C2575
:1072000000BF05B05DF804FB00B585B0019001AB8F
:107210001846FFF765FF0390039800F00AF802464E
:10722000019B22FA03F303F00103184605B05DF851
:1072300004FB82B00190019BD3F81035184602B0D0
:10724000704782B001900091019B009AC3F80C2511
:1072500000BF02B0704772DF704700BF184673DF8F
:10726000704700BF184676DF704700BF18467ADFC8
:10727000704700BF18467CDF704700BF18467FDFAD
:10728000704700BF18468FDF704700BF1846B1DF58
:10729000704700BF184600B583B00190019B002BDA
:1072A0000AD04FF47A70FFF703FF019B013B019373
:1072B000019B002BF5D100E000BF03B05DF804FB9B
:1072C00008B5012001F092FC1120FFF741FF0321D6
:1072D0001820FFF74EFF1120FFF760FF00BF08BD29
:1072E00008B51820FFF790FF0346002B0BD1642050
:1072F000FFF7D1FF1820FFF787FF0346002B02D1CD
:107300001120FFF75FFF00BF08BD00000C4B4FF0DE
:1073100000021A600B4B4FF000021A600A4B4FF04C
:1073200000021A60094B4FF000021A60084B4FF040
:1073300000021A60074B4FF000021A6000BF70474E
:107340005C3200204C3200204832002050320020B5
:10735000583200205432002010B586B000F0AEFB49
:10736000FFF7AEFF00F0F7FF01F0F2FA00F0BEFB0E
:1073700001F0C0FA01F000F801F048F801F00AF954
:1073800001F05AF801F05EF9924A934BD31ADB08E8
:107390001B0443F00303914918460CF05FFB90482F
:1073A00012F064FD01F080F90023059307E08D4A97
:1073B000059B002122F81310059B01330593059BC3
:1073C000082BF4DD884B4FF085421A60FFF778FFF9
:1073D00010F096FD00F08AFBFFF734FDFFF7ADFBE0
:1073E0000DF066FD00F02EFB00238DF813307F4971
:1073F0007F4812F0D5FB03467E4A1360FFF770FF0B
:107400007D48FFF7A3FB0346002BF7D17A4BB3F976
:1074100000300193774B1B68019A7849184612F0A7
:10742000D5FB754BB3F9003007EE903AF8EEE77AEA
:10743000CDED007A724B1B785A1CD1B2704A117094
:10744000704A9B001344009A1A606D4B1B78062B00
:1074500002D96B4B00221A7000238DF8123013E012
:107460009DF81230674A9B00134493ED007A664BF7
:10747000D3ED007A77EE277A634BC3ED007A9DF85F
:10748000123001338DF812309DF81230072BE7D9F6
:107490005D4B93ED007A5D4B1B78F2EE006AC7EE10
:1074A000267A5B4A9B001344C3ED007A564BD3ED1A
:1074B000007AB2EE007AC7EE876A544B1B785A1CEA
:1074C000D1B2524A11701A4616EE904A4FF000009F
:1074D000504BD10019440C60D2001344043318609F
:1074E0004B4B03932BE0039BD3ED007AF5EEC07A70
:1074F000F1EE10FA05D5039BD3ED007AF1EE677A31
:1075000002E0039BD3ED007A434B93ED007A77EED4
:10751000877A414BC3ED007A039B93ED007A039B7E
:10752000D3ED007A27EE277A3C4BD3ED007A77EE45
:10753000277A3A4BC3ED007A039B04330393039BF2
:10754000D3ED007AF5EE407AF1EE10FACBD1324B62
:1075500093ED007ADFED326AC7EE267A314BC3ED48
:10756000007A2E4B93ED007ADFED2F6AC7EE267A74
:107570002E4BC3ED007A294BD3ED007A9FED287A8C
:10758000C7EE876A16EE900A11F018FB02460B460A
:1075900043EC102B11F070FF53EC102B10461946E2
:1075A00011F026FB0346224A1360FFF7AFFE174B8C
:1075B0001B78402B40F08B80144B1A781D4B1A70AF
:1075C0001C4B1B781946134800F08DFC00230293D6
:1075D00035E000BF74AF030034AF030030B00300E8
:1075E00048B00300043200208835002060B003005A
:1075F00064B00300A03500200032002098B00300E2
:1076000080320020603200205C3200208433002071
:1076100084320020883300204C3200205032002079
:10762000000080424832002000007C42543200209A
:10763000583200209C350020029B013302938A4B74
:107640001B781A46029B9342F6D3874B1B781A4647
:10765000864BD3ED007AB0EE670A1146844800F0FD
:107660003AFDF0EE407A834BC3ED007A7E4B1B78F7
:107670001A467E4BD3ED007AB0EE670A11467C487D
:1076800000F07CFDF0EE407A7B4BC3ED007A764B48
:107690001B7807EE903AF8EE677A744B93ED007A18
:1076A000F0EE470AB0EE670A714800F0FFFDF0EE19
:1076B000407A724BC3ED007A6B4B1B7819466C48CD
:1076C00000F095FCF0EE407A6D4BC3ED007A6D4B07
:1076D0001B783F2B02D96B4B00221A706A4B1A7829
:1076E0006A4BA3FB021319090B469B000B449B003A
:1076F000D31ADBB2002B40F0AD800DF05BFC0346EB
:10770000002B01D000F09EF961480DF0FFFB03460D
:10771000002B00F09F805E4B1B78032B69D0032B5E
:1077200000F39A80012B02D0022B31D094E0584B09
:10773000D3ED057A9FED577A67EE877AFDEEE77A0B
:1077400017EE903A1AB2544B1A80514BD3ED067A89
:107750009FED507A67EE877AFDEEE77A17EE903A62
:107760001AB24D4B5A804A4BD3ED077A9FED497AB6
:1077700067EE877AFDEEE77A17EE903A1AB2464B3B
:107780009A809DF8133043F001038DF8133064E0C4
:107790003F4BD3ED057A9FED417A67EE877AFDEE98
:1077A000E77A17EE903A1AB23B4BDA80384BD3EDBA
:1077B000067A9FED3A7A67EE877AFDEEE77A17EE62
:1077C000903A1AB2344B1A81314BD3ED077A9FEDC0
:1077D000337A67EE877AFDEEE77A17EE903A1AB2BF
:1077E0002D4B5A819DF8133043F002038DF813306E
:1077F00033E0274BD3ED057A9FED267A67EE877A43
:10780000FDEEE77A17EE903A1AB2234B9A81204B9D
:10781000D3ED067A9FED1F7A67EE877AFDEEE77A61
:1078200017EE903A1AB21C4BDA81194BD3ED077A56
:107830009FED187A67EE877AFDEEE77A17EE903AB9
:107840001AB2154B1A829DF8133043F004038DF8D9
:10785000133002E000BF00E000BF0B4B1B78013388
:10786000DAB2094B1A70C9E59C3500208835002032
:10787000883300208C35002090350020943500207E
:10788000983500208433002016320020CDCCCCCC9B
:107890001832002000007A440432002000401C46C8
:1078A00000B585B003460A468DF807301346ADF89B
:1078B0000430BDF804301B0B9BB2DBB203F00F03A6
:1078C000DBB28DF80C30BDF804309B099BB2DBB203
:1078D00003F03F03DBB28DF80D30BDF80430DBB2AE
:1078E00003F03F03DBB28DF80E309DF807309B08A4
:1078F000DBB203F00703DBB28DF808309DF80730E8
:107900001B01DBB203F03003DBB28DF809309DF8C8
:107910000730002B34D09DF80820464B1B781343CA
:10792000DBB2184609F05EFE0346002BF3D19DF84A
:107930000920414B1B781343DAB29DF80C301343F6
:10794000DBB2184609F04EFE0346002BEFD19DF83E
:107950000D20394B1B781343DBB2184609F042FE69
:107960000346002BF3D19DF80E20334B1B781343B5
:10797000DBB2184609F036FE0346002BF3D154E083
:10798000BDF8043023F07F03002B09D1BDF804308B
:10799000DBB2184609F026FE0346002BF6D144E080
:1079A000BDF8043023F4FF6323F00703002B18D144
:1079B0009DF80D20214B1B781343DBB2184609F0CC
:1079C00011FE0346002BF3D19DF80E201A4B1B78B5
:1079D0001343DBB2184609F005FE0346002BF3D132
:1079E00023E09DF80C20164B1B781343DBB218469E
:1079F00009F0F8FD0346002BF3D19DF80D200E4B46
:107A00001B781343DBB2184609F0ECFD0346002B4C
:107A1000F3D19DF80E20084B1B781343DBB21846B8
:107A200009F0E0FD0346002BF3D100BF05B05DF87F
:107A300004FB00BFF6B00300F7B00300F8B003008A
:107A4000F9B0030000B583B00023019322E0154A8A
:107A5000019B13441B788DF803309DF8033041F2ED
:107A6000883118460DF074FA034683F00103DBB247
:107A7000002B0CD09DF803301BB26FEAC3436FEAB2
:107A8000D3431BB29BB219461E20FFF709FF019B8F
:107A900001330193019B022BD9D900BF00BF03B072
:107AA0005DF804FBFCB0030000B583B001900198C1
:107AB00009F05EF800BF03B05DF804FB00B583B0C9
:107AC0004FF4804108480BF0EBFC0190019B0093C0
:107AD000009B002B02D0009809F04AF80BF072FCD2
:107AE00000BF03B05DF804FB9D13030000B583B035
:107AF0000BF014F90190019B0093009B002B02D026
:107B0000009809F035F800BF03B05DF804FB84B0BD
:107B100001900023039305E0039B01330393019B32
:107B20005B080193019B002BF6D1039B013B184698
:107B300004B0704786B00390029101920023059330
:107B40001EE0059BDB00039A1A44059B1B0102996A
:107B50000B441168526819605A60019B5A08059BD2
:107B60001344DB00039A1A44059B1B010833029956
:107B70000B441168526819605A60059B01330593E4
:107B8000019B5B08059A9A42DBD300BF00BF06B099
:107B9000704700002DE9F04F8BB0059004910392DF
:107BA000B0EE407AF0EE607A17EE102A17EE903AB7
:107BB00001920293019B0893029B07930023099370
:107BC000AEE0099BDB00059A134493ED006AD3ED08
:107BD000016A039B5A08099B1344DB00059A13446E
:107BE00093ED007AD3ED017A099B1B01049A1344AB
:107BF00036EE077A76EEA77A83ED007AC3ED017A46
:107C0000099BDB00059A134493ED007A039B5A0805
:107C1000099B1344DB00059A1344D3ED007A77EEF9
:107C2000677A17EE900A10F0C9FF80468946099BD3
:107C3000DB00059A134493ED017A039B5A08099BD4
:107C40001344DB00059A1344D3ED017A77EE677A8B
:107C500017EE900A10F0B2FF82468B46DFED361A1F
:107C60009FED361ADDED070A9DED080A10F06EF95A
:107C7000B0EE407AF0EE607A17EE103A17EE906AA6
:107C8000184610F09BFF04460D46304610F096FF54
:107C900002460B462046294641EC160B43EC172BB7
:107CA000B0EE460AF0EE660AB0EE471AF0EE671A3A
:107CB00011F02CFEB0EE407AF0EE607AB0EE416A40
:107CC000F0EE616AB0EE463AF0EE663AB0EE472A60
:107CD000F0EE672A4BEC11AB49EC108B10F068FA10
:107CE000B0EE406AF0EE606AB0EE417AF0EE617A92
:107CF00053EC162B57EC176B1046194610F078FF13
:107D000004463046394610F073FF0146099B1B01BB
:107D10000833049A13441C605960099B013309938A
:107D2000039B5B08099A9A42FFF44BAF00BF00BF68
:107D30000BB0BDE8F08F00BFDB0FC9C000000080B2
:107D400084B001900091002303930023029311E07B
:107D5000019A029B22FA03F303F00102009B591ED1
:107D6000029BCB1A02FA03F3039A13430393029B79
:107D700001330293029A009B9A42E9DB039B184667
:107D800004B0704700B589B0039002910192019848
:107D9000FFF7BDFE0590059B023B079331E0019A7A
:107DA000079B22FA03F30493002306931FE0039B2F
:107DB00003F001039B00029A13441A68069BDB0040
:107DC000D018039B03F00103002B01D1042300E032
:107DD0000023029A13441A68069BDB001344049A9A
:107DE0001946FFF7A7FE069A049B13440693069ACA
:107DF000019B9A42DBD3079B013B0793039B013313
:107E00000393079B002BCADA039B184609B05DF861
:107E100004FB00B58BB00390029101920198FFF72B
:107E200076FE0790079B013B099354E0019A099B5A
:107E300022FA03F306930023089342E0089A069B74
:107E4000B2FBF3F309991846FFF77AFF07EE900AA1
:107E5000F8EE676A0222099B02FA03F307EE903AF2
:107E6000B8EEE77AC6EE877ACDED047A4FF00003DC
:107E70000593039B03F001039B00029A13441A68C5
:107E8000089BDB00D018039B03F00103002B01D1FA
:107E9000042300E00023029A13441A68089BDB00C5
:107EA00013449DED047ADDED057AB0EE470AF0EE5D
:107EB000670A069A1946FFF76DFE089A069B134457
:107EC0000893089A019B9A42B8D3099B013B0993F6
:107ED000039B01330393099B002BA7DA039B1846EE
:107EE0000BB05DF804FB00B587B001900091009BDA
:107EF000002B01D1002340E0009B5A1E009B134041
:107F0000002B01D0012338E0019B0393009BDB0091
:107F1000184611F069FE03460493049B002B02D11E
:107F20004FF0FF3329E00023059303AB009A194675
:107F30000598FFF727FF059003AB009A19460598AF
:107F4000FFF767FF059003AB009A19460598FFF706
:107F500019FF0590059B03F001039B0006AA13443B
:107F600053F80C1C009BDB001A46019811F060FFCF
:107F7000049B184611F004FF0023184607B05DF873
:107F800004FB70B582B0B0EE407AF0EE607A17EE86
:107F9000102A17EE903A00920193009B019E18461A
:107FA00010F00CFE04460D463346184610F006FE4F
:107FB00002460B462046294641EC160B43EC172B94
:107FC000B0EE460AF0EE660AB0EE471AF0EE671A17
:107FD00011F0F8FC53EC102B1046194610F008FE77
:107FE000034607EE903AB0EE670A02B070BD2DE985
:107FF000704F86B0019000914FF00003059300236D
:1080000004935CE0049BDB00019A13441A685C68EB
:10801000104610F0D3FD80468946204610F0CEFD74
:1080200082468B46049BDB00019A13441A685E6803
:10803000104610F0C3FD04460D46304610F0BEFD5C
:1080400002460B462046294641EC160B43EC172B03
:10805000B0EE460AF0EE660AB0EE471AF0EE671A86
:1080600011F046FCB0EE407AF0EE607AB0EE416A74
:10807000F0EE616AB0EE463AF0EE663AB0EE472AAC
:10808000F0EE672A4BEC11AB49EC108B10F090F836
:10809000B0EE407AF0EE607A53EC172B104619469A
:1080A00010F0A6FD034603939DED057ADDED037AFE
:1080B00077EE277ACDED057A049B01330493049B78
:1080C000009A9A429ED8059B07EE903AB0EE670A56
:1080D00006B0BDE8708F00B589B0039002918DEDB8
:1080E000010A4FF0000307930023069332E0069B3A
:1080F000DB00039A13441A685B6807EE102A07EE48
:10810000903AB0EE470AF0EE670AFFF73AFF8DEDBE
:10811000050A069B07EE903AB8EEE77ADDED017AA4
:1081200067EE276A029B07EE903AB8EE677AC6EED2
:10813000877ACDED047A9DED057ADDED047A67EE60
:10814000277A9DED077A77EE277ACDED077A069BA1
:1081500001330693069B029A9A42C8D8029B07EE07
:10816000903AF8EE677A9DED077AC7EE276AF0EE4F
:10817000667AB0EE670A09B05DF804FB2DE9F043BA
:108180008DB000AFF860B96087ED010A6B461E46FE
:10819000B9680B46013BBB620023884699464FF005
:1081A00000024FF000034FEA491343EAD8634FEA55
:1081B000481200230C461D464FF000024FF000030A
:1081C0006B0143EAD46362018B000733DB08DB00F9
:1081D000ADEB030D6B4603339B089B007B620023D2
:1081E000FB6232E0FB6ADB00FA6813441A685B68E2
:1081F00007EE102A07EE903AB0EE470AF0EE670A53
:10820000FFF7BFFE87ED060AFB6A07EE903AB8EE6D
:10821000677AD7ED017A67EE276ABB6807EE903A76
:10822000B8EE677AC6EE877AC7ED057A97ED067ADB
:10823000D7ED057A67EE277A7A6AFB6A9B001344CA
:10824000C3ED007AFB6A0133FB62FA6ABB689A42AB
:10825000C8D3BB685B083B62BB6803F00103002B1B
:1082600016D13B6A013B7A6A9B00134493ED007A76
:108270007A6A3B6A9B001344D3ED007A37EE277A83
:10828000F0EE006AC7EE267AC7ED077AFB6904E0D4
:108290007A6A3B6A9B0013441B68B54607EE903A26
:1082A000B0EE670A3437BD46BDE8F08300B58BB049
:1082B00003908DED020ACDED010A4FF00003099302
:1082C0004FF0000308930023079330E0079BDB0087
:1082D000039A13441A685B6807EE102A07EE903A77
:1082E000B0EE470AF0EE670AFFF74BFE8DED060A87
:1082F000079B07EE903AB8EE677ADDED017A67EEFC
:10830000276A9DED027AC6EE877ACDED057A9DED5E
:10831000067ADDED097AB4EEE77AF1EE10FA03DDC4
:10832000069B0993059B0893079B01330793079BC3
:1083300007EE903AF8EE677A9DED027AB4EEE77AAE
:10834000F1EE10FAC2DC089B07EE903AB0EE670A35
:108350000BB05DF804FB00B583B008F033FF01906B
:10836000019B0093009B002B02D0009808F000FCBA
:1083700000BF03B05DF804FB00B587B09DF8003086
:10838000012262F303038DF800309DF800300122D2
:1083900062F307138DF800301B4811F03DFE0346D1
:1083A0009AB26B4618491846FEF765FF0590059B83
:1083B0000493049B002B02D0049808F0D9FB01AB76
:1083C00008220021184611F0ABFD1023ADF804304F
:1083D0003C23ADF806300023ADF808304FF4C873E5
:1083E000ADF80A3001AB1846FEF741FF0590059B3A
:1083F0000393039B002B02D0039808F0B9FB00BF46
:1084000007B05DF804FB00BF9CB0030000B583B06B
:108410000021084803F0F2FA0190019B0093009BB1
:10842000002B02D0009808F0A3FB00BF03B05DF85A
:1084300004FB00BF542D002000B5ABB041F2235324
:10844000ADF81C30334B9B7C8DF81E3017AB3C22B3
:108450000021184611F064FD02238DF85C300123E1
:108460008DF85E3006238DF85F3008AB3C2200218A
:10847000184611F055FD0123ADF8303007AB0D93D0
:10848000254B196817AB254A184601F0C8FD2990FD
:10849000299B2893289B002B02D0289808F068FB82
:1084A0001D4B996808AB1E4A184601F0B8FD29908B
:1084B000299B2793279B002B02D0279808F058FB75
:1084C00001AB18220021184611F02AFD01238DF876
:1084D000193044F25063ADF8103001238DF80430A8
:1084E0000023029300238DF818304023039301AB3F
:1084F0001A4609490B48FEF7AEFE2990299B2693A0
:10850000269B002B02D0269808F032FB00BF2BB030
:108510005DF804FBA83100200C2B0020102B00205C
:10852000182B0020082B002000B583B003460091D3
:10853000ADF8063013468DF805309DF80530002B58
:108540000ED0002000F0E6FA0E4A0F4BD31ADB08DB
:108550001B0443F003030D4918460BF07FFA0DE0AE
:10856000002000F0E9FA074A074BD31ADB081B0486
:1085700043F00303064918460BF070FA00BF03B03E
:108580005DF804FB74AF030034AF0300A4B0030034
:10859000B8B0030000B587B0002302930023019315
:1085A000114B019301AB1946104803F00BFB0590EA
:1085B000059B0493049B002B02D0049808F0D8FA82
:1085C0000B4B029302AB19460A4803F0A9FC059035
:1085D000059B0393039B002B02D0039808F0C8FA75
:1085E00000BF07B05DF804FBA97A0200682D0020E7
:1085F00029850200A831002000B585B00190019BBB
:108600001B78002B0ED1094B1B883B211846FEF727
:108610002AFE0390039B0293029B002B02D0029838
:1086200008F0A6FA00BF05B05DF804FB1C2B002083
:1086300000B583B00190019808F09AFA00BF03B02A
:108640005DF804FB00B58BB001AB1C22002118467D
:1086500011F066FC002301934FF4A03302934FF412
:10866000F023039303238DF810300023ADF812306C
:1086700000238DF814300A4B06930A4B079301AB85
:10868000184602F005FB0990099B0893089B002BF4
:1086900002D0089808F06CFA00BF0BB05DF804FB3C
:1086A000F98502003186020000B583B00A4B1B78C1
:1086B00001211846FEF7D3FD0190019B0093009B1A
:1086C000002B02D0009808F053FA002000F022FAA4
:1086D00000BF03B05DF804FB082B002000B58DB08F
:1086E00001900091019B1B88562B00F0D680562BE1
:1086F00000F3E380522B00F0AF80522B00F3DD80BB
:10870000212B2DDC102BC0F2D880103B112B00F256
:10871000D48001A252F823F069870200C9870200C1
:10872000BB88020009880200BB880200BB880200E7
:10873000BB880200BB880200BB880200BB88020025
:10874000BB880200BB880200BB880200BB88020015
:10875000BB880200BB880200BB8802002B88020095
:108760003B2B00F08A80A8E05C4A5D4BD31ADB0803
:108770001B0443F003035B4918460BF06FF900201C
:1087800000F0C8F9002000F0D7F9019B9A88564BF9
:108790001A80554B1B881946544803F035FA0B9044
:1087A0000B9B0493049B002B02D0049808F0E0F983
:1087B00008F080F90B900B9B0393039B002B7ED05A
:1087C000039808F0D5F97AE0444A454BD31ADB0800
:1087D0001B0443F00303464918460BF03FF9002001
:1087E00000F098F9404B4FF6FF721A8008F084F9B8
:1087F0000B900B9B0593059B002B02D0059808F06E
:10880000B7F9FFF751FF65E0374B188800230022C6
:108810008521FEF734FD0B900B9B0693069B002BE6
:108820004FD0069808F0A4F94BE000238DF80830EB
:1088300000238DF80930019B9B8802AA1146184637
:10884000FEF721FD0B900B9B0793079B002B3AD063
:10885000079808F08DF936E0234B18880023002292
:108860000021FEF714FD0B900B9B0993099B002B35
:108870002BD0099808F07CF927E0019B9B881321F5
:108880001846FEF7F0FC0B900B9B0893089B002BFF
:108890001DD0089808F06CF919E0019B9B88132102
:1088A0001846FEF7E0FC0B900B9B0A930A9B002BEB
:1088B0000FD00A9808F05CF90BE000BF0AE000BF97
:1088C00008E000BF06E000BF04E000BF02E000BF18
:1088D00000E000BF00BF0DB05DF804FB74AF030003
:1088E00034AF0300CCB003001C2B0020682D002007
:1088F000D8B0030000B587B00CF01AF80590059BBE
:108900000493049B002B02D0049808F031F9002353
:10891000019301AB194601200CF0B6F80590059BB8
:108920000393039B002B02D0039808F021F901ABBD
:1089300018460CF0C7F90590059B0293029B002B8B
:1089400002D0029808F014F900BF07B05DF804FBEC
:1089500000BF704700B583B003460A468DF8073064
:1089600013468DF806309DF806209DF80730114615
:108970001846FEF7ADFA00BF03B05DF804FB00B582
:1089800083B001900198FEF748FA00BF03B05DF88C
:1089900004FB000000B583B003468DF807300DF1ED
:1089A0000703012204491846FEF7A8FA024B1B7878
:1089B000184603B05DF804FBA435002082B0019096
:1089C0004FF0A043184602B0704700B585B0019043
:1089D000084611461A4603468DF803300B468DF8BB
:1089E000023013468DF8013001AB1846FFF7E6FF61
:1089F00003909DF803209DF802305B001A439DF818
:108A000001309B001A439DF818301B0242EA030113
:108A10009DF81C301B04019A1943039B02F5E07278
:108A200043F8221000BF05B05DF804FB00B585B027
:108A300003900023019300230093002301220121CE
:108A40000398FFF7C2FF00BF05B05DF804FB00B557
:108A500085B003900B468DF80B309DF80B3000224B
:108A6000019200220092002200210398FFF7ADFF3F
:108A700000BF05B05DF804FB00B585B0019001AB07
:108A80001846FFF79BFF0390019B012202FA03F3B4
:108A90001946039800F02AF800BF05B05DF804FB02
:108AA00000B585B0019001AB1846FFF787FF039032
:108AB000019B012202FA03F31946039800F020F803
:108AC00000BF05B05DF804FB00B583B001900091D4
:108AD000009B002B03D10198FFF7E2FF02E0019811
:108AE000FFF7CAFF00BF03B05DF804FB82B001903E
:108AF0000091019B009AC3F8082500BF02B070479F
:108B000082B001900091019B009AC3F80C2500BF30
:108B100002B0704700B583B00190064A019B134430
:108B20001B7800211846FFF7CFFF00BF03B05DF8A8
:108B300004FB00BF00B1030000B583B00190064AFA
:108B4000019B13441B7801211846FFF7BDFF00BFAE
:108B500003B05DF804FB00BF00B1030000B583B0B3
:108B60000023019305E00198FFF7E6FF019B013325
:108B70000193019B032BF6D900BF00BF03B05DF842
:108B800004FB000000B583B00023019309E0094A0B
:108B9000019B13441B781846FFF748FF019B0133E4
:108BA0000193019B032BF2D9FFF7D8FF00BF03B05D
:108BB0005DF804FB00B1030000B583B0002301930E
:108BC0000AE0094A019B13441B7803211846FFF76A
:108BD0003EFF019B01330193019B032BF1D900BFA1
:108BE00000BF03B05DF804FB04B1030000B583B01F
:108BF0000190019B03F00103002B01D0FFF7C2FF9E
:108C0000019B03F00203002B01D0FFF7D5FF00BF4B
:108C100003B05DF804FB000084B001900B468DF8B2
:108C2000033013468DF8023000230393019B032B7E
:108C30003CD89DF80230012B0BD19DF80330012B5D
:108C400004D1019BDBB20E33DBB200E000238DF8D0
:108C500002309DF80330022B0FD0022B23DC002BB7
:108C600016D0012B1FD11449019A13465B001344FF
:108C70000B449DF802201A701AE00F49019A13461E
:108C80005B0013440B4401339DF802201A700FE07F
:108C90000949019A13465B0013440B4402339DF8C3
:108CA00002201A7004E00723039301E007230393D3
:108CB000039B184604B07047A835002000B583B068
:108CC000012200210020FFF7A7FF0190019B002B4C
:108CD00004D0019B072B01D0019B1CE0072202213D
:108CE0000120FFF799FF0190019B002B04D0019B0D
:108CF000072B01D0019B0EE0042202210020FFF788
:108D00008BFF0190019B002B04D0019B072B01D00E
:108D1000019B00E00023184603B05DF804FB00B59A
:108D200083B0012202210020FFF776FF0190019B12
:108D3000002B04D0019B072B01D0019B1CE00722D4
:108D400002210120FFF768FF0190019B002B04D056
:108D5000019B072B01D0019B0EE00A22002100207D
:108D6000FFF75AFF0190019B002B04D0019B072BBA
:108D700001D0019B00E00023184603B05DF804FB1E
:108D800000B585B001900091019B1B88102B02D08B
:108D9000112B18D02FE01A4B1B68002B0DD1FFF7B9
:108DA0008DFF0390039B002B07D0164B1B68002BF5
:108DB00003D0144B1B6803989847114B1B68013371
:108DC0000F4A136017E00E4B1B68013B0C4A1360FF
:108DD0000B4B1B68002B0DD1FFF7A1FF0390039BEA
:108DE000002B07D0074B1B68002B03D0054B1B68DB
:108DF0000398984700BF00BF05B05DF804FB00BFB3
:108E0000B8350020B4350020BFF34F8F00BF064BAC
:108E1000DB6803F4E0620449044B1343CB60BFF307
:108E20004F8F00BF00BFFDE700ED00E00400FA0532
:108E300082B01D4B1B68B3F1FF3F0AD11B4B1B686F
:108E4000DBB201931A4B1B681B0903F00F0300935D
:108E500005E0154B1B680193164B1B680093019BA3
:108E6000062B1DD1009B033B042B17D801A252F8FF
:108E700023F000BF898E02008D8E0200918E0200C9
:108E8000958E0200998E020001230AE0012308E07A
:108E9000012306E0012304E0012302E0012300E0B6
:108EA0000023184602B0704730010010E00F00F0B8
:108EB000E80F00F03401001082B0174B1B68DBB2E2
:108EC0000193164B1B681B0903F00F030093019BD2
:108ED000062B1DD1009B033B042B17D801A252F88F
:108EE00023F000BFF98E0200FD8E0200018F020008
:108EF000058F0200098F020001230AE0002308E029
:108F0000002306E0002304E0002302E0002300E049
:108F10000023184602B07047E00F00F0E80F00F0A1
:108F200082B01D4B1B68B3F1FF3F0AD11B4B1B687E
:108F3000DBB201931A4B1B681B0903F00F0300936C
:108F400005E0154B1B680193164B1B680093019BB2
:108F5000062B1DD1009B033B042B17D801A252F80E
:108F600023F000BF798F02007D8F0200818F020005
:108F7000858F0200898F020001230AE0012308E0A7
:108F8000012306E0012304E0012302E0012300E0C5
:108F90000023184602B0704730010010E00F00F0C7
:108FA000E80F00F03401001082B0174B1B68DBB2F1
:108FB0000193164B1B681B0903F00F030093019BE1
:108FC000062B1DD1009B033B042B17D801A252F89E
:108FD00023F000BFE98F0200ED8F0200F18F020045
:108FE000F58F0200F98F020001230AE0002308E058
:108FF000002306E0002304E0002302E0002300E059
:109000000023184602B07047E00F00F0E80F00F0B0
:1090100082B01D4B1B68B3F1FF3F0AD11B4B1B688D
:10902000DBB201931A4B1B681B0903F00F0300937B
:1090300005E0154B1B680193164B1B680093019BC1
:10904000062B1DD1009B033B042B17D801A252F81D
:1090500023F000BF699002006D9002007190020041
:10906000759002007990020001230AE0012308E0D4
:10907000012306E0012304E0012302E0012300E0D4
:109080000023184602B0704730010010E00F00F0D6
:10909000E80F00F03401001082B0174B1B68DBB200
:1090A0000193164B1B681B0903F00F030093019BF0
:1090B000062B1DD1009B033B042B17D801A252F8AD
:1090C00023F000BFD9900200DD900200E190020081
:1090D000E5900200E990020001230AE0002308E085
:1090E000002306E0002304E0002302E0002300E068
:1090F0000023184602B07047E00F00F0E80F00F0C0
:1091000082B0174B1B68DBB20193164B1B681B091F
:1091100003F00F030093019B062B1DD1009B033B23
:10912000042B17D801A252F823F000BF419102008E
:1091300045910200499102004D91020051910200B7
:1091400001230AE0002308E0002306E0002304E0F6
:10915000002302E0002300E00023184602B070471D
:10916000E00F00F0E80F00F082B01D4B1B68B3F178
:10917000FF3F0AD11B4B1B68DBB201931A4B1B68E4
:109180001B0903F00F03009305E0154B1B680193C7
:10919000164B1B680093019B062B1DD1009B033BC4
:1091A000042B17D801A252F823F000BFC19102008E
:1091B000C5910200C9910200CD910200D191020037
:1091C00000230AE0002308E0012306E0012304E075
:1091D000012302E0012300E00023184602B070479B
:1091E00030010010E00F00F0E80F00F03401001033
:1091F00082B01D4B1B68B3F1FF3F0AD11B4B1B68AC
:10920000DBB201931A4B1B681B0903F00F03009399
:1092100005E0154B1B680193164B1B680093019BDF
:10922000062B1DD1009B033B042B17D801A252F83B
:1092300023F000BF499202004D92020051920200B9
:10924000559202005992020001230AE0012308E02E
:10925000012306E0012304E0012302E0012300E0F2
:109260000023184602B0704730010010E00F00F0F4
:10927000E80F00F03401001082B01D4B1B68B3F101
:10928000FF3F0AD11B4B1B68DBB201931A4B1B68D3
:109290001B0903F00F03009305E0154B1B680193B6
:1092A000164B1B680093019B062B1DD1009B033BB3
:1092B000042B17D801A252F823F000BFD19202006C
:1092C000D5920200D9920200DD920200E1920200E2
:1092D00001230AE0012308E0012306E0012304E062
:1092E000012302E0012300E00023184602B070478A
:1092F00030010010E00F00F0E80F00F03401001022
:1093000082B0154B1B680193144B1B680093019BA3
:10931000062B1DD1009B033B042B17D801A252F84A
:1093200023F000BF399302003D93020041930200F5
:10933000459302004993020000230AE0002308E05D
:10934000002306E0012304E0012302E0012300E002
:109350000023184602B0704730010010340100109D
:1093600082B0154B1B680193144B1B680093019B43
:10937000062B1DD1009B033B042B17D801A252F8EA
:1093800023F000BF999302009D930200A193020075
:10939000A5930200A993020000230AE0002308E03D
:1093A000002306E0002304E0012302E0012300E0A3
:1093B0000023184602B0704730010010340100103D
:1093C00008B5FFF7CDFF0346002B07D04FF0102361
:1093D0004FF08042D3F80832C2F8583500BF08BDBC
:1093E00000BF044BD3F80034002BFAD000BF00BFFD
:1093F000704700BF00E0014000B583B00190054A0E
:10940000019BC2F80435FFF7EBFF00BF03B05DF826
:1094100004FB00BF00E00140024B034A1A6000BF9A
:10942000704700BF202B00200090D00308B5FFF745
:10943000FFFC0346002B06D0A44B1B681B0AA44A62
:1094400003F01F031360FFF737FD0346002B02D024
:10945000A04BA14A1A60FFF763FD0346002B06D01C
:109460009E4B1B685B0B9E4A03F007031360FFF7DC
:109470009BFD0346002B05D09A4BDB68994A23F0ED
:109480008073D360FFF7C4FD0346002B0ED04FF06E
:1094900080430022C3F80C214FF080430022C3F820
:1094A00010214FF080430022C3F83825FFF7F4FD68
:1094B0000346002B02D08C4B03221A60FFF720FEDC
:1094C0000346002B0BD0894B05221A60884B0122E2
:1094D0001A60884B00221A60874B3F221A60FFF700
:1094E00043FE0346002B76D04FF08053834AD3F8D7
:1094F0000434C2F820354FF08053804AD3F8083442
:10950000C2F824354FF080537C4AD3F80C34C2F8AB
:1095100028354FF08053794AD3F81034C2F82C35EF
:109520004FF08053754AD3F81434C2F830354FF0F9
:109530008053724AD3F81834C2F834354FF0805350
:109540006E4AD3F81C34C2F840354FF080536B4A52
:10955000D3F82034C2F844354FF08053674AD3F82B
:109560002434C2F848354FF08053644AD3F8283485
:10957000C2F84C354FF08053604AD3F82C34C2F80F
:1095800050354FF080535D4AD3F83034C2F854352B
:109590004FF08053594AD3F83434C2F860354FF055
:1095A0008053564AD3F83834C2F864354FF08053AC
:1095B000524AD3F83C34C2F868354FF080534F4AD2
:1095C000D3F84034C2F86C354FF080534B4AD3F88F
:1095D0004434C2F87035FFF70BFE0346002B05D06C
:1095E000474B1B68474A03F04F031360FFF744FEE5
:1095F0000346002B0DD04FF08043D3F8003403F026
:109600000103002B05D04FF080436FF00102C3F837
:109610000024FFF775FE0346002B05D03A4B1B686C
:10962000394A43F480631360384BD3F88830374AA3
:1096300043F47003C2F88830BFF34F8F00BFBFF30D
:109640006F8F00BFFFF7BCFE4FF01023D3F80C3232
:1096500003F00103012B13D10120FFF7CDFE4FF0E2
:109660001023D3F80C324FF0102223F00103C2F87C
:109670000C32FFF7B5FE0020FFF7BEFEFFF7C4FB7C
:109680004FF01023D3F80032002B05DB4FF01023EE
:10969000D3F80432002B15DA0120FFF7ADFE4FF0AE
:1096A00010231522C3F80022FFF79AFE4FF0102373
:1096B0001522C3F80422FFF793FE0020FFF79CFE5B
:1096C000FFF7A2FBFFF7A8FE00BF08BD24030010B0
:1096D0004035014074C007400DF0ADBA440200109F
:1096E0003C050040F0ED00E0A005004010560040B1
:1096F00088560040185600401456004000C00040F4
:1097000058020010E40E00403C17004000ED00E05D
:10971000004870472C4E002011F091BB11F078BB2F
:1097200003460846012111F07EBB6DDF704700BF84
:10973000184679DF704700BF18467DDF704700BFCD
:10974000184664DF704700BF184682B00346009198
:10975000ADF80630BDF80630DAB2009B1A70BDF8DD
:1097600006301B0A9AB2009B0133D2B21A70022350
:10977000184602B0704700B589B0039002911346B5
:10978000ADF80630029B1B8803F10902BDF80630D4
:109790009A4201D90C2353E004AB1846FFF7C5FFEA
:1097A0000790079B0693069B002B01D0069B47E082
:1097B000029B1B881A46039B134408221A70029BC3
:1097C0001B8801339AB2029B1A80029B1B881A469F
:1097D000039B13441B221A70029B1B8801339AB20D
:1097E000029B1A80029B1B881A46039B981804ABA5
:1097F00001330622194610F06AFB029B1B880633D0
:109800009AB2029B1A809DF8103023F00103DBB25C
:10981000002B07D1029B1B881A46039B134400228E
:109820001A7006E0029B1B881A46039B1344012210
:109830001A70029B1B8801339AB2029B1A80002384
:10984000184609B05DF804FB00B589B00390029199
:109850000192ADF80230039B1B78012B05D1039BCD
:109860005B78002B01D1072392E0019B1B889A1C97
:10987000BDF802309A420ED8039B1B78012B0CD105
:10988000019B1B881A46039B5B7813449A1CBDF806
:1098900002309A4201D90C237AE0019B1B88BDF863
:1098A0000220D31A9BB2023BADF81C30BDF81C302D
:1098B000ADF81230019B1B880233029A13440DF15C
:1098C000120211461846FFF738FF0690069B0593D3
:1098D000059B002B01D0059B5AE0039B1B78022BB4
:1098E00006D0039B5B789AB2BDF812309A4209D336
:1098F000BDF81230BDF81C209A4203D309238DF81D
:109900001F3017E008238DF81F30039B1B78012BB5
:109910000CD1039B5B789BB2BDF81C209A4205D307
:10992000039B5B789BB2ADF8123003E0BDF81C30AE
:10993000ADF81230BDF81230FE2B01D90C2327E010
:10994000BDF81230DAB2019B1B881946029B0B440A
:109950000132D2B21A70019B1B8801339AB2019B6B
:109960001A80019B1B881A46029B13449DF81F20F6
:109970001A70019B1B8801339AB2019B1A80019BCC
:109980001A88BDF8123013449AB2019B1A80002342
:10999000184609B05DF804FB00B589B00390029148
:1099A0001346ADF80630029B1B881A1DBDF8063021
:1099B0009A4201D90C233BE00DF116031846FFF73C
:1099C000B8FE0790079B0693069B002B01D0069BD1
:1099D0002EE0029B1B881A46039B134403221A7035
:1099E000029B1B8801339AB2029B1A80029B1B8840
:1099F0001A46039B134419221A70029B1B880133D9
:109A00009AB2029B1A80BDF81620029B1B88194649
:109A1000039B0B4419461046FFF797FE0346194671
:109A2000029B1A888BB213449AB2029B1A800023BD
:109A3000184609B05DF804FB84B0029101921A4601
:109A400003468DF80F301346ADF80C30019B1B8890
:109A5000DA1CBDF80C309A4201D90C2328E0019B96
:109A60001B881A46029B134402221A70019B1B8812
:109A700001339AB2019B1A80019B1B881A46029BF4
:109A8000134401221A70019B1B8801339AB2019B77
:109A90001A80019B1B881A46029B13449DF80F20D5
:109AA0001A70019B1B8801339AB2019B1A80002314
:109AB000184604B0704784B0029101921A460346DA
:109AC0008DF80F301346ADF80C30019B1B88DA1C63
:109AD000BDF80C309A4201D90C2328E0019B1B8869
:109AE0001A46029B134402221A70019B1B88013301
:109AF0009AB2019B1A80019B1B881A46029B134451
:109B00000A221A70019B1B8801339AB2019B1A80AA
:109B1000019B1B881A46029B13449DF80F201A7064
:109B2000019B1B8801339AB2019B1A8000231846BF
:109B300004B0704700B58FB0039001930B468DF8C9
:109B40000B3013468DF80A3000238DF83330109B0C
:109B50001B88ADF8303000230D9371E0039B5A68E9
:109B60000D9B9B001A4405AB106818600DF11B019A
:109B700005AB00221846FFF7E4FD0A900A9B099303
:109B8000099B002B01D0099B7CE09DF81B309DF8C0
:109B90000A209A4251D19DF83330002B01D0002386
:109BA00000E002238DF82330109B1B881A469DF895
:109BB0001B301A449DF823301A44BDF844309A42B1
:109BC00001DD0C235EE09DF8333083F00103DBB24E
:109BD000002B16D0109B1B8801339AB2109B1A8061
:109BE000109B1B881A46019B13449DF80B201A708A
:109BF000109B1B8801339AB2109B1A8001238DF8A9
:109C00003330109B1B881A46019B1A440DF11B012F
:109C100005AB1846FFF795FD0A900A9B0793079B33
:109C2000002B01D0079B2DE0109B1A889DF81B305C
:109C30009BB213449AB2109B1A800D9B01330D9373
:109C4000039B1B881A460D9B934287DB9DF833309C
:109C5000002B16D0109B1A88BDF83030D31A9BB257
:109C6000013BADF82E30BDF82E30FF2B01D90C236F
:109C700008E0BDF83030019A1344BDF82E20D2B26E
:109C80001A70002318460FB05DF804FB00B58BB0C6
:109C9000059003930B468DF8133013468DF8123060
:109CA0009DF81310BDF8343001930C9B0093039B77
:109CB00002220598FFF73EFF0990099B0893089B35
:109CC000002B01D0089B14E09DF81210BDF8343031
:109CD00001930C9B0093039B10220598FFF72AFF2A
:109CE0000990099B0793079B002B01D0079B00E07D
:109CF000002318460BB05DF804FB82B00190019B75
:109D00001B88052B0AD9019B1B88B3F5486F07D91F
:109D1000019B1B884FF6FF72934201D0072325E079
:109D2000019B5B88052B0AD9019B5B88B3F5486FC3
:109D300007D9019B5B884FF6FF72934201D007233E
:109D400014E0019B1B884FF6FF7293420DD0019BDC
:109D50005B884FF6FF72934207D0019B1A88019BE4
:109D60005B889A4201D9072300E00023184602B01D
:109D7000704700B587B0039002910192ADF80230B0
:109D8000019B1B889A1DBDF802309A4201D90C2311
:109D90004DE00398FFF7B1FF0590059B0493049BEA
:109DA000002B01D0049B42E0019B1B881A46029BBA
:109DB000134405221A70019B1B8801339AB2019B40
:109DC0001A80019B1B881A46029B134412221A70A8
:109DD000019B1B8801339AB2019B1A80039B1A884E
:109DE000019B1B881946029B0B4419461046FFF73E
:109DF000ACFC03461946019B1A888BB213449AB2F5
:109E0000019B1A80039B5A88019B1B881946029B61
:109E10000B4419461046FFF798FC03461946019B70
:109E20001A888BB213449AB2019B1A8000231846F9
:109E300007B05DF804FB00B587B003900291019272
:109E4000ADF80230039B9B8802330593019B1B886E
:109E50001A46059B13449A1CBDF802309A4201D958
:109E60000C2354E0059BFE2B01D90C234FE0059BEE
:109E7000DAB2019B1B881946029B0B440132D2B215
:109E80001A70019B1B8801339AB2019B1A80019BB7
:109E90001B881A46029B1344FF221A70019B1B88E1
:109EA00001339AB2019B1A80039B1A88019B1B887D
:109EB0001946029B0B4419461046FFF746FC034621
:109EC0001946019B1A888BB213449AB2019B1A80DF
:109ED000039B9B88002B19D0039B9B68002B01D10F
:109EE000072314E0019B1B881A46029B9818039BCA
:109EF0009968039B9B881A460FF0E9FF019B1A881B
:109F0000039B9B8813449AB2019B1A800023184636
:109F100007B05DF804FB00B589B00390029101928F
:109F2000ADF80230039B9B6A002B01D1072372E03E
:109F300000238DF81F3066E0039B996A9DF81F206F
:109F400013465B0013449B000B440693069B9B88BF
:109F500002330593059BFE2B01D90C235BE0059B87
:109F6000DAB2019B1B881946029B0B440132D2B224
:109F70001A70019B1B8801339AB2019B1A80019BC6
:109F80001B881A46029B134416221A70019B1B88D9
:109F900001339AB2019B1A80069B1A88019B1B8889
:109FA0001946029B0B4419461046FFF7CEFB0346A9
:109FB0001946019B1A888BB213449AB2019B1A80EE
:109FC000069B9B88002B19D0069B9B68002B01D118
:109FD000072320E0019B1B881A46029B9818069BCA
:109FE0009968069B9B881A460FF071FF019B1A889F
:109FF000069B9B8813449AB2019B1A809DF81F30E0
:10A0000001338DF81F30039B93F82C309DF81F20EF
:10A010009A4291D30023184609B05DF804FB00B5BD
:10A0200095B005900491039200231393039B1B8822
:10A03000ADF84A30039B00221A80059B93F82D301F
:10A04000002B0ED0BDF84A301A4603990498FFF74A
:10A0500092FB1390139B1193119B002B01D0119B2A
:10A06000D8E0059B9B78002B0ED0BDF84A301A46ED
:10A0700003990498FFF790FC1390139B1093109B87
:10A08000002B01D0109BC5E0059BDB78002B10D086
:10A09000059BDB7858B2BDF84A30039A0499FFF764
:10A0A000CBFC1390139B0F930F9B002B01D00F9BA6
:10A0B000B0E0059B5B68002B11D0059B5B6893F9B2
:10A0C0000000BDF84A30039A0499FFF7F4FC13909E
:10A0D000139B0E930E9B002B01D00E9B9AE0059BC9
:10A0E0001B89002B14D0059B03F10800BDF84A30F2
:10A0F0000193039B0093049B06220221FFF7C6FDF8
:10A100001390139B0D930D9B002B01D00D9B81E0B1
:10A11000059B1B8A002B14D0059B03F11000BDF892
:10A120004A300193039B0093049B07220321FFF70E
:10A13000ADFD1390139B0C930C9B002B01D00C9B3B
:10A1400068E0059B1B8B002B14D0059B03F11800C6
:10A15000BDF84A300193039B0093049B1522142100
:10A16000FFF794FD1390139B0B930B9B002B01D0D7
:10A170000B9B4FE0059B1B6A002B0FD0059B186AB9
:10A18000BDF84A30039A0499FFF7F3FD1390139B2F
:10A190000A930A9B002B01D00A9B3BE0059B5B6A5C
:10A1A000002B0FD0059B586ABDF84A30039A0499DA
:10A1B000FFF741FE1390139B0993099B002B01D0DD
:10A1C000099B27E0059B93F82C30002B0ED0BDF89F
:10A1D0004A30039A04990598FFF79DFE1390139B4C
:10A1E0000893089B002B01D0089B13E0059B1B786C
:10A1F000002B0ED0BDF84A30039A04990598FFF75A
:10A2000023FB1390139B0793079B002B01D0079B05
:10A2100000E0139B184615B05DF804FB86B0039070
:10A2200001921A460B46ADF80A3013468DF80930F4
:10A23000039B002B02D0019B002B01D100235CE08B
:10A240000023ADF816300CE0BDF81630039A134425
:10A250001B789AB2BDF8163013449BB20133ADF8A7
:10A260001630BDF816305A1CBDF80A309A420FDA83
:10A27000019B1B88BDF816209A42E5D3BDF8163025
:10A280000133039A13441B789DF809209A42DBD1CD
:10A29000BDF81620BDF80A309A4201D300232CE005
:10A2A000BDF816300233ADF81430BDF81630039AFD
:10A2B00013441B78002B08D0BDF81630039A1344C2
:10A2C0001B789BB2013B9BB200E00023ADF812303B
:10A2D000BDF81230002B08D0BDF81420BDF81230A4
:10A2E0001A44BDF80A309A4201DD002305E0019BC3
:10A2F000BDF814201A80BDF81230184606B0704719
:10A3000000B585B001900B46ADF8023013468DF8CC
:10A3100001300023ADF80C309DF8013003AABDF8E0
:10A3200002100198FFF77AFF0346ADF80E30BDF832
:10A330000E30002B01D1002304E0BDF80C301A468A
:10A34000019B1344184605B05DF804FB72DF7047AB
:10A3500000BF184673DF704700BF184682B00190F7
:10A36000019B93F83034184602B0704784B00190D6
:10A37000002303930AE0019A039B13441B78002BEC
:10A3800001D0012306E0039B01330393039B052BBC
:10A39000F1D90023184604B07047000082B003468C
:10A3A0008DF807309DF807305A1C074B83FB0213CA
:10A3B0005910D317C91A0B469B000B44D11ACBB2C4
:10A3C000184602B0704700BF6766666682B00190AB
:10A3D0000091009BDB7B012B04D1009B9A88019BA1
:10A3E000A3F8242400BF02B0704700B585B00190E7
:10A3F0000091019B002283F82E24009B9A88019BE8
:10A40000B3F824349A4216D1019B1B7983F00103DF
:10A41000DBB2002B0FD00121019800F0AFF90390BF
:10A42000039B002B07D0019B9B6B002B03D0019B50
:10A430009B6B0398984700BF05B05DF804FB00B51F
:10A4400085B001900091009B1B88262B1ED1009B9C
:10A450001B7A012B03D0009B1B7A022B17D1019B87
:10A460009B781846FFF79AFF03461946019800F0BB
:10A4700085F90390039B002B09D0019B9B6B002B5C
:10A4800005D0019B9B6B0398984700E000BF05B087
:10A490005DF804FB00B585B001900B468DF80330E4
:10A4A000019B03F227431846FFF760FF03468DF830
:10A4B0000F309DF80330013B032B33D801A252F833
:10A4C00023F000BFD5A40200F9A402000DA50200EC
:10A4D00019A50200019B9B79002B0DD0019B93F8DD
:10A4E000243083F00103DBB2002B05D09DF80F3040
:10A4F000002B01D0012316E0019BDB79002B05D056
:10A500009DF80F30002B01D002230CE0019B1B7A39
:10A51000002B01D0032306E0019B5B7A002B01D0C6
:10A52000042300E00023184605B05DF804FB00BFDB
:10A5300082B001900091019B012283F83120019BA0
:10A540000022C3F82024019B03F22642009B5A609C
:10A55000009B00229A60009B02221A70009B8022BE
:10A560009A810023184602B0704782B00190009192
:10A57000019B022283F83120019B93F82430002BA9
:10A5800003D0009B07221A7002E0009B03221A707E
:10A59000019B1B699AB2009B9A81019B0022C3F820
:10A5A0002024019B03F22642009B5A60019BDA683B
:10A5B000009B9A600023184602B0704700B583B034
:10A5C0000190019B5B79002B0FD0019B93F82E34F7
:10A5D00083F00103DBB2002B07D00198FFF7BEFE2A
:10A5E0000346002B01D0012300E0002303F0010308
:10A5F000DBB2184603B05DF804FB00B585B00190EE
:10A600000B468DF80330019BD3F81004019BB3F87F
:10A61000143401221946FFF773FE0390039B002BAD
:10A6200003D0039B9DF803201A70019B03F1540093
:10A63000019B03F58261019B3C331A46FFF786FEBE
:10A640000346184605B05DF804FB00B585B00190DF
:10A650000091019B5A69009B9A60019B9B699AB289
:10A66000009B9A81019B93F82430002B04D0019B1E
:10A67000062283F83C2003E0019B012283F83C2062
:10A680000198FFF79BFF0346002B13D0009B02228B
:10A690001A7504210198FFF7B0FF0390039B029302
:10A6A000029B002B01D0029B0FE0019B052283F847
:10A6B000312003E0019B032283F83120019B03F545
:10A6C0008262019BC3F820240023184605B05DF880
:10A6D00004FB00B585B001900091019BDA69009BF5
:10A6E0009A60019B1B6A9AB2009B9A81019B93F826
:10A6F0002430002B04D0019B062283F83C2003E089
:10A70000019B012283F83C200198FFF757FF034685
:10A71000002B13D0009B02221A7504210198FFF729
:10A720006CFF0390039B0293029B002B01D0029BC2
:10A730000FE0019B062283F8312003E0019B0422F5
:10A7400083F83120019B03F58262019BC3F820242A
:10A750000023184605B05DF804FB82B00190019B10
:10A760001B68012B03D0019B1B68022B01D1012325
:10A7700000E00023184602B07047000000B585B025
:10A7800001900B468DF80330019B1B7883F0010389
:10A79000DBB2002B01D0082309E1019B9DF80320C7
:10A7A0009A70019B03F226430722002118460FF0FE
:10A7B000B7FB019B9B79002B03D0019B9B78012B5E
:10A7C0000FD0019BDB79002B03D0019B9B78012BE1
:10A7D00007D0019BDB79002B14D0019B9B78022BC7
:10A7E00010D1019B5B6B002B08D0019B012283F8E9
:10A7F0002D24019B5B6B0820984703E0019B0022FE
:10A8000083F82D249DF8033019460198FFF742FE86
:10A8100003461A46019B9A70019B5B6B002B20D06C
:10A82000019B9B78032B03D0019B9B78042B18D1B1
:10A83000019B5B79002B14D0019B93F82E3483F09D
:10A840000103DBB2002B0CD0019B002283F83024E3
:10A85000019B012283F82F24019B5B6B0720984703
:10A8600003E0019B002283F82F24019B3C33182234
:10A87000002118460FF054FB019B012283F83C2075
:10A88000019B2C331846FFF768FF0346002B06D0C8
:10A89000019BDB6ADAB2019B83F8512003E0019B44
:10A8A000012283F85120019B93F82430002B12D011
:10A8B000019B28331846FFF750FF0346002B06D0B4
:10A8C000019B9B6ADAB2019B83F8522003E0019B53
:10A8D000012283F85220019B002283F85020019B23
:10A8E0009B78042B31D801A252F823F041A9020031
:10A8F00001A9020011A9020021A9020031A9020048
:10A90000019B3C3319460198FFF712FE03901DE0AE
:10A91000019B3C3319460198FFF727FE039015E091
:10A92000019B3C3319460198FFF78FFE03900DE021
:10A93000019B3C3319460198FFF7CBFE039005E0DD
:10A94000019B002283F8312000E000BF019B9B782F
:10A95000002B20D0019B03F15400019BD3F820145D
:10A96000019B3C331A46FFF7F1FC0390039B002B3D
:10A9700001D0039B1BE0019B93F85420019B93F8AB
:10A98000303019461046FFF7E5FC0390039B002B7F
:10A9900001D0039B0BE0019B5B6B002B06D0019B5E
:10A9A0005B6B019A92F831201046984700231846B5
:10A9B00005B05DF804FB00BF00B585B001900091C3
:10A9C000009B0393019B1B88262B10D0262B13DCA6
:10A9D000102B02D0112B05D00EE001990398FFF740
:10A9E000F5FC0AE001990398FFF7FFFC05E00199E7
:10A9F0000398FFF724FD00E000BF00BF05B05DF83D
:10AA000004FB75DF704700BF184676DF704700BF54
:10AA100018467ADF704700BF18467BDF704700BFDB
:10AA20001846000084B00346ADF8063000230393B7
:10AA300016E00F49039A13469B0013449B000B44F6
:10AA40001B88BDF806209A4207D1039A13469B0043
:10AA500013449B00064A134406E0039B013303930F
:10AA6000039B002BE5D00023184604B0704700BFBD
:10AA7000E035002082B001900B46ADF80230019B1A
:10AA8000BDF802201A80019B00221A72019B054921
:10AA900003F10A020B4603CB1060516000BF02B005
:10AAA000704700BF1036002082B00190019B4FF626
:10AAB000FF721A8000BF02B0704788B00390029105
:10AAC00011461A460B46ADF806301346ADF8043071
:10AAD000039B9B881A46BDF8063013440793039BDB
:10AAE0009B881946039B9B88BDF80620934228BF8C
:10AAF00013469BB2CB1A0693039BDB881A46BDF81C
:10AB0000043013440593039BDB881946039BDB88C1
:10AB1000BDF80420934228BF13469BB2CB1A04937E
:10AB2000029B5A88039B1B889A4205D3029B5A8832
:10AB3000039B5B889A4201D900231CE0029B9B88FF
:10AB40001A46069B934205D8029B9B881A46079B90
:10AB5000934201D200230EE0029BDB881A46049B3D
:10AB6000934205D8029BDB881A46059B934201D28B
:10AB7000002300E00123184608B0704700B583B0F9
:10AB80000190064B9B69002B03D0044B9B690198F5
:10AB9000984700BF03B05DF804FB00BFF435002008
:10ABA00000B585B003460091ADF80630BDF806301B
:10ABB00000991846FFF725FF0390039B002B05D053
:10ABC000039B112B02D00398FFF7D8FF039B002BA8
:10ABD0000CBF01230023DBB2184605B05DF804FB6F
:10ABE00000B589B00190019B0793079B9BB2184663
:10ABF000FFF718FF0690069B002B42D0069B1A7A9F
:10AC0000224B1B7B9A4215D2079B9AB2069B0A33B2
:10AC100019461046FFF7C4FF03468DF813309DF820
:10AC20001330002B2DD0069B1B7A0133DAB2069B22
:10AC30001A7226E0069B00221A72144B1B7C002B12
:10AC40000FD0079B9BB23B211846FFF7DEFE059015
:10AC5000059B002B05D0059B082B02D00598FFF71C
:10AC60008DFF0A4B5B69002B0BD000238DF80C3055
:10AC7000079B9BB2ADF80E30044B5B6903AA1046EC
:10AC8000984700BF09B05DF804FB00BFF435002011
:10AC900030B587B00190019B002B01D10E2353E00A
:10ACA0002B4A019B14461D460FCD0FC495E80700A3
:10ACB00084E80700264B274A1A60019B1B68002B7B
:10ACC00011D0019B1B681846FFF7A3FE0490049B5C
:10ACD000002B01D0049B37E0019B1A681D4B1068C4
:10ACE000516803C308E01B48FFF797FE0490049BDC
:10ACF000002B01D0049B27E00023059320E0059A58
:10AD000013469B0013449B00134A13440393039878
:10AD1000FFF7CAFE059B5B01104A1A44039B5A6069
:10AD2000039B04330E4A0021184606F089FA04906A
:10AD3000049B002B01D0032306E0059B0133059300
:10AD4000059B002BDBD00023184607B030BD00BFA9
:10AD5000F435002010360020E0350020C0350020FA
:10AD6000E1AB020000B587B003460091ADF80630B4
:10AD7000009B5B7A002B1AD1009B1B7A002B03D11E
:10AD8000164B5B68059302E0144B9B680593009B90
:10AD90005B68BDF806200599184606F077FA04901E
:10ADA000049B002B16D00498FFF7E8FE12E0009BEE
:10ADB00000221A72094B5B69002B0BD001238DF81E
:10ADC0000C30BDF80630ADF80E30044B5B6903AAB9
:10ADD0001046984700BF07B05DF804FBF43500202B
:10ADE00000B585B00190019BDB7B8DF80F30019B96
:10ADF0009B88ADF80C309DF80F30012B2CD14FF60D
:10AE0000FF70FFF70FFE0290029B002B03D104207E
:10AE1000FFF7B4FE21E0BDF80C3019460298FFF7A9
:10AE200029FE029B03F10A00019B03F110014FF67A
:10AE3000FF7340F2F312FFF740FE03461A46029BEF
:10AE40005A72074BDB89002B07D1BDF80C300299F1
:10AE50001846FFF787FF00E000BF05B05DF804FB70
:10AE6000F435002000B587B00190019B9B88ADF8B8
:10AE70001630BDF816301846FFF7D4FD0490049B39
:10AE8000002B0ED0049B5B68184606F04CFA03902A
:10AE9000039B002B02D00398FFF770FE0498FFF786
:10AEA00003FE00BF07B05DF804FB000000B587B0EB
:10AEB0000190019B06330593059B1A88194BDB898A
:10AEC0009A422BD1059B5B89022B27D1019B9B8842
:10AED000ADF81230BDF812301846FFF7A3FD03900D
:10AEE000039B002B1AD0059B0C33184600F0FAF98F
:10AEF0000346002B06D0BDF8123003991846FFF721
:10AF000031FF0BE0039B5B68184606F00CFA0290D9
:10AF1000029B002B02D00298FFF730FE00BF07B063
:10AF20005DF804FBF435002000B585B00190019B6D
:10AF30009B88ADF80E30BDF80E301846FFF772FD55
:10AF40000290029B002B15D0029B03F10A00019B8B
:10AF500003F108014FF6FF7340F2F312FFF7ADFD66
:10AF600003461A46029B5A72BDF80E3002991846E3
:10AF7000FFF7F8FE00BF05B05DF804FB00B583B035
:10AF800001900091019B1B88502B12D0502B18DC94
:10AF9000122B12D0122B14DC102B02D0112B04D048
:10AFA0000FE00198FFF71CFF0CE00198FFF75AFF34
:10AFB00008E00198FFF77AFF04E00198FFF7B4FF7B
:10AFC00000E000BF00BF03B05DF804FB30B58FB0F8
:10AFD0000190009100230293009B002B1AD00023C4
:10AFE0000D9314E06B460D99184607F038F80346A8
:10AFF000002B09D0029B5A1C02920D9A92B25B0060
:10B000000EA90B4423F82C2C0D9B01330D930D9BA3
:10B01000132BE7D9019B1D4602AC0FCC0FC50FCCFB
:10B020000FC594E8070085E8070001980FB030BD10
:10B0300000B583B00346ADF80630BDF80630132BDB
:10B0400001D900230CE0BDF806301946064806F089
:10B05000D5FFBDF806301946044806F0CFFF01239E
:10B06000184603B05DF804FB203600201C36002093
:10B0700000B585B00346ADF80630002303930DE01C
:10B08000039B9B00094A13440433BDF80620114674
:10B09000184606F0CBFF039B01330393039B1D2B44
:10B0A000EED900BF00BF05B05DF804FB18360020E4
:10B0B00000B583B00346ADF80630BDF8063019463A
:10B0C000034806F0B3FF00BF03B05DF804FB00BF08
:10B0D0002036002030B59BB0184B9B68DB4318939B
:10B0E000164B5A6818AB1146184607F017F8189A0D
:10B0F0006B4611461846FFF769FF0DAC6D460FCD44
:10B100000FC40FCD0FC495E8070084E807000023A3
:10B1100019930BE0199B5B001AAA134433F8303CD7
:10B120001846FFF7A5FF199B013319930D9B199A38
:10B130009A42EFD300BF00BF1BB030BD18360020CD
:10B1400000B583B001900B46ADF8023013468DF880
:10B1500001309DF80130002B06D0BDF802301946B1
:10B16000019806F04BFF05E0BDF802301946019842
:10B1700006F05CFF00BF03B05DF804FB00B585B0CE
:10B1800001900091019B9B88ADF80E30019B1B88BC
:10B19000103B0A2B00F2868001A252F823F000BF78
:10B1A000CDB1020005B20200A5B20200A5B20200B4
:10B1B000A5B20200A5B20200A5B20200A5B202002B
:10B1C000A5B202006FB2020011B20200FFF782FFC7
:10B1D000BDF80E301846FFF72BFF034683F001033E
:10B1E000DBB2002B03D0042005F0C2FC57E0019B2A
:10B1F000DB7B022B53D1BDF80E3019462B4806F0ED
:10B20000FDFE4CE0BDF80E301846FFF751FF49E057
:10B21000019B1B7AC3F30313DBB28DF80D309DF84D
:10B220000D30032B8CBF01230023DAB2BDF80E30A2
:10B2300019461F48FFF784FF9DF80D30022B8CBF85
:10B2400001230023DAB2BDF80E3019461948FFF782
:10B2500077FF9DF80D30012B8CBF01230023DAB25C
:10B26000BDF80E3019461448FFF76AFF1AE0019B3B
:10B270001B7A002B15D1019B5B7AC3F3C003DBB2B1
:10B28000002B14BF012300238DF80C309DF80C20F7
:10B29000BDF80E3019460648FFF752FF01E000BF27
:10B2A00000E000BF00BF05B05DF804FB24360020BD
:10B2B000303600202C3600202836002082B0019045
:10B2C000019B1B781AB2019B01331B781B021BB236
:10B2D00013431BB29BB2184602B07047AADF7047F7
:10B2E00000BF184600B585B001900198FFF7E6FF52
:10B2F0000346ADF80E30BDF80E3003F00103002B0D
:10B3000014BF01230023DBB2184605B05DF804FB2F
:10B3100082B0034600918DF80730009A13786FF3DE
:10B3200003031370009A13786FF3071313709DF8DB
:10B330000730052B5BD801A252F823F055B3020069
:10B340006BB3020085B302009FB30200B9B30200E1
:10B35000D3B30200009A13786FF303031370009ABB
:10B3600013786FF30713137040E0009A13780121EC
:10B3700061F303031370009A1378012161F307133B
:10B38000137033E0009A1378012161F30303137003
:10B39000009A1378022161F30713137026E0009AD4
:10B3A0001378012161F303031370009A13780321CA
:10B3B00061F30713137019E0009A1378022161F307
:10B3C00003031370009A1378012161F307131370BC
:10B3D0000CE0009A1378022161F303031370009AC2
:10B3E0001378022161F30713137000BF00BF00BF81
:10B3F00002B0704700B595B0034602910192ADF8D6
:10B400000E30029B9B78002B03D101238DF81E3058
:10B4100003E0029B9B788DF81E30029B1B88ADF8E1
:10B420001C3006AB0322002118460EF079FD029B6A
:10B430005B7C06AA11461846FFF76AFF029B9A7CBE
:10B4400006AB013319461046FFF762FF029BDA7B19
:10B450009DF81A3062F3C3038DF81A30029B1A7CF0
:10B460009DF81A3062F304138DF81A30029B1A7B90
:10B470009DF81A3062F300038DF81A30029B1B7D91
:10B48000002B01D0022200E001229DF81A3062F365
:10B4900042038DF81A300DAB1C22002118460EF025
:10B4A0003FFD029B5B7B03F01003DBB2002B06D158
:10B4B000029B5B7B03F02003DBB2002B24D004ABA8
:10B4C0000322002118460EF02BFD029BDA7C04AB10
:10B4D000013319461046FFF71BFF9DF8103001227B
:10B4E00062F303038DF810309DF81030012262F3EF
:10B4F00007138DF810309DF81230012262F34203D9
:10B500008DF8123004AB1293029B5B7B8DF83430C4
:10B51000029B9B7B8DF8353008AB14220021184626
:10B520000EF0FEFC07AB089306AB0993029B9B88C9
:10B53000ADF82C30029B9B68002B06D0029BDB8869
:10B54000ADF82830029B9B680C93029B9B69002BF3
:10B550004FD005AB0322002118460EF0E1FC029B00
:10B560009B691B88ADF83C30029B9B695B88ADF8FA
:10B570003E30029B9B695B680E9305AB1193029B67
:10B580009B691B7B05AA11461846FFF7C1FE029B6B
:10B590009B695A7B05AB013319461046FFF7B8FE8D
:10B5A000029B9B699A7A9DF8163062F3C3038DF86B
:10B5B0001630029B9B69DA7A9DF8163062F3041309
:10B5C0008DF81630029B9B691A7A9DF8163062F34B
:10B5D00000038DF81630029B9B699B7B002B01D0EA
:10B5E000022200E001229DF8163062F342038DF83A
:10B5F0001630029BDB69002B02D0029BDB691093A3
:10B6000008AA0DA9BDF80E00019BFFF767FE0346CF
:10B61000184615B05DF804FB90DF704700BF184670
:10B62000A5DF704700BF1846B5DF704700BF18465A
:10B6300082B00190019BF7221A80019B17225A8049
:10B64000019B00221A71019B00225A71019BFB226F
:10B650009A71019B1B22DA7100BF02B07047000093
:10B6600030B589B003460A46ADF806301346ADF84A
:10B670000430BDF80430ADF81430BDF80430ADF836
:10B6800016300023ADF818300023ADF81A3003ABA4
:10B6900000221A609A8003AA05A9BDF80630184650
:10B6A000FFF7BAFF0790079B002B39D01E4A1F4BAC
:10B6B000D31ADB081B0443F00104BDF806500798B9
:10B6C00007F000FC03462A461949204608F0E5F930
:10B6D000BDF80C30002B03D1BDF80E30002B0ED07E
:10B6E000114A124BD31ADB081B0443F00100BDF8CA
:10B6F0000C301A46BDF80E300E4908F0CEF9BDF8F0
:10B700001030002B0CD0084A084BD31ADB081B045E
:10B7100043F00103BDF810200749184608F0ACF9C2
:10B72000079B184609B030BDA4AF030034AF030037
:10B7300018B1030064B10300A4B1030000B585B0E3
:10B7400001900091009B9B88ADF80E30BDF80E3043
:10B75000DB00019A134406330293019B1A79029B82
:10B760009A71009BDB7B012B02D0022B05D009E0F4
:10B77000019B1A88029B1A8004E0019B5A88029B55
:10B780001A8000BF029B9A79029BDB799A4208D902
:10B79000029B9B799AB2BDF80E3011461846FFF70E
:10B7A0005FFF00BF05B05DF804FB00B583B00190FA
:10B7B0000091009B9B88DB00019A134406331846D6
:10B7C000FFF736FF00BF03B05DF804FB00B587B09C
:10B7D00001900091009B9B88ADF81630009B5B891F
:10B7E000ADF81430BDF81630DB00019A134406336F
:10B7F0000493049B1B88BDF81420934228BF134672
:10B800009AB2049B5A80049B5B88172B38BF17237E
:10B810009AB2049B5A80019B1B69002B15D0049B94
:10B820005B79002B11D040F67723ADF80830BDF8D6
:10B830001630ADF80A30049B5B88ADF80C30019BE4
:10B840001B6902AA114601989847049B00225A716D
:10B85000049B00221A7100BF07B05DF804FB0000D2
:10B8600010B588B001900091009B9B88ADF81A300C
:10B87000009BDB88ADF81830BDF81A30DB00019A68
:10B88000134406330593BDF81830172B38BF172320
:10B89000ADF81830059B1B88BDF81820934228BFCF
:10B8A00013469AB2059B5A80059B00221A71059B8C
:10B8B0001A88BDF81A3011461846FFF7B5FE0790F2
:10B8C000079B002B0FD0174A174BD31ADB081B041A
:10B8D00043F00104079807F0F5FA03461A461349A6
:10B8E000204608F0C9F8059B5B79002B16D1019B17
:10B8F0001B69002B13D040F67723ADF80C30BDF850
:10B900001A30ADF80E30059B5B88ADF81030019B06
:10B910001B6903AA11460198984700E000BF08B0D0
:10B9200010BD00BFA4AF030034AF0300FCB103009F
:10B9300030B591B001900091009B04AC1D1D0FCD5E
:10B940000FC40FCD0FC495E8070084E80700BDF8C9
:10B950001030ADF83E30BDF81420BDF83E30D1B205
:10B96000019ADB0013440A465A73019B1B69002BA2
:10B9700019D002AB00221A609A804DF67A23ADF8F6
:10B980000830BDF83E30ADF80A30BDF83E30019ABF
:10B99000DB0013445B7B8DF80C30019B1B6902AA12
:10B9A00011460198984700BF11B030BD00B587B06F
:10B9B00001900091009B04330593059B1B88DB00DD
:10B9C000019A134406330493059B9B888DF80F302E
:10B9D000049B9B799DF80F20934228BF13468DF856
:10B9E0000E30059B1B889DF80E2092B2114618461A
:10B9F000FFF736FE00BF07B05DF804FB00B585B069
:10BA000001900091019B002B01D10E231DE0019BB1
:10BA1000009A1A61019BF7221A80019BF7225A8033
:10BA2000019BFB221A71002303930AE0039BDB00B6
:10BA3000019A134406331846FFF7FAFD039B0133BE
:10BA40000393039B002BF1D00023184605B05DF84B
:10BA500004FB000010B586B001900091009B059397
:10BA6000019B9B88ADF81230BDF81230002B40F0DE
:10BA70009880019B1B88552B48D0552B55DC242BD7
:10BA800032DC102B51DB103B142B4ED801A252F8A4
:10BA900023F000BFEFBA0200F9BA02002BBB02008C
:10BAA0002BBB02002BBB02002BBB02002BBB0200F6
:10BAB0002BBB02002BBB02002BBB02002BBB0200E6
:10BAC0002BBB02002BBB02002BBB02002BBB0200D6
:10BAD0002BBB02002BBB02002BBB02002BBB0200C6
