:020000022000DC
:106000000000012019620200016202000362020026
:10601000056202000762020009620200000000003F
:106020000000000000000000000000000B62020001
:106030000D620200000000000F6202001162020007
:1060400085CD02001362020059DB0200B9F502009F
:1060500031E802001362020055DA0200F1DC0200AE
:106060001362020013620200136202001362020054
:106070001362020013620200136202001362020044
:1060800013620200992A03001362020013620200E5
:1060900013620200136202002D5A03001362020011
:1060A0001362020013620200136202001362020014
:1060B00013620200136202000000000000000000F2
:1060C00013620200136202001362020045E802003C
:1060D000136202001362020013620200000000005B
:1060E00000000000000000000000000000000000B0
:1060F00000000000000000000000000000000000A0
:10610000000000000000000000000000000000008F
:10611000000000000000000000000000000000007F
:10612000000000000000000000000000000000006F
:10613000000000000000000000000000000000005F
:10614000000000000000000000000000000000004F
:10615000000000000000000000000000000000003F
:10616000000000000000000000000000000000002F
:10617000000000000000000000000000000000001F
:10618000000000000000000000000000000000000F
:1061900000000000000000000000000000000000FF
:1061A00000000000000000000000000000000000EF
:1061B00000000000000000000000000000000000DF
:1061C00000000000000000000000000000000000CF
:1061D00000000000000000000000000000000000BF
:1061E00000000000000000000000000000000000AF
:1061F000000000000000000000000000000000009F
:10620000FEE7FEE7FEE7FEE7FEE7FEE7FEE7FEE766
:10621000FEE7FEE700F002B8FFF7FCBF0F484FF0C3
:106220000701884385460E4880470E48016841F4BF
:1062300070010160BFF34F8FBFF36F8F00F01AB88A
:1062400009480A490A4A884207D0521A05D00378F9
:1062500001300B700131013AF9D170470000012083
:106260008196020088ED00E050C10300D82A00208A
:10627000D82A0020354936480A1A02D0072291430D
:106280008D46344934480A1A06D00722914381F3D7
:106290000988022282F3148830483149314A00F0DB
:1062A00044F831483149324A00F03FF83148324928
:1062B000324A00F03AF832483249334A00F035F8B1
:1062C00032483349334A00F030F833483349344ACE
:1062D00000F02BF833483449344A00F026F83448AB
:1062E0003449002200F02CF833483449002200F0F1
:1062F00027F833483349091A082902DB00220260D3
:106300004160314A90471F481F49884205D00268C2
:10631000043003B4904703BCF7E700208646EC4600
:1063200000200021294A9047FEE7884207D0521AF0
:1063300005D0037801300B700131013AF9D1704773
:10634000884202D002700130FAE770470000012055
:1063500000E000200000012000000120B0F3030055
:10636000D82A00209C2C0020D0630200D0630200B9
:10637000F4BF0300B0F30300D82A0020D82A00207D
:1063800050C1030050C1030050C1030050C10300BD
:1063900050C1030050C1030050C1030050C10300AD
:1063A000B0F3030074F503009C2C00209C2C00200B
:1063B0009C2C0020544E0020544E0020584E0020AB
:1063C000584E0020586E00204162020045740200C1
:1063D00090B003900291019200230C9300238DF85A
:1063E0002F3000230A9300230993002308930023EE
:1063F0000F9300230E9311E0424B1A680E9B1A4430
:10640000414B1B68591C404801601278D2B240339E
:106410006B4403F8302C0E9B01330E930E9B082B1C
:10642000EADD03230D9329E004AA0D9B13441B7896
:10643000DBB21A040D9B013340336B4413F8303C3C
:10644000DBB21B0213430D9A023240326A4412F847
:10645000302CD2B213430893089B1B020893089B6D
:106460000A930A9B1B120A930F9B5A1C0F92019AC4
:106470000A9942F823100D9B03330D930D9B082BB3
:10648000D2DD9DF81230DBB21A469DF81130DBB236
:106490001B021A439DF81030DBB21B0413430C930C
:1064A0000C9BDB1303F01F030C930C9B8DF82F3018
:1064B0009DF81330DBB21A049DF81430DBB21B02D6
:1064C00013439DF81520D2B213430993099B1B0275
:1064D0000993099A019B5A629DF82F3003F01F031C
:1064E000002B04D0019B012283F8202003E0019BB4
:1064F000002283F82020044B00221A600023184653
:1065000010B07047A42C0020A82C002000B587B044
:10651000039002910192029800F0F4F9642002F0D5
:1065200016FB019800F010FA019800F01DFA01988E
:1065300000F02AFA039800F037FA039800F03FFAC7
:10654000322002F004FB039800F04FFA4FF49670EB
:1065500002F0FDFA039A3F49002000F08FF93D4B0D
:106560001B78732B01D002236FE0039A03210120D3
:1065700000F0D6F80A2002F0EAFA039AA0210220DD
:1065800000F0CEF80A2002F0E2FA039A102103206C
:1065900000F0C6F80A2002F0DAFA039A402104203B
:1065A00000F0BEF80A2002F0D2FA039A602105201A
:1065B00000F0B6F80A2002F0CAFA039A2C2106204D
:1065C00000F0AEF80A2002F0C2FA039A0021072078
:1065D00000F0A6F80A2002F0BAFA039AF221092084
:1065E00000F09EF80A2002F0B2FA039A03210A2072
:1065F00000F096F80A2002F0AAFA039800F0EAF9EF
:106600000A2002F0A4FA019800F0AEF9124A04AB95
:106610001268114619800233120C1A7003238DF888
:10662000113004AB0D4A1946142007F041F80590CB
:10663000059B002B04D00A4AAD2105980AF072FF91
:106640000121142007F0B0F80023184607B05DF8C8
:1066500004FB00BF9C2C0020ECC10300016A020077
:1066600050C1030000B585B00190019BDBB2002151
:10667000184602F057FA002303930CE0FF2002F0C3
:1066800071FA034619460B4A039B13440A461A70D3
:10669000039B01330393039B082BEFDD019BDBB2CC
:1066A0000121184602F03EFA024B184605B05DF88B
:1066B00004FB00BFAC2C002000B583B00346009162
:1066C0008DF80730009BDBB20021184602F02AFA51
:1066D000022002F03CFA009BDBB20121184602F0D6
:1066E00021FA022002F033FA009BDBB200211846A7
:1066F00002F018FA022002F02AFA9DF80730184634
:1067000002F030FA022002F022FA009BDBB20121F3
:10671000184602F007FA00BF03B05DF804FB000062
:1067200000B585B0034600928DF807300B468DF812
:1067300006309DF80730013B0A2B63D801A252F8BE
:1067400023F000BF716702007F67020099670200B3
:10675000056802000568020005680200B3670200D0
:10676000C1670200CF670200DD670200F767020021
:106770009DF8063023F078038DF8063043E09DF84D
:10678000063023F004038DF806309DF8063063F0E0
:106790007F038DF8063036E09DF8063023F00203C3
:1067A0008DF806309DF8063043F010038DF8063062
:1067B00029E09DF8063003F03F038DF8063022E013
:1067C0009DF8063003F05F038DF806301BE09DF85E
:1067D000063043F002038DF8063014E09DF80630D1
:1067E00023F078038DF806309DF8063043F001035E
:1067F0008DF8063007E09DF8063003F00F038DF8A2
:10680000063000E000BF9DF8073043F040038DF8EC
:106810000F30009BDBB20021184602F083F9022002
:1068200002F095F9009BDBB20121184602F07AF9DB
:10683000022002F08CF9009BDBB20021184602F026
:1068400071F9022002F083F99DF80F30184602F02A
:1068500089F9002002F086F99DF80630184602F00A
:1068600081F9022002F073F9009BDBB20121184686
:1068700002F058F900BF05B05DF804FB00B587B021
:106880000346029101928DF80F309DF80F3043F0CE
:1068900020038DF81730019BDBB20021184602F06F
:1068A00041F9022002F053F9019BDBB201211846A5
:1068B00002F038F9022002F04AF9019BDBB2002114
:1068C000184602F02FF9022002F041F99DF8173026
:1068D000184602F047F9002002F044F9002002F0C7
:1068E00041F903461A46029B1A70022002F02FF962
:1068F000019BDBB20121184602F014F900BF07B07A
:106900005DF804FB00B583B00190019BDBB201216F
:10691000184602F007F9642002F019F9019BDBB276
:106920000021184602F0FEF8642002F010F9019BE5
:10693000DBB20121184602F0F5F8642002F007F9F5
:1069400000BF03B05DF804FB00B583B00190019B6C
:10695000DBB20021184602F0E5F8142002F0F7F847
:1069600000BF03B05DF804FB00B583B00190019B4C
:10697000DBB20121184602F0D5F8142002F0E7F846
:1069800000BF03B05DF804FB00B583B00190019B2C
:10699000DBB20021184602F0C5F8642002F0D7F8F7
:1069A00000BF03B05DF804FB00B583B0019001990E
:1069B0000820FFF781FE00BF03B05DF804FB00B5BF
:1069C00083B0019001990A20FFF776FE00BF03B063
:1069D0005DF804FB00B583B0019001991020FFF72A
:1069E0006BFE00BF03B05DF804FB00B583B00190FF
:1069F00001991120FFF760FE00BF03B05DF804FBB2
:106A000000B583B001900B468DF803301F20FFF7CF
:106A100029FE0346054A1360054B1B680133044AEF
:106A2000136000BF03B05DF804FB00BFA42C00207E
:106A3000A02C002000B585B001900091009B002B98
:106A400015D0019B002B12D0009B0393019B1B8848
:106A5000102B02D0502B05D00AE00199039800F0CA
:106A60000AF805E00199039800F00BF800E000BF78
:106A700005B05DF804FB82B00190009100BF02B048
:106A8000704782B00190009100BF02B0704700B51E
:106A900085B001900091009B002B15D0019B002B2D
:106AA00012D0009B0393019B1B88102B02D0502B0C
:106AB00005D00AE00199039800F00AF805E0019971
:106AC000039800F00BF800E000BF05B05DF804FB90
:106AD00082B00190009100BF02B0704782B0019077
:106AE000009100BF02B0704700B585B001900091E1
:106AF000009B002B15D0019B002B12D0009B039311
:106B0000019B1B88102B02D0502B05D00AE0019965
:106B1000039800F00AF805E00199039800F00BF8DB
:106B200000E000BF05B05DF804FB82B00190009169
:106B300000BF02B0704782B00190009100BF02B068
:106B4000704708B51E2213211F20FFF7DFFC034604
:106B5000184608BD00B58FB0019003AB1A461F213F
:106B60001420FFF735FC03468DF837309DF8373099
:106B7000002B1BD1049B1B121AB20F4B1A800C9BCB
:106B80001B121AB20D4B1A809DF82C3083F00103B2
:106B9000DBB2002B05D10A4B00221A80094B0022E0
:106BA0001A80054BB3F90020019B1A809DF83730FD
:106BB00018460FB05DF804FBB62C0020BA2C00205C
:106BC000B82C0020BC2C002000B585B00190019BA2
:106BD000002B0AD0074B43F001030393019B9B0159
:106BE0000293039B0298984700E000BF05B05DF850
:106BF00004FB00BFC0C2030000B583B00190019B3D
:106C00000433184608F0A8F800BF03B05DF804FB91
:106C100000B589B0059003921A460B468DF81330E3
:106C200013468DF8123000230793059B181D9DF81D
:106C300012209DF813109DF8283000931346039AF4
:106C400008F0D0FB0790079B184609B05DF804FBDD
:106C500000B587B0039001921A460B468DF80B30B1
:106C600013468DF80A3000230593039B181D9DF8E9
:106C70000A309DF80B10019A08F0DCFB0590059B8B
:106C8000184607B05DF804FB00B58FB00390029181
:106C9000009313468DF8073000230D93029B059354
:106CA0009DF807300693009B07939DF840300893AA
:106CB000039B043305A90022184607F023FD0D901D
:106CC0000D9B18460FB05DF804FB000000B583B0C3
:106CD0000190019B1B68184600F0B5F80346002B95
:106CE00004D105494FF4F67000F054FF4FF0A04373
:106CF000184603B05DF804FBF0C1030000B585B091
:106D00000190084611461A4603468DF803300B469B
:106D10008DF8023013468DF8013001AB1846FFF7AD
:106D2000D5FF03909DF803209DF802305B001A43C5
:106D30009DF801309B001A439DF818301B0242EA6F
:106D400003019DF81C301B04019A1943039B02F5B3
:106D5000E07243F8221000BF05B05DF804FB00B5F7
:106D600085B00390002301930023009300230122A8
:106D700001210398FFF7C2FF00BF05B05DF804FBD7
:106D800000B585B003900B468DF80B309DF80B30A5
:106D90000022019200220092002200210398FFF7B6
:106DA000ADFF00BF05B05DF804FB00B585B00190F4
:106DB00001AB1846FFF78AFF0390019B012202FAFC
:106DC00003F31946039800F02AF800BF05B05DF8F8
:106DD00004FB00B585B0019001AB1846FFF776FFC4
:106DE0000390019B012202FA03F31946039800F075
:106DF00020F800BF05B05DF804FB00B583B001903A
:106E00000091009B002B03D10198FFF7E2FF02E005
:106E10000198FFF7CAFF00BF03B05DF804FB82B022
:106E200001900091019B009AC3F8082500BF02B0B1
:106E3000704782B001900091019B009AC3F80C2525
:106E400000BF02B0704784B00190019B5B090293C0
:106E500000230393029B002B03D14FF0FF330393D6
:106E600000BF019B03F01F030193039A019B22FAC9
:106E700003F303F00103002B14BF01230023DBB253
:106E8000184604B0704700B583B00190019B002BF9
:106E90000AD04FF47A70FFF797FE019B013B0193F4
:106EA000019B002BF5D100E000BF03B05DF804FBAF
:106EB00008B500F079F800F005F900F0A3F800F04B
:106EC000D1F800BF08BD000000B587B003460491AB
:106ED00003928DF81730039BDBB29DF81710002248
:106EE0000092049A0648FFF793FE0346002B01D058
:106EF000002300E00123184607B05DF804FB00BF43
:106F0000D82A002000B585B00346029101928DF881
:106F10000F30019BDBB29DF80F10029A0648FFF775
:106F200097FE0346002B01D0002300E00123184602
:106F300005B05DF804FB00BFD82A002000B583B07F
:106F400003460A468DF8073013468DF806309DF843
:106F500007309DF8062011461846FFF74EFF00BF88
:106F600003B05DF804FB000000B587B00590049104
:106F70001346ADF80E30BDF80E30DAB2BDF80E3063
:106F8000DBB20093049B05990648FFF77DFE03469C
:106F9000002B01D0022300E00023184607B05DF863
:106FA00004FB00BFE82A002000B587B06B46002232
:106FB0001A605A609A60DA601B2300931A230193C7
:106FC0004FF0CD63029302238DF80C306946002305
:106FD00000220A4805F06EFC0590059B0493049B73
:106FE000002B04D0064A892104980AF09BFA034832
:106FF000FFF702FE00BF07B05DF804FBD82A0020AF
:1070000020C2030010B586B0134B6C460FCB84E84A
:107010000F0019238DF801301C238DF802301D2339
:107020008DF8003001238DF80C304FF0805302931F
:10703000694600230022094805F0C0FA0590059B27
:107040000493049B002B04D0054AA92104980AF05C
:1070500069FA00BF06B010BDB0C20300E82A0020E4
:1070600020C2030010B586B0134B6C460FCB84E8EA
:107070000F0005238DF801300C238DF80230022318
:107080008DF8003000238DF80C304FF080530293C0
:10709000694600230022094805F090FA0590059BF7
:1070A0000493049B002B04D0054AC22104980AF0E3
:1070B00039FA00BF06B010BDB0C20300F82A0020A4
:1070C00020C2030000B583B006F08EFA0190019B48
:1070D0000093009B002B04D0174AD32100980AF09C
:1070E00021FA03211420FFF74BFE0420FFF737FE9F
:1070F0001F20FFF734FE1320FFF731FE1E20FFF79D
:107100002EFE1720FFF72BFE01210420FFF716FFAC
:1071100001211F20FFF712FF01211320FFF70EFFAF
:1071200000211E20FFF70AFF01211720FFF706FFAD
:1071300000BF03B05DF804FB20C2030000B585B0BA
:107140000190019B002B0AD0074B43F001030393EE
:10715000019B9B010293039B0298984700E000BFAC
:1071600005B05DF804FB00BF50C4030000B583B058
:107170000190019B1B68184600F0C4F80346002BE1
:1071800004D105494FF4F67000F004FD4FF0A04320
:10719000184603B05DF804FBC8C2030000B585B013
:1071A0000190084611461A4603468DF803300B46F7
:1071B0008DF8023013468DF8013001AB1846FFF709
:1071C000D5FF03909DF803209DF802305B001A4321
:1071D0009DF801309B001A439DF818301B0242EACB
:1071E00003019DF81C301B04019A1943039B02F50F
:1071F000E07243F8221000BF05B05DF804FB00B553
:1072000085B0039000230193002300930023012203
:1072100001210398FFF7C2FF00BF05B05DF804FB32
:1072200000B585B003900B468DF80B309DF80B3000
:107230000022019200220092002200210398FFF711
:10724000ADFF00BF05B05DF804FB00B585B001904F
:1072500001AB1846FFF78AFF0390019B012202FA57
:1072600003F31946039800F043F800BF05B05DF83A
:1072700004FB00B585B0019001AB1846FFF776FF1F
:107280000390039BD3F804350293029BDA43019BDE
:10729000012101FA03F31A40039BC3F80825019B5F
:1072A00001229A40029B1A40039BC3F80C2500BFA1
:1072B00005B05DF804FB00B585B0019001AB184640
:1072C000FFF754FF0390039800F00AF80246019B71
:1072D00022FA03F303F00103184605B05DF804FB3E
:1072E00082B00190019BD3F81035184602B0704768
:1072F00082B001900091019B009AC3F80C2500BF59
:1073000002B0704784B00190019B5B090293002397
:107310000393029B002B03D14FF0FF33039300BF75
:10732000019B03F01F030193039A019B22FA03F3CD
:1073300003F00103002B14BF01230023DBB2184626
:1073400004B0704772DF704700BF184673DF7047A4
:1073500000BF184676DF704700BF18467ADF7047D7
:1073600000BF18467CDF704700BF18467FDF7047BC
:1073700000BF18468FDF704700BF1846B1DF704767
:1073800000BF184600B583B00190019B002B0AD0C6
:107390004FF47A70FFF7D2FE019B013B0193019BF2
:1073A000002BF5D100E000BF03B05DF804FB08B589
:1073B000012001F045FD1120FFF721FF03211820D6
:1073C000FFF72EFF1120FFF740FF00BF08BD08B5F3
:1073D0001820FFF770FF0346002B0BD16420FFF746
:1073E000D1FF1820FFF767FF0346002B02D11120C1
:1073F000FFF73FFF00BF08BD0C4B4FF000021A60C3
:107400000B4B4FF000021A600A4B4FF000021A605B
:10741000094B4FF000021A60084B4FF000021A604F
:10742000074B4FF000021A6000BF70475C3200202B
:107430004C320020483200205032002058320020C8
:107440005432002010B586B000F0C8FBFFF7AFFF44
:1074500001F008F801F064FB00F0DEFB01F026FB10
:1074600001F016F801F062F801F034F901F078F853
:1074700001F09CF9924A934BD31ADB081B0443F0AA
:107480000303914918460DF0BDFA904813F02AFD08
:1074900001F0C4F90023059307E08D4A059B002104
:1074A00022F81310059B01330593059B082BF4DD8F
:1074B000884B4FF085421A60FFF779FF11F02CFDE1
:1074C00000F0AAFBFFF7F4FCFFF73BFB0EF00CFD0E
:1074D00000F02EFB00238DF813307F497F4813F016
:1074E000B9FB03467E4A1360FFF771FF7D48FFF743
:1074F00031FB0346002BF7D17A4BB3F900300193EF
:10750000774B1B68019A7849184613F0B9FB754B05
:10751000B3F9003007EE903AF8EEE77ACDED007A55
:10752000724B1B785A1CD1B2704A1170704A9B0082
:107530001344009A1A606D4B1B78062B02D96B4BD3
:1075400000221A7000238DF8123013E09DF81230DB
:10755000674A9B00134493ED007A664BD3ED007AA3
:1075600077EE277A634BC3ED007A9DF81230013332
:107570008DF812309DF81230072BE7D95D4B93ED53
:10758000007A5D4B1B78F2EE006AC7EE267A5B4A02
:107590009B001344C3ED007A564BD3ED007AB2EE54
:1075A000007AC7EE876A544B1B785A1CD1B2524AF4
:1075B00011701A4616EE904A4FF00000504BD10061
:1075C00019440C60D2001344043318604B4B0393EE
:1075D0002BE0039BD3ED007AF5EEC07AF1EE10FAC2
:1075E00005D5039BD3ED007AF1EE677A02E0039BA9
:1075F000D3ED007A434B93ED007A77EE877A414BD7
:10760000C3ED007A039B93ED007A039BD3ED007AE0
:1076100027EE277A3C4BD3ED007A77EE277A3A4B68
:10762000C3ED007A039B04330393039BD3ED007AED
:10763000F5EE407AF1EE10FACBD1324B93ED007AB1
:10764000DFED326AC7EE267A314BC3ED007A2E4B5E
:1076500093ED007ADFED2F6AC7EE267A2E4BC3ED4D
:10766000007A294BD3ED007A9FED287AC7EE876A1E
:1076700016EE900A12F0D2FA02460B4643EC102B9B
:1076800012F02AFF53EC102B1046194612F0E0FAC4
:107690000346224A1360FFF7AFFE174B1B78402BBF
:1076A00040F08B80144B1A781D4B1A701C4B1B78C2
:1076B0001946134800F0B1FC0023029335E000BFE7
:1076C000C8C0030088C003000CC3030024C3030028
:1076D00004320020883500203CC3030040C303006F
:1076E000A03500200032002074C303008032002047
:1076F000603200205C32002084330020843200207D
:10770000883300204C32002050320020000080429C
:107710004832002000007C425432002058320020C1
:107720009C350020029B013302938A4B1B781A463A
:10773000029B9342F6D3874B1B781A46864BD3EDB8
:10774000007AB0EE670A1146844800F04BFDF0EE77
:10775000407A834BC3ED007A7E4B1B781A467E4BF2
:10776000D3ED007AB0EE670A11467C4800F08DFD3B
:10777000F0EE407A7B4BC3ED007A764B1B7807EE38
:10778000903AF8EE677A744B93ED007AF0EE470A80
:10779000B0EE670A714800F010FEF0EE407A724BCE
:1077A000C3ED007A6B4B1B7819466C4800F0B9FCAE
:1077B000F0EE407A6D4BC3ED007A6D4B1B783F2B9A
:1077C00002D96B4B00221A706A4B1A786A4BA3FBE2
:1077D000021319090B469B000B449B00D31ADBB222
:1077E000002B40F0AD800EF001FC0346002B01D0D1
:1077F00000F09EF961480EF0A5FB0346002B00F057
:107800009F805E4B1B78032B69D0032B00F39A807B
:10781000012B02D0022B31D094E0584BD3ED057AE6
:107820009FED577A67EE877AFDEEE77A17EE903A8A
:107830001AB2544B1A80514BD3ED067A9FED507A11
:1078400067EE877AFDEEE77A17EE903A1AB24D4B63
:107850005A804A4BD3ED077A9FED497A67EE877AD3
:10786000FDEEE77A17EE903A1AB2464B9A809DF8F1
:10787000133043F001038DF8133064E03F4BD3ED38
:10788000057A9FED417A67EE877AFDEEE77A17EE8B
:10789000903A1AB23B4BDA80384BD3ED067A9FED23
:1078A0003A7A67EE877AFDEEE77A17EE903A1AB2E7
:1078B000344B1A81314BD3ED077A9FED337A67EE63
:1078C000877AFDEEE77A17EE903A1AB22D4B5A817D
:1078D0009DF8133043F002038DF8133033E0274B4B
:1078E000D3ED057A9FED267A67EE877AFDEEE77A8B
:1078F00017EE903A1AB2234B9A81204BD3ED067AB9
:107900009FED1F7A67EE877AFDEEE77A17EE903AE1
:107910001AB21C4BDA81194BD3ED077A9FED187A16
:1079200067EE877AFDEEE77A17EE903A1AB2154BBA
:107930001A829DF8133043F004038DF8133002E0EF
:1079400000BF00E000BF0B4B1B780133DAB2094BDC
:107950001A70C9E59C350020883500208833002046
:107960008C3500209035002094350020983500207B
:107970008433002016320020CDCCCCCC183200202D
:1079800000007A440432002000401C4600B585B057
:1079900003460A468DF807301346ADF80430BDF8AB
:1079A00004301B0B9BB2DBB203F00F03DBB28DF88C
:1079B0000C30BDF804309B099BB2DBB203F03F03EF
:1079C000DBB28DF80D30BDF80430DBB203F03F03BD
:1079D000DBB28DF80E309DF807309B08DBB203F068
:1079E0000703DBB28DF808309DF807301B01DBB2CE
:1079F00003F03003DBB28DF809309DF80730002B1F
:107A000034D09DF80820464B1B781343DBB2184650
:107A10000AF080FB0346002BF3D19DF80920414B6F
:107A20001B781343DAB29DF80C301343DBB21846CF
:107A30000AF070FB0346002BEFD19DF80D20394B67
:107A40001B781343DBB218460AF064FB0346002B95
:107A5000F3D19DF80E20334B1B781343DBB218464D
:107A60000AF058FB0346002BF3D154E0BDF8043074
:107A700023F07F03002B09D1BDF80430DBB2184698
:107A80000AF048FB0346002BF6D144E0BDF8043071
:107A900023F4FF6323F00703002B18D19DF80D207A
:107AA000214B1B781343DBB218460AF033FB034625
:107AB000002BF3D19DF80E201A4B1B781343DBB239
:107AC00018460AF027FB0346002BF3D123E09DF86C
:107AD0000C20164B1B781343DBB218460AF01AFB36
:107AE0000346002BF3D19DF80D200E4B1B7813435A
:107AF000DBB218460AF00EFB0346002BF3D19DF8CB
:107B00000E20084B1B781343DBB218460AF002FB29
:107B10000346002BF3D100BF05B05DF804FB00BFA6
:107B200056C4030057C4030058C4030059C40300DB
:107B300000B583B00023019322E0154A019B134452
:107B40001B788DF803309DF8033041F288311846D8
:107B50000EF01AFA034683F00103DBB2002B0CD0BF
:107B60009DF803301BB26FEAC3436FEAD3431BB2E5
:107B70009BB219461E20FFF709FF019B01330193B9
:107B8000019B022BD9D900BF00BF03B05DF804FBF5
:107B90005CC4030000B583B003460091ADF8063025
:107BA000BDF80630009A1946034809F0BBFC00BF37
:107BB00003B05DF804FB00BFEFBEADDE00B583B0DF
:107BC0000190054A40F2E921019809F0ABFC00BFA1
:107BD00003B05DF804FB00BF78C3030000B583B0B9
:107BE0004FF480410A480CF01BFC0190019B00936C
:107BF000009B002B05D0074A40F23931009809F06C
:107C000091FC0CF08FFB00BF03B05DF804FB00BFDC
:107C1000CD1E030078C3030000B583B00BF0C4FF92
:107C20000190019B0093009B002B05D0044A40F279
:107C30004B31009809F076FC00BF03B05DF804FBFF
:107C400078C3030084B001900023039305E0039BF5
:107C500001330393019B5B080193019B002BF6D139
:107C6000039B013B184604B0704786B00390029115
:107C70000192002305931EE0059BDB00039A1A4442
:107C8000059B1B0102990B441168526819605A60E8
:107C9000019B5A08059B1344DB00039A1A44059B79
:107CA0001B01083302990B441168526819605A602D
:107CB000059B01330593019B5B08059A9A42DBD330
:107CC00000BF00BF06B070472DE9F04F8BB00590A4
:107CD00004910392B0EE407AF0EE607A17EE102A2B
:107CE00017EE903A01920293019B0893029B07932F
:107CF00000230993AEE0099BDB00059A134493ED42
:107D0000006AD3ED016A039B5A08099B1344DB0008
:107D1000059A134493ED007AD3ED017A099B1B0178
:107D2000049A134436EE077A76EEA77A83ED007A4A
:107D3000C3ED017A099BDB00059A134493ED007AA9
:107D4000039B5A08099B1344DB00059A1344D3EDA7
:107D5000007A77EE677A17EE900A11F05FFF80469F
:107D60008946099BDB00059A134493ED017A039B36
:107D70005A08099B1344DB00059A1344D3ED017A9A
:107D800077EE677A17EE900A11F048FF82468B462D
:107D9000DFED361A9FED361ADDED070A9DED080A74
:107DA00011F0E0F8B0EE407AF0EE607A17EE103A9B
:107DB00017EE906A184611F031FF04460D46304622
:107DC00011F02CFF02460B462046294641EC160BCB
:107DD00043EC172BB0EE460AF0EE660AB0EE471AF7
:107DE000F0EE671A12F0B6FDB0EE407AF0EE607A6F
:107DF000B0EE416AF0EE616AB0EE463AF0EE663AF5
:107E0000B0EE472AF0EE672A4BEC11AB49EC108B31
:107E100011F0DAF9B0EE406AF0EE606AB0EE417A45
:107E2000F0EE617A53EC162B57EC176B104619469F
:107E300011F00EFF04463046394611F009FF0146A5
:107E4000099B1B010833049A13441C605960099B69
:107E500001330993039B5B08099A9A42FFF44BAFE5
:107E600000BF00BF0BB0BDE8F08F00BFDB0FC9C083
:107E70000000008084B00190009100230393002350
:107E8000029311E0019A029B22FA03F303F001022C
:107E9000009B591E029BCB1A02FA03F3039A134369
:107EA0000393029B01330293029A009B9A42E9DBFF
:107EB000039B184604B0704700B589B00390029147
:107EC00001920198FFF7BEFE0590059B023B0793C8
:107ED00031E0019A079B22FA03F3049300230693EF
:107EE0001FE0039B03F001039B00029A13441A68EE
:107EF000069BDB00D018039B03F00103002B01D18C
:107F0000042300E00023029A13441A68069BDB0056
:107F10001344049A1946FFF7A8FE069A049B1344DB
:107F20000693069A019B9A42DBD3079B013B07937A
:107F3000039B01330393079B002BCADA039B18466C
:107F400009B05DF804FB00B58BB00390029101927B
:107F50000198FFF777FE0790079B013B099354E0D8
:107F6000019A099B22FA03F306930023089342E047
:107F7000089A069BB2FBF3F309991846FFF77AFFBC
:107F800007EE900AF8EE676A0222099B02FA03F3F1
:107F900007EE903AB8EEE77AC6EE877ACDED047A2E
:107FA0004FF000030593039B03F001039B00029A2B
:107FB00013441A68089BDB00D018039B03F00103ED
:107FC000002B01D1042300E00023029A13441A6815
:107FD000089BDB0013449DED047ADDED057AB0EEDD
:107FE000470AF0EE670A069A1946FFF76DFE089AEF
:107FF000069B13440893089A019B9A42B8D3099BA5
:10800000013B0993039B01330393099B002BA7DAE0
:10801000039B18460BB05DF804FB00B587B00190D8
:108020000091009B002B01D1002340E0009B5A1ED1
:10803000009B1340002B01D0012338E0019B0393E8
:10804000009BDB00184612F029FE03460493049BB4
:10805000002B02D14FF0FF3329E00023059303AB3F
:10806000009A19460598FFF727FF059003AB009A81
:1080700019460598FFF767FF059003AB009A19466C
:108080000598FFF719FF0590059B03F001039B007E
:1080900018336B4453F80C1C009BDB001A46019804
:1080A00012F006FF049B184612F0B0FE002318469B
:1080B00007B05DF804FB70B582B0B0EE407AF0EE28
:1080C000607A17EE102A17EE903A00920193009B07
:1080D000019E184611F0A2FD04460D46334618468F
:1080E00011F09CFD02460B462046294641EC160B3A
:1080F00043EC172BB0EE460AF0EE660AB0EE471AD4
:10810000F0EE671A12F082FC53EC102B1046194661
:1081100011F09EFD034607EE903AB0EE670A02B0FA
:1081200070BD2DE9D04F2DED028B86B001900091EE
:108130004FF0000305930023049345E0049BDB000C
:10814000019A13441A685C68104611F067FD804676
:108150008946204611F062FD82468B46049BDB0077
:10816000019A13441A685C68104611F057FD41ECFF
:10817000180B204611F052FD02460B46164683F0BE
:10818000004747EC136BB0EE482AF0EE682A4BEC40
:1081900011AB49EC108B11F017F8B0EE407AF0EE0D
:1081A000607A53EC172B1046194611F051FD034627
:1081B00003939DED057ADDED037A77EE277ACDED19
:1081C000057A049B01330493049B009A9A42B5D824
:1081D000059B07EE903AB0EE670A06B0BDEC028B45
:1081E000BDE8D08F00B589B0039002918DED010AF2
:1081F0004FF0000307930023069332E0069BDB0059
:10820000039A13441A685B6807EE102A07EE903A47
:10821000B0EE470AF0EE670AFFF74DFF8DED050A55
:10822000069B07EE903AB8EEE77ADDED017A67EE4D
:10823000276A029B07EE903AB8EE677AC6EE877A15
:10824000CDED047A9DED057ADDED047A67EE277AAF
:108250009DED077A77EE277ACDED077A069B0133FD
:108260000693069B029A9A42C8D8029B07EE903A60
:10827000F8EE677A9DED077AC7EE276AF0EE667A28
:10828000B0EE670A09B05DF804FB2DE9F0438DB04C
:1082900000AFF860B96087ED010A6B461E46B96809
:1082A0000B46013BBB620023884699464FF0000213
:1082B0004FF000034FEA491343EAD8634FEA4812EC
:1082C00000230C461D464FF000024FF000036B01E7
:1082D00043EAD46362018B000733DB08DB00ADEBBC
:1082E000030D6B4603339B089B007B620023FB62FC
:1082F00032E0FB6ADB00FA6813441A685B6807EE39
:10830000102A07EE903AB0EE470AF0EE670AFFF740
:10831000D2FE87ED060AFB6A07EE903AB8EE677A5E
:10832000D7ED017A67EE276ABB6807EE903AB8EEA0
:10833000677AC6EE877AC7ED057A97ED067AD7EDAC
:10834000057A67EE277A7A6AFB6A9B001344C3EDCD
:10835000007AFB6A0133FB62FA6ABB689A42C8D3AF
:10836000BB685B083B62BB6803F00103002B16D1BE
:108370003B6A013B7A6A9B00134493ED007A7A6A68
:108380003B6A9B001344D3ED007A37EE277AF0EE78
:10839000006AC7EE267AC7ED077AFB6904E07A6ABD
:1083A0003B6A9B0013441B68B54607EE903AB0EE5B
:1083B000670A3437BD46BDE8F08300B58BB0039043
:1083C0008DED020ACDED010A4FF0000309934FF045
:1083D000000308930023079330E0079BDB00039A18
:1083E00013441A685B6807EE102A07EE903AB0EE65
:1083F000470AF0EE670AFFF75EFE8DED060A079B5F
:1084000007EE903AB8EE677ADDED017A67EE276AFB
:108410009DED027AC6EE877ACDED057A9DED067A5E
:10842000DDED097AB4EEE77AF1EE10FA03DD069B92
:108430000993059B0893079B01330793079B07EE5E
:10844000903AF8EE677A9DED027AB4EEE77AF1EEB3
:1084500010FAC2DC089B07EE903AB0EE670A0BB048
:108460005DF804FB00B583B009F00EFC0190019BA0
:108470000093009B002B05D0044A40F27441009801
:1084800009F050F800BF03B05DF804FB78C30300A7
:1084900000B587B09DF80030012262F303038DF828
:1084A00000309DF80030012262F307138DF8003090
:1084B0006B4607221B491846FEF754FF0590059BA3
:1084C0000493049B002B05D0174A4FF49161049844
:1084D00009F028F801AB08220021184612F059FDD6
:1084E0001023ADF804303C23ADF806300023ADF87E
:1084F00008304FF4C873ADF80A3001AB1846FEF7E8
:108500002DFF0590059B0393039B002B05D0064A86
:1085100040F29241039809F005F800BF07B05DF8FA
:1085200004FB00BF00C4030078C3030000B583B0A0
:108530000021094803F074FB0190019B0093009B0C
:10854000002B05D0054A40F29B41009808F0EAFF55
:1085500000BF03B05DF804FB542D002078C3030076
:1085600000B5ABB041F22353ADF81C30384B9B7CC7
:108570008DF81E3017AB3C220021184612F009FD81
:1085800002238DF85C3001238DF85E3006238DF8D0
:108590005F3008AB3C220021184612F0FAFC0123A0
:1085A000ADF8303007AB0D932A4B196817AB2A4A48
:1085B000184601F042FE2990299B2893289B002B06
:1085C00005D0264A40F2B941289808F0ABFF214B6C
:1085D000996808AB224A184601F02FFE2990299B82
:1085E0002793279B002B05D01C4A40F2BC412798BB
:1085F00008F098FF01AB18220021184612F0C9FCC0
:1086000001238DF8193044F25063ADF81030012386
:108610008DF804300023029300238DF81830402396
:10862000039301AB1A460B490E48FEF78BFE2990C7
:10863000299B2693269B002B05D0084A40F2CB416C
:10864000269808F06FFF00BF2BB05DF804FB00BF59
:10865000A83100200C2B0020102B002078C3030031
:10866000182B0020082B002000B583B00346009192
:10867000ADF8063013468DF805309DF80530002B17
:108680000ED0002000F060FB0E4A0F4BD31ADB081F
:108690001B0443F003030D4918460CF0B3F90DE039
:1086A000002000F06BFB074A074BD31ADB081B04C2
:1086B00043F00303064918460CF0A4F900BF03B0C9
:1086C0005DF804FBC8C0030088C0030008C40300B1
:1086D0001CC4030000B587B000230293002301935C
:1086E000144B019301AB1946134803F07DFB059031
:1086F000059B0493049B002B05D0104A40F2F341E4
:10870000049808F00FFF0E4B029302AB19460D4878
:1087100003F018FD0590059B0393039B002B05D0E8
:10872000064A40F2F941039808F0FCFE00BF07B08A
:108730005DF804FBBD7B0200682D002078C30300B8
:1087400069860200A831002000B585B00190019B28
:108750001B78002B11D10B4B1B883B211846FEF7D1
:10876000F9FD0390039B0293029B002B05D0064A60
:1087700040F20F51029808F0D5FE00BF05B05DF839
:1087800004FB00BF1C2B002078C3030000B583B09E
:108790000190054A40F21B51019808F0C3FE00BF4A
:1087A00003B05DF804FB00BF78C3030000B58BB0D5
:1087B00001AB1C220021184612F0EBFB00230193B1
:1087C0004FF4A03302934FF4F023039303238DF867
:1087D00010300023ADF8123000238DF814300C4B0C
:1087E00006930C4B079301AB184602F05FFB099010
:1087F000099B0893089B002B05D0074A40F2325191
:10880000089808F08FFE00BF0BB05DF804FB00BFB6
:10881000498702008D87020078C3030000B583B04A
:108820000C4B1B7801211846FEF790FD0190019B2F
:108830000093009B002B05D0074A40F23D51009861
:1088400008F070FE002000F07FFA00BF03B05DF872
:1088500004FB00BF082B002078C3030000B58DB0D7
:1088600001900091019B1B88562B00F0EC80562B49
:1088700000F3FC80522B00F0BF80522B00F3F680F7
:10888000212B2DDC102BC0F2F180103B112B00F2BC
:10889000ED8001A252F823F0E98802005789020016
:1088A0006D8A02009D8902006D8A02006D8A0200B5
:1088B0006D8A02006D8A02006D8A02006D8A0200D4
:1088C0006D8A02006D8A02006D8A02006D8A0200C4
:1088D0006D8A02006D8A02006D8A0200C58902005D
:1088E0003B2B00F09D80C1E0694A6A4BD31ADB083C
:1088F0001B0443F00303684918460CF083F800207A
:1089000000F022FA002000F039FA019B9A88634BAC
:108910001A80624B1B881946614803F087FA0B9056
:108920000B9B0493049B002B05D05E4A40F25551EB
:10893000049808F0F7FD08F035FD0B900B9B0393AE
:10894000039B002B00F09480564A40F25751039845
:1089500008F0E8FD8CE04E4A4E4BD31ADB081B04AE
:1089600043F00303504918460CF04CF8002000F087
:10897000EBF94A4B4FF6FF721A8008F03FFD0B905F
:108980000B9B0593059B002B05D0464A4FF4AC6129
:10899000059808F0C7FDFFF741FF74E03F4B1888CA
:1089A000002300228521FEF7E1FC0B900B9B069330
:1089B000069B002B5ED03B4A40F26A51069808F0B5
:1089C000B1FD57E000238DF8083000238DF8093001
:1089D000019B9B8802AA11461846FEF7CBFC0B9020
:1089E0000B9B0793079B002B46D02E4A40F27651F3
:1089F000079808F097FD3FE0284B188800230022D5
:108A00000021FEF7BBFC0B900B9B0993099B002BED
:108A100034D0244A40F27C51099808F083FD2DE0BF
:108A2000019B9B8813211846FEF794FC0B900B9B2F
:108A30000893089B002B23D01A4A40F284510898CF
:108A400008F070FD1CE0019B9B8813211846FEF77F
:108A500081FC0B900B9B0A930A9B002B12D0114AAE
:108A600040F28C510A9808F05DFD0BE000BF0AE06F
:108A700000BF08E000BF06E000BF04E000BF02E066
:108A800000BF00E000BF00BF0DB05DF804FB00BFF9
:108A9000C8C0030088C0030030C403001C2B0020A2
:108AA000682D002078C303003CC4030000B587B0E4
:108AB0000CF03AFF0590059B0493049B002B05D016
:108AC000164A40F29F51049808F02CFD00230193B0
:108AD00001AB194601200CF0DFFF0590059B0393C5
:108AE000039B002B05D00D4A40F2A551039808F0D6
:108AF00019FD01AB18460DF0EDF80590059B0293AA
:108B0000029B002B05D0054A40F2A951029808F0BB
:108B100009FD00BF07B05DF804FB00BF78C3030088
:108B200000BF704700B583B003460A468DF8073092
:108B300013468DF806309DF806209DF80730114643
:108B40001846FEF7FBF900BF03B05DF804FB00B563
:108B500083B001900198FEF796F900BF03B05DF86D
:108B600004FB000000B583B003468DF807300DF11B
:108B70000703012204491846FEF7F6F9024B1B7859
:108B8000184603B05DF804FBA435002000B583B09F
:108B90000190019B1B68184600F0B5F80346002BB6
:108BA00004D105494FF4F670FEF7F4FF4FF0A043EF
:108BB000184603B05DF804FB60C4030000B585B03F
:108BC0000190084611461A4603468DF803300B46BD
:108BD0008DF8023013468DF8013001AB1846FFF7CF
:108BE000D5FF03909DF803209DF802305B001A43E7
:108BF0009DF801309B001A439DF818301B0242EA91
:108C000003019DF81C301B04019A1943039B02F5D4
:108C1000E07243F8221000BF05B05DF804FB00B518
:108C200085B00390002301930023009300230122C9
:108C300001210398FFF7C2FF00BF05B05DF804FBF8
:108C400000B585B003900B468DF80B309DF80B30C6
:108C50000022019200220092002200210398FFF7D7
:108C6000ADFF00BF05B05DF804FB00B585B0019015
:108C700001AB1846FFF78AFF0390019B012202FA1D
:108C800003F31946039800F02AF800BF05B05DF819
:108C900004FB00B585B0019001AB1846FFF776FFE5
:108CA0000390019B012202FA03F31946039800F096
:108CB00020F800BF05B05DF804FB00B583B001905B
:108CC0000091009B002B03D10198FFF7E2FF02E027
:108CD0000198FFF7CAFF00BF03B05DF804FB82B044
:108CE00001900091019B009AC3F8082500BF02B0D3
:108CF000704782B001900091019B009AC3F80C2547
:108D000000BF02B0704784B00190019B5B090293E1
:108D100000230393029B002B03D14FF0FF330393F7
:108D200000BF019B03F01F030193039A019B22FAEA
:108D300003F303F00103002B14BF01230023DBB274
:108D4000184604B07047000000B583B00190019B45
:108D5000032B03D907494120FEF71CFF064A019B5C
:108D600013441B7800211846FFF7A7FF00BF03B08C
:108D70005DF804FB90C4030004C5030000B583B094
:108D80000190019B032B03D907494720FEF702FFFF
:108D9000064A019B13441B7801211846FFF78DFFFB
:108DA00000BF03B05DF804FB90C4030004C50300DA
:108DB00000B583B00023019305E00198FFF7DEFFC3
:108DC000019B01330193019B032BF6D900BF00BF28
:108DD00003B05DF804FB000000B583B000230193ED
:108DE00009E0094A019B13441B781846FFF717FF57
:108DF000019B01330193019B032BF2D9FFF7D8FFAD
:108E000000BF03B05DF804FB04C5030000B583B0E8
:108E1000002301930AE0094A019B13441B780321B4
:108E20001846FFF70DFF019B01330193019B032BB4
:108E3000F1D900BF00BF03B05DF804FB08C5030013
:108E400000B583B00190019B03F00103002B01D01A
:108E5000FFF7C2FF019B03F00203002B01D0FFF7D5
:108E6000D5FF00BF03B05DF804FB000084B00190A3
:108E70000B468DF8033013468DF802300023039320
:108E8000019B032B3CD89DF80230012B0BD19DF8A0
:108E90000330012B04D1019BDBB20E33DBB200E0C7
:108EA00000238DF802309DF80330022B0FD0022BE7
:108EB00023DC002B16D0012B1FD11449019A134635
:108EC0005B0013440B449DF802201A701AE00F490E
:108ED000019A13465B0013440B4401339DF80220B2
:108EE0001A700FE00949019A13465B0013440B44C2
:108EF00002339DF802201A7004E00723039301E077
:108F000007230393039B184604B07047A83500203D
:108F100000B583B0012200210020FFF7A7FF0190D8
:108F2000019B002B04D0019B072B01D0019B1CE06F
:108F3000072202210120FFF799FF0190019B002BDE
:108F400004D0019B072B01D0019B0EE004220221DB
:108F50000020FFF78BFF0190019B002B04D0019BA9
:108F6000072B01D0019B00E00023184603B05DF8F9
:108F700004FB00B583B0012202210020FFF776FF39
:108F80000190019B002B04D0019B072B01D0019B7A
:108F90001CE0072202210120FFF768FF0190019BDE
:108FA000002B04D0019B072B01D0019B0EE00A226D
:108FB00000210020FFF75AFF0190019B002B04D0F5
:108FC000019B072B01D0019B00E00023184603B052
:108FD0005DF804FB00B585B001900091019B1B88F2
:108FE000102B02D0112B18D02FE01A4B1B68002B2E
:108FF0000DD1FFF78DFF0390039B002B07D0164B7D
:109000001B68002B03D0144B1B6803989847114B27
:109010001B6801330F4A136017E00E4B1B68013BBE
:109020000C4A13600B4B1B68002B0DD1FFF7A1FFFF
:109030000390039B002B07D0074B1B68002B03D02A
:10904000054B1B680398984700BF00BF05B05DF84B
:1090500004FB00BFB8350020B4350020BFF34F8FAC
:1090600000BF064BDB6803F4E0620449044B134382
:10907000CB60BFF34F8F00BF00BFFDE700ED00E006
:109080000400FA0582B01D4B1B68B3F1FF3F0AD103
:109090001B4B1B68DBB201931A4B1B681B0903F0C7
:1090A0000F03009305E0154B1B680193164B1B68DB
:1090B0000093019B062B1DD1009B033B042B17D86B
:1090C00001A252F823F000BFDD900200E1900200FF
:1090D000E5900200E9900200ED90020001230AE011
:1090E000012308E0012306E0012304E0012302E05C
:1090F000012300E00023184602B070473001001041
:10910000E00F00F0E80F00F03401001082B0174BC0
:109110001B68DBB20193164B1B681B0903F00F039E
:109120000093019B062B1DD1009B033B042B17D8FA
:1091300001A252F823F000BF4D91020051910200AC
:1091400055910200599102005D91020001230AE04D
:10915000002308E0002306E0002304E0002302E0EF
:10916000002300E00023184602B07047E00F00F033
:10917000E80F00F082B01D4B1B68B3F1FF3F0AD12E
:109180001B4B1B68DBB201931A4B1B681B0903F0D6
:109190000F03009305E0154B1B680193164B1B68EA
:1091A0000093019B062B1DD1009B033B042B17D87A
:1091B00001A252F823F000BFCD910200D19102002C
:1091C000D5910200D9910200DD91020001230AE04D
:1091D000012308E0012306E0012304E0012302E06B
:1091E000012300E00023184602B070473001001050
:1091F000E00F00F0E80F00F03401001082B0174BD0
:109200001B68DBB20193164B1B681B0903F00F03AD
:109210000093019B062B1DD1009B033B042B17D809
:1092200001A252F823F000BF3D92020041920200D9
:1092300045920200499202004D92020001230AE089
:10924000002308E0002306E0002304E0002302E0FE
:10925000002300E00023184602B07047E00F00F042
:10926000E80F00F082B01D4B1B68B3F1FF3F0AD13D
:109270001B4B1B68DBB201931A4B1B681B0903F0E5
:109280000F03009305E0154B1B680193164B1B68F9
:109290000093019B062B1DD1009B033B042B17D889
:1092A00001A252F823F000BFBD920200C192020059
:1092B000C5920200C9920200CD92020001230AE089
:1092C000012308E0012306E0012304E0012302E07A
:1092D000012300E00023184602B07047300100105F
:1092E000E00F00F0E80F00F03401001082B0174BDF
:1092F0001B68DBB20193164B1B681B0903F00F03BD
:109300000093019B062B1DD1009B033B042B17D818
:1093100001A252F823F000BF2D9302003193020006
:1093200035930200399302003D93020001230AE0C5
:10933000002308E0002306E0002304E0002302E00D
:10934000002300E00023184602B07047E00F00F051
:10935000E80F00F082B0174B1B68DBB20193164B8D
:109360001B681B0903F00F030093019B062B1DD103
:10937000009B033B042B17D801A252F823F000BF37
:1093800095930200999302009D930200A19302001D
:10939000A593020001230AE0002308E0002306E071
:1093A000002304E0002302E0002300E0002318462D
:1093B00002B07047E00F00F0E80F00F082B01D4BE4
:1093C0001B68B3F1FF3F0AD11B4B1B68DBB2019353
:1093D0001A4B1B681B0903F00F03009305E0154BA4
:1093E0001B680193164B1B680093019B062B1DD134
:1093F000009B033B042B17D801A252F823F000BFB7
:1094000015940200199402001D9402002194020098
:109410002594020000230AE0002308E0012306E06F
:10942000012304E0012302E0012300E000231846A9
:1094300002B0704730010010E00F00F0E80F00F0BC
:109440003401001082B01D4B1B68B3F1FF3F0AD1FD
:109450001B4B1B68DBB201931A4B1B681B0903F003
:109460000F03009305E0154B1B680193164B1B6817
:109470000093019B062B1DD1009B033B042B17D8A7
:1094800001A252F823F000BF9D940200A1940200B3
:10949000A5940200A9940200AD94020001230AE001
:1094A000012308E0012306E0012304E0012302E098
:1094B000012300E00023184602B07047300100107D
:1094C000E00F00F0E80F00F03401001082B01D4BF7
:1094D0001B68B3F1FF3F0AD11B4B1B68DBB2019342
:1094E0001A4B1B681B0903F00F03009305E0154B93
:1094F0001B680193164B1B680093019B062B1DD123
:10950000009B033B042B17D801A252F823F000BFA5
:1095100025950200299502002D9502003195020043
:109520003595020001230AE0012308E0012306E04B
:10953000012304E0012302E0012300E00023184698
:1095400002B0704730010010E00F00F0E80F00F0AB
:109550003401001082B0154B1B680193144B1B683B
:109560000093019B062B1DD1009B033B042B17D8B6
:1095700001A252F823F000BF8D95020091950200E0
:1095800095950200999502009D95020000230AE03E
:10959000002308E0002306E0012304E0012302E0A9
:1095A000012300E00023184602B07047300100108C
:1095B0003401001082B0154B1B680193144B1B68DB
:1095C0000093019B062B1DD1009B033B042B17D856
:1095D00001A252F823F000BFED950200F1950200C0
:1095E000F5950200F9950200FD95020000230AE0BE
:1095F000002308E0002306E0002304E0012302E04A
:10960000012300E00023184602B07047300100102B
:109610003401001008B5FFF7CDFF0346002B07D03B
:109620004FF010234FF08042D3F80832C2F858357B
:1096300000BF08BD00BF044BD3F80034002BFAD0A4
:1096400000BF00BF704700BF00E0014000B583B01D
:109650000190054A019BC2F80435FFF7EBFF00BFFC
:1096600003B05DF804FB00BF00E00140024B034A79
:109670001A6000BF704700BF202B00200090D0036D
:1096800008B5FFF7FFFC0346002B06D0964B1B687E
:109690001B0A964A03F01F031360FFF737FD0346CA
:1096A000002B02D0924B934A1A60FFF763FD0346EA
:1096B000002B06D0904B1B685B0B904A03F007030E
:1096C0001360FFF79BFD0346002B05D08C4BDB6836
:1096D0008B4A23F08073D360FFF7C4FD0346002B51
:1096E0000ED04FF080430022C3F80C214FF080438E
:1096F0000022C3F810214FF080430022C3F8382520
:10970000FFF7F4FD0346002B02D07E4B03221A60C4
:10971000FFF720FE0346002B0BD07B4B05221A607F
:109720007A4B01221A607A4B00221A60794B3F2251
:109730001A60FFF743FE0346002B76D04FF08053AC
:10974000754AD3F80434C2F820354FF08053724A7A
:10975000D3F80834C2F824354FF080536E4AD3F85A
:109760000C34C2F828354FF080536B4AD3F81034CC
:10977000C2F82C354FF08053674AD3F81434C2F83E
:1097800030354FF08053644AD3F81834C2F834357A
:109790004FF08053604AD3F81C34C2F840354FF084
:1097A00080535D4AD3F82034C2F844354FF08053DB
:1097B000594AD3F82434C2F848354FF08053564AFA
:1097C000D3F82834C2F84C354FF08053524AD3F8BE
:1097D0002C34C2F850354FF080534F4AD3F8303410
:1097E000C2F854354FF080534B4AD3F83434C2F8A2
:1097F00060354FF08053484AD3F83834C2F86435A6
:109800004FF08053444AD3F83C34C2F868354FF0E7
:109810008053414AD3F84034C2F86C354FF080533E
:109820003D4AD3F84434C2F87035FFF70BFE0346C7
:10983000002B05D0394B1B68394A03F04F031360E6
:10984000FFF744FE0346002B0DD04FF08043D3F8C2
:10985000003403F00103002B05D04FF080436FF07C
:109860000102C3F80024FFF775FE0346002B05D064
:109870002C4B1B682B4A43F4806313602A4BD3F8AC
:109880008830294A43F47003C2F88830BFF34F8F01
:1098900000BFBFF36F8F00BFFFF7BCFE4FF0102378
:1098A000D3F80032002B05DB4FF01023D3F804323D
:1098B000002B15DA0120FFF7C9FE4FF01023152207
:1098C000C3F80022FFF7B6FE4FF010231522C3F8AD
:1098D0000422FFF7AFFE0020FFF7B8FEFFF7BEFB44
:1098E000FFF7C4FE00BF08BD24030010403501404F
:1098F00074C007400DF0ADBA440200103C050040B2
:10990000F0ED00E0A00500401056004088560040F1
:10991000185600401456004000C000405802001085
:10992000E40E00403C17004000ED00E000487047A6
:109930004C4E002012F02CBB12F014BB034608461C
:10994000012112F019BB6DDF704700BF184679DFA7
:10995000704700BF18467DDF704700BF184664DFC0
:10996000704700BF184682B003460091ADF806303C
:10997000BDF80630DAB2009B1A70BDF806301B0A3B
:109980009AB2009B0133D2B21A700223184602B079
:10999000704700B589B0039002911346ADF80630C8
:1099A000029B1B8803F10902BDF806309A4201D9D7
:1099B0000C2353E004AB1846FFF7C5FF0790079B45
:1099C0000693069B002B01D0069B47E0029B1B8859
:1099D0001A46039B134408221A70029B1B8801330A
:1099E0009AB2029B1A80029B1B881A46039B13445F
:1099F0001B221A70029B1B8801339AB2029B1A80A9
:109A0000029B1B881A46039B981804AB013306225D
:109A1000194611F095FA029B1B8806339AB2029BF5
:109A20001A809DF8103023F00103DBB2002B07D120
:109A3000029B1B881A46039B134400221A7006E0FF
:109A4000029B1B881A46039B134401221A70029B37
:109A50001B8801339AB2029B1A800023184609B072
:109A60005DF804FB00B589B0039002910192ADF856
:109A70000230039B1B78012B05D1039B5B78002BE5
:109A800001D1072392E0019B1B889A1CBDF802308C
:109A90009A420ED8039B1B78012B0CD1019B1B888B
:109AA0001A46039B5B7813449A1CBDF802309A4215
:109AB00001D90C237AE0019B1B88BDF80220D31A40
:109AC0009BB2023BADF81C30BDF81C30ADF8123033
:109AD000019B1B880233029A13440DF112021146B6
:109AE0001846FFF738FF0690069B0593059B002B51
:109AF00001D0059B5AE0039B1B78022B06D0039BE9
:109B00005B789AB2BDF812309A4209D3BDF8123090
:109B1000BDF81C209A4203D309238DF81F3017E0AB
:109B200008238DF81F30039B1B78012B0CD1039B5E
:109B30005B789BB2BDF81C209A4205D3039B5B78EF
:109B40009BB2ADF8123003E0BDF81C30ADF8123016
:109B5000BDF81230FE2B01D90C2327E0BDF81230DE
:109B6000DAB2019B1B881946029B0B440132D2B228
:109B70001A70019B1B8801339AB2019B1A80019BCA
:109B80001B881A46029B13449DF81F201A70019BE4
:109B90001B8801339AB2019B1A80019B1A88BDF879
:109BA000123013449AB2019B1A800023184609B060
:109BB0005DF804FB00B589B0039002911346ADF83F
:109BC0000630029B1B881A1DBDF806309A4201D947
:109BD0000C233BE00DF116031846FFF7B8FE079083
:109BE000079B0693069B002B01D0069B2EE0029B51
:109BF0001B881A46039B134403221A70029B1B887E
:109C000001339AB2029B1A80029B1B881A46039B5F
:109C1000134419221A70029B1B8801339AB2029BCB
:109C20001A80BDF81620029B1B881946039B0B4423
:109C300019461046FFF797FE03461946029B1A88FD
:109C40008BB213449AB2029B1A800023184609B0C3
:109C50005DF804FB84B0029101921A4603468DF828
:109C60000F301346ADF80C30019B1B88DA1CBDF891
:109C70000C309A4201D90C2328E0019B1B881A461C
:109C8000029B134402221A70019B1B8801339AB273
:109C9000019B1A80019B1B881A46029B13440122D8
:109CA0001A70019B1B8801339AB2019B1A80019B99
:109CB0001B881A46029B13449DF80F201A70019BC3
:109CC0001B8801339AB2019B1A800023184604B006
:109CD000704784B0029101921A4603468DF80F3006
:109CE0001346ADF80C30019B1B88DA1CBDF80C3014
:109CF0009A4201D90C2328E0019B1B881A46029B3B
:109D0000134402221A70019B1B8801339AB2019BF3
:109D10001A80019B1B881A46029B13440A221A7060
:109D2000019B1B8801339AB2019B1A80019B1B88FF
:109D30001A46029B13449DF80F201A70019B1B8842
:109D400001339AB2019B1A800023184604B0704771
:109D500000B58FB0039001930B468DF80B3013467E
:109D60008DF80A3000238DF83330109B1B88ADF836
:109D7000303000230D9371E0039B5A680D9B9B00CC
:109D80001A4405AB106818600DF11B0105AB0022E9
:109D90001846FFF7E4FD0A900A9B0993099B002BE4
:109DA00001D0099B7CE09DF81B309DF80A209A4267
:109DB00051D19DF83330002B01D0002300E0022365
:109DC0008DF82330109B1B881A469DF81B301A44CF
:109DD0009DF823301A44BDF844309A4201DD0C232B
:109DE0005EE09DF8333083F00103DBB2002B16D028
:109DF000109B1B8801339AB2109B1A80109B1B8802
:109E00001A46019B13449DF80B201A70109B1B8867
:109E100001339AB2109B1A8001238DF83330109BC6
:109E20001B881A46019B1A440DF11B0105AB18460D
:109E3000FFF795FD0A900A9B0793079B002B01D023
:109E4000079B2DE0109B1A889DF81B309BB2134492
:109E50009AB2109B1A800D9B01330D93039B1B88B4
:109E60001A460D9B934287DB9DF83330002B16D0AA
:109E7000109B1A88BDF83030D31A9BB2013BADF865
:109E80002E30BDF82E30FF2B01D90C2308E0BDF891
:109E90003030019A1344BDF82E20D2B21A7000233C
:109EA00018460FB05DF804FB00B58BB00590039326
:109EB0000B468DF8133013468DF812309DF81310B1
:109EC000BDF8343001930C9B0093039B022205984C
:109ED000FFF73EFF0990099B0893089B002B01D0D8
:109EE000089B14E09DF81210BDF8343001930C9BD0
:109EF0000093039B10220598FFF72AFF0990099B06
:109F00000793079B002B01D0079B00E00023184616
:109F10000BB05DF804FB82B00190019B1B88052B00
:109F20000AD9019B1B88B3F5486F07D9019B1B8891
:109F30004FF6FF72934201D0072325E0019B5B8817
:109F4000052B0AD9019B5B88B3F5486F07D9019BA4
:109F50005B884FF6FF72934201D0072314E0019B08
:109F60001B884FF6FF7293420DD0019B5B884FF622
:109F7000FF72934207D0019B1A88019B5B889A422B
:109F800001D9072300E00023184602B0704700B54E
:109F900087B0039002910192ADF80230019B1B88BB
:109FA0009A1DBDF802309A4201D90C234DE0039866
:109FB000FFF7B1FF0590059B0493049B002B01D094
:109FC000049B42E0019B1B881A46029B1344052216
:109FD0001A70019B1B8801339AB2019B1A80019B66
:109FE0001B881A46029B134412221A70019B1B887D
:109FF00001339AB2019B1A80039B1A88019B1B882C
:10A000001946029B0B4419461046FFF7ACFC034669
:10A010001946019B1A888BB213449AB2019B1A808D
:10A02000039B5A88019B1B881946029B0B441946C7
:10A030001046FFF798FC03461946019B1A888BB21D
:10A0400013449AB2019B1A800023184607B05DF8AA
:10A0500004FB00B587B0039002910192ADF8023085
:10A06000039B9B8802330593019B1B881A46059B23
:10A0700013449A1CBDF802309A4201D90C2354E0D3
:10A08000059BFE2B01D90C234FE0059BDAB2019B07
:10A090001B881946029B0B440132D2B21A70019BF5
:10A0A0001B8801339AB2019B1A80019B1B881A46B8
:10A0B000029B1344FF221A70019B1B8801339AB242
:10A0C000019B1A80039B1A88019B1B881946029BDF
:10A0D0000B4419461046FFF746FC03461946019B00
:10A0E0001A888BB213449AB2019B1A80039B9B88F7
:10A0F000002B19D0039B9B68002B01D1072314E090
:10A10000019B1B881A46029B9818039B9968039B26
:10A110009B881A4610F014FF019B1A88039B9B88AA
:10A1200013449AB2019B1A800023184607B05DF8C9
:10A1300004FB00B589B0039002910192ADF80230A2
:10A14000039B9B6A002B01D1072372E000238DF84B
:10A150001F3066E0039B996A9DF81F2013465B0041
:10A1600013449B000B440693069B9B880233059384
:10A17000059BFE2B01D90C235BE0059BDAB2019B0A
:10A180001B881946029B0B440132D2B21A70019B04
:10A190001B8801339AB2019B1A80019B1B881A46C7
:10A1A000029B134416221A70019B1B8801339AB23A
:10A1B000019B1A80069B1A88019B1B881946029BEB
:10A1C0000B4419461046FFF7CEFB03461946019B88
:10A1D0001A888BB213449AB2019B1A80069B9B8803
:10A1E000002B19D0069B9B68002B01D1072320E090
:10A1F000019B1B881A46029B9818069B9968069B30
:10A200009B881A4610F09CFE019B1A88069B9B882F
:10A2100013449AB2019B1A809DF81F3001338DF8C8
:10A220001F30039B93F82C309DF81F209A4291D346
:10A230000023184609B05DF804FB00B595B0059001
:10A240000491039200231393039B1B88ADF84A30BB
:10A25000039B00221A80059B93F82D30002B0ED013
:10A26000BDF84A301A4603990498FFF792FB139001
:10A27000139B1193119B002B01D0119BD8E0059BE0
:10A280009B78002B0ED0BDF84A301A4603990498EB
:10A29000FFF790FC1390139B1093109B002B01D0A1
:10A2A000109BC5E0059BDB78002B10D0059BDB786D
:10A2B00058B2BDF84A30039A0499FFF7CBFC1390CB
:10A2C000139B0F930F9B002B01D00F9BB0E0059BBE
:10A2D0005B68002B11D0059B5B6893F90000BDF80B
:10A2E0004A30039A0499FFF7F4FC1390139B0E93E2
:10A2F0000E9B002B01D00E9B9AE0059B1B89002B27
:10A3000014D0059B03F10800BDF84A300193039B6C
:10A310000093049B06220221FFF7C6FD1390139BB6
:10A320000D930D9B002B01D00D9B81E0059B1B8A9B
:10A33000002B14D0059B03F11000BDF84A300193A7
:10A34000039B0093049B07220321FFF7ADFD1390AD
:10A35000139B0C930C9B002B01D00C9B68E0059B7E
:10A360001B8B002B14D0059B03F11800BDF84A305D
:10A370000193039B0093049B15221421FFF794FD86
:10A380001390139B0B930B9B002B01D00B9B4FE067
:10A39000059B1B6A002B0FD0059B186ABDF84A303D
:10A3A000039A0499FFF7F3FD1390139B0A930A9BFA
:10A3B000002B01D00A9B3BE0059B5B6A002B0FD072
:10A3C000059B586ABDF84A30039A0499FFF741FE8D
:10A3D0001390139B0993099B002B01D0099B27E045
:10A3E000059B93F82C30002B0ED0BDF84A30039A11
:10A3F00004990598FFF79DFE1390139B0893089B03
:10A40000002B01D0089B13E0059B1B78002B0ED07E
:10A41000BDF84A30039A04990598FFF723FB13907F
:10A42000139B0793079B002B01D0079B00E0139B16
:10A43000184615B05DF804FB86B0039001921A46E9
:10A440000B46ADF80A3013468DF80930039B002BFC
:10A4500002D0019B002B01D100235CE00023ADF86A
:10A4600016300CE0BDF81630039A13441B789AB2EC
:10A47000BDF8163013449BB20133ADF81630BDF869
:10A4800016305A1CBDF80A309A420FDA019B1B881D
:10A49000BDF816209A42E5D3BDF816300133039A71
:10A4A00013441B789DF809209A42DBD1BDF8162091
:10A4B000BDF80A309A4201D300232CE0BDF81630D3
:10A4C0000233ADF81430BDF81630039A13441B78EC
:10A4D000002B08D0BDF81630039A13441B789BB2AA
:10A4E000013B9BB200E00023ADF81230BDF8123002
:10A4F000002B08D0BDF81420BDF812301A44BDF866
:10A500000A309A4201DD002305E0019BBDF81420CA
:10A510001A80BDF81230184606B0704700B585B0F5
:10A5200001900B46ADF8023013468DF80130002340
:10A53000ADF80C309DF8013003AABDF80210019867
:10A54000FFF77AFF0346ADF80E30BDF80E30002B52
:10A5500001D1002304E0BDF80C301A46019B1344DE
:10A56000184605B05DF804FB72DF704700BF18465F
:10A5700073DF704700BF184682B00190019B93F8CB
:10A580003034184602B0704784B001900023039322
:10A590000AE0019A039B13441B78002B01D001238E
:10A5A00006E0039B01330393039B052BF1D90023A2
:10A5B000184604B07047000082B003468DF807309B
:10A5C0009DF807305A1C074B83FB02135910D31711
:10A5D000C91A0B469B000B44D11ACBB2184602B0E5
:10A5E000704700BF6766666682B001900091009B6D
:10A5F000DB7B012B04D1009B9A88019BA3F82424C8
:10A6000000BF02B0704700B585B001900091019B7A
:10A61000002283F82E24009B9A88019BB3F82434EF
:10A620009A4216D1019B1B7983F00103DBB2002B08
:10A630000FD00121019800F0AFF90390039B002B8C
:10A6400007D0019B9B6B002B03D0019B9B6B039856
:10A65000984700BF05B05DF804FB00B585B00190D8
:10A660000091009B1B88262B1ED1009B1B7A012B7F
:10A6700003D0009B1B7A022B17D1019B9B781846B5
:10A68000FFF79AFF03461946019800F085F90390F9
:10A69000039B002B09D0019B9B6B002B05D0019BDA
:10A6A0009B6B0398984700E000BF05B05DF804FB82
:10A6B00000B585B001900B468DF80330019B03F285
:10A6C00027431846FFF760FF03468DF80F309DF8CB
:10A6D0000330013B032B33D801A252F823F000BF13
:10A6E000F1A6020015A7020029A7020035A7020063
:10A6F000019B9B79002B0DD0019B93F8243083F0B4
:10A700000103DBB2002B05D09DF80F30002B01D0E8
:10A71000012316E0019BDB79002B05D09DF80F305B
:10A72000002B01D002230CE0019B1B7A002B01D0EF
:10A73000032306E0019B5B7A002B01D0042300E099
:10A740000023184605B05DF804FB00BF82B00190FD
:10A750000091019B012283F83120019B0022C3F864
:10A760002024019B03F22642009B5A60009B00229A
:10A770009A60009B02221A70009B80229A8100231B
:10A78000184602B0704782B001900091019B0222EE
:10A7900083F83120019B93F82430002B03D0009BD9
:10A7A00007221A7002E0009B03221A70019B1B69AA
:10A7B0009AB2009B9A81019B0022C3F82024019B3E
:10A7C00003F22642009B5A60019BDA68009B9A6064
:10A7D0000023184602B0704700B583B00190019B7A
:10A7E0005B79002B0FD0019B93F82E3483F001038B
:10A7F000DBB2002B07D00198FFF7BEFE0346002B0B
:10A8000001D0012300E0002303F00103DBB218466E
:10A8100003B05DF804FB00B585B001900B468DF8E0
:10A820000330019BD3F81004019BB3F814340122C8
:10A830001946FFF773FE0390039B002B03D0039B85
:10A840009DF803201A70019B03F15400019B03F54E
:10A850008261019B3C331A46FFF786FE0346184689
:10A8600005B05DF804FB00B585B001900091019B37
:10A870005A69009B9A60019B9B699AB2009B9A81DE
:10A88000019B93F82430002B04D0019B062283F80F
:10A890003C2003E0019B012283F83C200198FFF754
:10A8A0009BFF0346002B13D0009B02221A75042144
:10A8B0000198FFF7B0FF0390039B0293029B002BCC
:10A8C00001D0029B0FE0019B052283F8312003E0B9
:10A8D000019B032283F83120019B03F58262019BD7
:10A8E000C3F820240023184605B05DF804FB00B52A
:10A8F00085B001900091019BDA69009B9A60019BF1
:10A900001B6A9AB2009B9A81019B93F82430002B1A
:10A9100004D0019B062283F83C2003E0019B012226
:10A9200083F83C200198FFF757FF0346002B13D014
:10A93000009B02221A7504210198FFF76CFF039017
:10A94000039B0293029B002B01D0029B0FE0019B13
:10A95000062283F8312003E0019B042283F8312092
:10A96000019B03F58262019BC3F820240023184653
:10A9700005B05DF804FB82B00190019B1B68012BC0
:10A9800003D0019B1B68022B01D1012300E00023AF
:10A99000184602B07047000000B585B001900B4624
:10A9A0008DF80330019B1B7883F00103DBB2002B91
:10A9B00001D0082309E1019B9DF803209A70019BB7
:10A9C00003F2264307220021184610F0E2FA019B09
:10A9D0009B79002B03D0019B9B78012B0FD0019B0F
:10A9E000DB79002B03D0019B9B78012B07D0019BC7
:10A9F000DB79002B14D0019B9B78022B10D1019B9B
:10AA00005B6B002B08D0019B012283F82D24019B56
:10AA10005B6B0820984703E0019B002283F82D24FC
:10AA20009DF8033019460198FFF742FE03461A4687
:10AA3000019B9A70019B5B6B002B20D0019B9B7844
:10AA4000032B03D0019B9B78042B18D1019B5B79CE
:10AA5000002B14D0019B93F82E3483F00103DBB25A
:10AA6000002B0CD0019B002283F83024019B012293
:10AA700083F82F24019B5B6B0720984703E0019B21
:10AA8000002283F82F24019B3C3318220021184612
:10AA900010F07FFA019B012283F83C20019B2C33AC
:10AAA0001846FFF768FF0346002B06D0019BDB6AC0
:10AAB000DAB2019B83F8512003E0019B012283F865
:10AAC0005120019B93F82430002B12D0019B283396
:10AAD0001846FFF750FF0346002B06D0019B9B6AE8
:10AAE000DAB2019B83F8522003E0019B012283F834
:10AAF0005220019B002283F85020019B9B78042B5D
:10AB000031D801A252F823F05DAB02001DAB020068
:10AB10002DAB02003DAB02004DAB0200019B3C336C
:10AB200019460198FFF712FE03901DE0019B3C338C
:10AB300019460198FFF727FE039015E0019B3C336F
:10AB400019460198FFF78FFE03900DE0019B3C33FF
:10AB500019460198FFF7CBFE039005E0019B002208
:10AB600083F8312000E000BF019B9B78002B20D0B0
:10AB7000019B03F15400019BD3F82014019B3C334B
:10AB80001A46FFF7F1FC0390039B002B01D0039BB7
:10AB90001BE0019B93F85420019B93F83030194639
:10ABA0001046FFF7E5FC0390039B002B01D0039BAD
:10ABB0000BE0019B5B6B002B06D0019B5B6B019A4A
:10ABC00092F83120104698470023184605B05DF8EA
:10ABD00004FB00BF00B585B001900091009B03937A
:10ABE000019B1B88262B10D0262B13DC102B02D0A8
:10ABF000112B05D00EE001990398FFF7F5FC0AE050
:10AC000001990398FFF7FFFC05E001990398FFF70E
:10AC100024FD00E000BF00BF05B05DF804FB75DF58
:10AC2000704700BF184676DF704700BF18467ADFCE
:10AC3000704700BF18467BDF704700BF1846000012
:10AC400084B00346ADF806300023039316E00F49A5
:10AC5000039A13469B0013449B000B441B88BDF8CA
:10AC600006209A4207D1039A13469B0013449B0087
:10AC7000064A134406E0039B01330393039B002B16
:10AC8000E5D00023184604B0704700BFE03500202F
:10AC900082B001900B46ADF80230019BBDF8022056
:10ACA0001A80019B00221A72019B054903F10A02D6
:10ACB0000B4603CB1060516000BF02B0704700BF6D
:10ACC0001036002082B00190019B4FF6FF721A806F
:10ACD00000BF02B0704788B00390029111461A4637
:10ACE0000B46ADF806301346ADF80430039B9B8845
:10ACF0001A46BDF8063013440793039B9B881946F8
:10AD0000039B9B88BDF80620934228BF13469BB245
:10AD1000CB1A0693039BDB881A46BDF80430134414
:10AD20000593039BDB881946039BDB88BDF8042051
:10AD3000934228BF13469BB2CB1A0493029B5A88B6
:10AD4000039B1B889A4205D3029B5A88039B5B880E
:10AD50009A4201D900231CE0029B9B881A46069B5D
:10AD6000934205D8029B9B881A46079B934201D2C7
:10AD700000230EE0029BDB881A46049B934205D811
:10AD8000029BDB881A46059B934201D2002300E018
:10AD90000123184608B0704700B583B00190064BF8
:10ADA0009B69002B03D0044B9B690198984700BF17
:10ADB00003B05DF804FB00BFF435002000B585B09A
:10ADC00003460091ADF80630BDF8063000991846EC
:10ADD000FFF725FF0390039B002B05D0039B112B4E
:10ADE00002D00398FFF7D8FF039B002B0CBF012371
:10ADF0000023DBB2184605B05DF804FB00B589B04E
:10AE00000190019B0793079B9BB21846FFF718FF21
:10AE10000690069B002B42D0069B1A7A224B1B7B86
:10AE20009A4215D2079B9AB2069B0A3319461046DE
:10AE3000FFF7C4FF03468DF813309DF81330002B45
:10AE40002DD0069B1B7A0133DAB2069B1A7226E0DC
:10AE5000069B00221A72144B1B7C002B0FD0079B01
:10AE60009BB23B211846FFF7DEFE0590059B002BA9
:10AE700005D0059B082B02D00598FFF78DFF0A4BE4
:10AE80005B69002B0BD000238DF80C30079B9BB225
:10AE9000ADF80E30044B5B6903AA1046984700BF1B
:10AEA00009B05DF804FB00BFF435002030B587B071
:10AEB0000190019B002B01D10E2353E02B4A019BF3
:10AEC00014461D460FCD0FC495E8070084E807001F
:10AED000264B274A1A60019B1B68002B11D0019B4F
:10AEE0001B681846FFF7A3FE0490049B002B01D0BB
:10AEF000049B37E0019B1A681D4B1068516803C31F
:10AF000008E01B48FFF797FE0490049B002B01D03C
:10AF1000049B27E00023059320E0059A13469B003D
:10AF200013449B00134A134403930398FFF7CAFE8C
:10AF3000059B5B01104A1A44039B5A60039B043330
:10AF40000E4A0021184606F0DDFE0490049B002BFB
:10AF500001D0032306E0059B01330593059B002BDD
:10AF6000DBD00023184607B030BD00BFF435002009
:10AF700010360020E0350020C0350020FDAD020075
:10AF800000B587B003460091ADF80630009B5B7AB0
:10AF9000002B1AD1009B1B7A002B03D1164B5B6848
:10AFA000059302E0144B9B680593009B5B68BDF81A
:10AFB00006200599184606F0DFFE0490049B002B3E
:10AFC00016D00498FFF7E8FE12E0009B00221A72E8
:10AFD000094B5B69002B0BD001238DF80C30BDF8B9
:10AFE0000630ADF80E30044B5B6903AA1046984753
:10AFF00000BF07B05DF804FBF435002000B585B054
:10B000000190019BDB7B8DF80F30019B9B88ADF895
:10B010000C309DF80F30012B2CD14FF6FF70FFF74D
:10B020000FFE0290029B002B03D10420FFF7B4FE19
:10B0300021E0BDF80C3019460298FFF729FE029B6B
:10B0400003F10A00019B03F110014FF6FF7340F278
:10B05000F312FFF740FE03461A46029B5A72074B53
:10B06000DB89002B07D1BDF80C3002991846FFF799
:10B0700087FF00E000BF05B05DF804FBF435002059
:10B0800000B587B00190019B9B88ADF81630BDF8E4
:10B0900016301846FFF7D4FD0490049B002B0ED009
:10B0A000049B5B68184606F0BFFE0390039B002BD1
:10B0B00002D00398FFF770FE0498FFF703FE00BF6D
:10B0C00007B05DF804FB000000B587B00190019B5C
:10B0D00006330593059B1A88194BDB899A422BD1BD
:10B0E000059B5B89022B27D1019B9B88ADF8123011
:10B0F000BDF812301846FFF7A3FD0390039B002B09
:10B100001AD0059B0C33184600F0FEF90346002BBD
:10B1100006D0BDF8123003991846FFF731FF0BE057
:10B12000039B5B68184606F07FFE0290029B002B93
:10B1300002D00298FFF730FE00BF07B05DF804FBB5
:10B14000F435002000B585B00190019B9B88ADF8D7
:10B150000E30BDF80E301846FFF772FD0290029BCC
:10B16000002B15D0029B03F10A00019B03F108019B
:10B170004FF6FF7340F2F312FFF7ADFD03461A4698
:10B18000029B5A72BDF80E3002991846FFF7F8FE7E
:10B1900000BF05B05DF804FB00B583B001900091DD
:10B1A000019B1B88502B12D0502B18DC122B12D075
:10B1B000122B14DC102B02D0112B04D00FE00198BD
:10B1C000FFF71CFF0CE00198FFF75AFF08E0019819
:10B1D000FFF77AFF04E00198FFF7B4FF00E000BF3B
:10B1E00000BF03B05DF804FB30B58FB00190009153
:10B1F00000230293009B002B1AD000230D9314E030
:10B200006B460D99184607F088FD0346002B09D0C0
:10B21000029B5A1C02920D9A92B25B0038336B4427
:10B2200023F82C2C0D9B01330D930D9B132BE7D989
:10B23000019B1D4602AC0FCC0FC50FCC0FC594E887
:10B24000070085E8070001980FB030BD00B583B056
:10B250000346ADF80630BDF80630132B01D90023A4
:10B260000CE0BDF806301946064807F025FDBDF88C
:10B2700006301946044807F01FFD0123184603B0A5
:10B280005DF804FB203600201C36002000B585B098
:10B290000346ADF80630002303930DE0039B9B00AB
:10B2A000094A13440433BDF806201146184607F036
:10B2B0001BFD039B01330393039B1D2BEED900BFA2
:10B2C00000BF05B05DF804FB1836002000B583B060
:10B2D0000346ADF80630BDF806301946034807F0BE
:10B2E00003FD00BF03B05DF804FB00BF2036002063
:10B2F00030B59BB0184B9B68DB431893164B5A68CC
:10B3000018AB1146184607F067FD189A6B461146B0
:10B310001846FFF769FF0DAC6D460FCD0FC40FCD7A
:10B320000FC495E8070084E80700002319930BE099
:10B33000199B5B0068336B4433F8303C1846FFF7C9
:10B34000A5FF199B013319930D9B199A9A42EFD3CC
:10B3500000BF00BF1BB030BD1836002000B583B061
:10B3600001900B46ADF8023013468DF801309DF880
:10B370000130002B06D0BDF802301946019807F0C5
:10B380009BFC05E0BDF802301946019807F0ACFCC3
:10B3900000BF03B05DF804FB00B585B001900091DB
:10B3A000019B9B88ADF80E30019B1B88103B0A2B3C
:10B3B00000F2888001A252F823F000BFE9B3020036
:10B3C00025B40200C5B40200C5B40200C5B4020031
:10B3D000C5B40200C5B40200C5B40200C5B4020081
:10B3E0008FB4020031B40200FFF782FFBDF80E30C7
:10B3F0001846FFF72BFF034683F00103DBB2002B57
:10B4000005D0324AF021042006F08CF857E0019B69
:10B41000DB7B022B53D1BDF80E3019462C4807F0C8
:10B420004BFC4CE0BDF80E301846FFF74FFF49E0EB
:10B43000019B1B7AC3F30313DBB28DF80D309DF82B
:10B440000D30032B8CBF01230023DAB2BDF80E3080
:10B4500019462048FFF782FF9DF80D30022B8CBF64
:10B4600001230023DAB2BDF80E3019461A48FFF75F
:10B4700075FF9DF80D30012B8CBF01230023DAB23C
:10B48000BDF80E3019461548FFF768FF1AE0019B1A
:10B490001B7A002B15D1019B5B7AC3F3C003DBB28F
:10B4A000002B14BF012300238DF80C309DF80C20D5
:10B4B000BDF80E3019460748FFF750FF01E000BF06
:10B4C00000E000BF00BF05B05DF804FB0CC5030041
:10B4D00024360020303600202C360020283600206C
:10B4E00082B00190019B1B781AB2019B01331B783B
:10B4F0001B021BB213431BB29BB2184602B070472B
:10B50000AADF704700BF184600B585B001900198CA
:10B51000FFF7E6FF0346ADF80E30BDF80E3003F03E
:10B520000103002B14BF01230023DBB2184605B032
:10B530005DF804FB82B0034600918DF80730009A55
:10B5400013786FF303031370009A13786FF30713E4
:10B5500013709DF80730052B5BD801A252F823F039
:10B5600079B502008FB50200A9B50200C3B502008B
:10B57000DDB50200F7B50200009A13786FF30303FC
:10B580001370009A13786FF30713137040E0009A5A
:10B590001378012161F303031370009A13780121DA
:10B5A00061F30713137033E0009A1378012161F3FC
:10B5B00003031370009A1378022161F307131370C9
:10B5C00026E0009A1378012161F303031370009AB7
:10B5D0001378032161F30713137019E0009A1378AD
:10B5E000022161F303031370009A1378012161F3C0
:10B5F000071313700CE0009A1378022161F3030320
:10B600001370009A1378022161F30713137000BFBF
:10B6100000BF00BF02B0704700B595B0034602916D
:10B620000192ADF80E30029B9B78002B03D10123D1
:10B630008DF81E3003E0029B9B788DF81E30029B34
:10B640001B88ADF81C3006AB0322002118460FF012
:10B65000A0FC029B5B7C06AA11461846FFF76AFF16
:10B66000029B9A7C06AB013319461046FFF762FF36
:10B67000029BDA7B9DF81A3062F3C3038DF81A300F
:10B68000029B1A7C9DF81A3062F304138DF81A306D
:10B69000029B1A7B9DF81A3062F300038DF81A3072
:10B6A000029B1B7D002B01D0022200E001229DF8AD
:10B6B0001A3062F342038DF81A300DAB1C220021C0
:10B6C00018460FF066FC029B5B7B03F01003DBB2B5
:10B6D000002B06D1029B5B7B03F02003DBB2002B27
:10B6E00024D004AB0322002118460FF052FC029B29
:10B6F000DA7C04AB013319461046FFF71BFF9DF8B7
:10B700001030012262F303038DF810309DF81030E1
:10B71000012262F307138DF810309DF812300122D8
:10B7200062F342038DF8123004AB1293029B5B7BF1
:10B730008DF83430029B9B7B8DF8353008AB14229A
:10B74000002118460FF025FC07AB089306AB0993C0
:10B75000029B9B88ADF82C30029B9B68002B06D087
:10B76000029BDB88ADF82830029B9B680C93029B00
:10B770009B69002B4FD005AB0322002118460FF028
:10B7800008FC029B9B691B88ADF83C30029B9B69BF
:10B790005B88ADF83E30029B9B695B680E9305ABFE
:10B7A0001193029B9B691B7B05AA11461846FFF764
:10B7B000C1FE029B9B695A7B05AB013319461046BB
:10B7C000FFF7B8FE029B9B699A7A9DF8163062F3E8
:10B7D000C3038DF81630029B9B69DA7A9DF8163008
:10B7E00062F304138DF81630029B9B691A7A9DF858
:10B7F000163062F300038DF81630029B9B699B7B29
:10B80000002B01D0022200E001229DF8163062F3E5
:10B8100042038DF81630029BDB69002B02D0029B9D
:10B82000DB69109308AA0DA9BDF80E00019BFFF774
:10B8300067FE0346184615B05DF804FB90DF7047BD
:10B8400000BF1846A5DF704700BF1846B5DF704738
:10B8500000BF184682B00190019BF7221A80019B1D
:10B8600017225A80019B00221A71019B00225A71F3
:10B87000019BFB229A71019B1B22DA7100BF02B06F
:10B880007047000030B589B003460A46ADF806306F
:10B890001346ADF80430BDF80430ADF81430BDF8EF
:10B8A0000430ADF816300023ADF818300023ADF8A1
:10B8B0001A3003AB00221A609A8003AA05A9BDF8CA
:10B8C00006301846FFF7BAFF0790079B002B39D0C8
:10B8D0001E4A1F4BD31ADB081B0443F00104BDF8BA
:10B8E0000650079808F096FA03462A46194920465A
:10B8F00009F0A7F8BDF80C30002B03D1BDF80E30CD
:10B90000002B0ED0114A124BD31ADB081B0443F054
:10B910000100BDF80C301A46BDF80E300E4909F092
:10B9200090F8BDF81030002B0CD0084A084BD31A01
:10B93000DB081B0443F00103BDF81020074918463B
:10B9400009F06EF8079B184609B030BDF8C0030037
:10B9500088C003009CC50300E8C5030028C6030097
:10B9600000B585B001900091009B9B88ADF80E302A
:10B97000BDF80E30DB00019A134406330293019B9D
:10B980001A79029B9A71009BDB7B012B02D0022B60
:10B9900005D009E0019B1A88029B1A8004E0019BF4
:10B9A0005A88029B1A8000BF029B9A79029BDB791E
:10B9B0009A4208D9029B9B799AB2BDF80E30114683
:10B9C0001846FFF75FFF00BF05B05DF804FB00B548
:10B9D00083B001900091009B9B88DB00019A134487
:10B9E00006331846FFF736FF00BF03B05DF804FBCF
:10B9F00000B587B001900091009B9B88ADF8163090
:10BA0000009B5B89ADF81430BDF81630DB00019A5D
:10BA1000134406330493049B1B88BDF814209342FF
:10BA200028BF13469AB2049B5A80049B5B88172B4D
:10BA300038BF17239AB2049B5A80019B1B69002BC5
:10BA400015D0049B5B79002B11D040F67723ADF81D
:10BA50000830BDF81630ADF80A30049B5B88ADF8AD
:10BA60000C30019B1B6902AA114601989847049B60
:10BA700000225A71049B00221A7100BF07B05DF8C2
:10BA800004FB000010B588B001900091009B9B88DA
:10BA9000ADF81A30009BDB88ADF81830BDF81A30CD
:10BAA000DB00019A134406330593BDF81830172BB9
:10BAB00038BF1723ADF81830059B1B88BDF8182038
:10BAC000934228BF13469AB2059B5A80059B0022D9
:10BAD0001A71059B1A88BDF81A3011461846FFF7EF
